{
  "contractName": "Donation",
  "abi": [
    {
      "inputs": [],
      "stateMutability": "nonpayable",
      "type": "constructor"
    },
    {
      "anonymous": false,
      "inputs": [
        {
          "indexed": true,
          "internalType": "address",
          "name": "owner",
          "type": "address"
        },
        {
          "indexed": true,
          "internalType": "address",
          "name": "approved",
          "type": "address"
        },
        {
          "indexed": true,
          "internalType": "uint256",
          "name": "tokenId",
          "type": "uint256"
        }
      ],
      "name": "Approval",
      "type": "event"
    },
    {
      "anonymous": false,
      "inputs": [
        {
          "indexed": true,
          "internalType": "address",
          "name": "owner",
          "type": "address"
        },
        {
          "indexed": true,
          "internalType": "address",
          "name": "operator",
          "type": "address"
        },
        {
          "indexed": false,
          "internalType": "bool",
          "name": "approved",
          "type": "bool"
        }
      ],
      "name": "ApprovalForAll",
      "type": "event"
    },
    {
      "anonymous": false,
      "inputs": [
        {
          "indexed": true,
          "internalType": "address",
          "name": "previousOwner",
          "type": "address"
        },
        {
          "indexed": true,
          "internalType": "address",
          "name": "newOwner",
          "type": "address"
        }
      ],
      "name": "OwnershipTransferred",
      "type": "event"
    },
    {
      "anonymous": false,
      "inputs": [
        {
          "indexed": true,
          "internalType": "address",
          "name": "from",
          "type": "address"
        },
        {
          "indexed": true,
          "internalType": "address",
          "name": "to",
          "type": "address"
        },
        {
          "indexed": true,
          "internalType": "uint256",
          "name": "tokenId",
          "type": "uint256"
        }
      ],
      "name": "Transfer",
      "type": "event"
    },
    {
      "inputs": [
        {
          "internalType": "uint256",
          "name": "",
          "type": "uint256"
        }
      ],
      "name": "allDonations",
      "outputs": [
        {
          "internalType": "uint256",
          "name": "donationID",
          "type": "uint256"
        },
        {
          "internalType": "uint256",
          "name": "donationIndex",
          "type": "uint256"
        },
        {
          "internalType": "address",
          "name": "donorAddress",
          "type": "address"
        },
        {
          "internalType": "string",
          "name": "donationComment",
          "type": "string"
        },
        {
          "internalType": "uint256",
          "name": "donationAmount",
          "type": "uint256"
        }
      ],
      "stateMutability": "view",
      "type": "function"
    },
    {
      "inputs": [
        {
          "internalType": "address",
          "name": "to",
          "type": "address"
        },
        {
          "internalType": "uint256",
          "name": "tokenId",
          "type": "uint256"
        }
      ],
      "name": "approve",
      "outputs": [],
      "stateMutability": "nonpayable",
      "type": "function"
    },
    {
      "inputs": [
        {
          "internalType": "address",
          "name": "owner",
          "type": "address"
        }
      ],
      "name": "balanceOf",
      "outputs": [
        {
          "internalType": "uint256",
          "name": "",
          "type": "uint256"
        }
      ],
      "stateMutability": "view",
      "type": "function"
    },
    {
      "inputs": [
        {
          "internalType": "uint256",
          "name": "tokenId",
          "type": "uint256"
        }
      ],
      "name": "getApproved",
      "outputs": [
        {
          "internalType": "address",
          "name": "",
          "type": "address"
        }
      ],
      "stateMutability": "view",
      "type": "function"
    },
    {
      "inputs": [
        {
          "internalType": "address",
          "name": "owner",
          "type": "address"
        },
        {
          "internalType": "address",
          "name": "operator",
          "type": "address"
        }
      ],
      "name": "isApprovedForAll",
      "outputs": [
        {
          "internalType": "bool",
          "name": "",
          "type": "bool"
        }
      ],
      "stateMutability": "view",
      "type": "function"
    },
    {
      "inputs": [],
      "name": "name",
      "outputs": [
        {
          "internalType": "string",
          "name": "",
          "type": "string"
        }
      ],
      "stateMutability": "view",
      "type": "function"
    },
    {
      "inputs": [],
      "name": "owner",
      "outputs": [
        {
          "internalType": "address",
          "name": "",
          "type": "address"
        }
      ],
      "stateMutability": "view",
      "type": "function"
    },
    {
      "inputs": [
        {
          "internalType": "uint256",
          "name": "tokenId",
          "type": "uint256"
        }
      ],
      "name": "ownerOf",
      "outputs": [
        {
          "internalType": "address",
          "name": "",
          "type": "address"
        }
      ],
      "stateMutability": "view",
      "type": "function"
    },
    {
      "inputs": [],
      "name": "renounceOwnership",
      "outputs": [],
      "stateMutability": "nonpayable",
      "type": "function"
    },
    {
      "inputs": [
        {
          "internalType": "address",
          "name": "from",
          "type": "address"
        },
        {
          "internalType": "address",
          "name": "to",
          "type": "address"
        },
        {
          "internalType": "uint256",
          "name": "tokenId",
          "type": "uint256"
        }
      ],
      "name": "safeTransferFrom",
      "outputs": [],
      "stateMutability": "nonpayable",
      "type": "function"
    },
    {
      "inputs": [
        {
          "internalType": "address",
          "name": "from",
          "type": "address"
        },
        {
          "internalType": "address",
          "name": "to",
          "type": "address"
        },
        {
          "internalType": "uint256",
          "name": "tokenId",
          "type": "uint256"
        },
        {
          "internalType": "bytes",
          "name": "data",
          "type": "bytes"
        }
      ],
      "name": "safeTransferFrom",
      "outputs": [],
      "stateMutability": "nonpayable",
      "type": "function"
    },
    {
      "inputs": [
        {
          "internalType": "address",
          "name": "operator",
          "type": "address"
        },
        {
          "internalType": "bool",
          "name": "approved",
          "type": "bool"
        }
      ],
      "name": "setApprovalForAll",
      "outputs": [],
      "stateMutability": "nonpayable",
      "type": "function"
    },
    {
      "inputs": [
        {
          "internalType": "bytes4",
          "name": "interfaceId",
          "type": "bytes4"
        }
      ],
      "name": "supportsInterface",
      "outputs": [
        {
          "internalType": "bool",
          "name": "",
          "type": "bool"
        }
      ],
      "stateMutability": "view",
      "type": "function"
    },
    {
      "inputs": [],
      "name": "symbol",
      "outputs": [
        {
          "internalType": "string",
          "name": "",
          "type": "string"
        }
      ],
      "stateMutability": "view",
      "type": "function"
    },
    {
      "inputs": [
        {
          "internalType": "uint256",
          "name": "tokenId",
          "type": "uint256"
        }
      ],
      "name": "tokenURI",
      "outputs": [
        {
          "internalType": "string",
          "name": "",
          "type": "string"
        }
      ],
      "stateMutability": "view",
      "type": "function"
    },
    {
      "inputs": [],
      "name": "totalNumberOfDonations",
      "outputs": [
        {
          "internalType": "uint256",
          "name": "",
          "type": "uint256"
        }
      ],
      "stateMutability": "view",
      "type": "function"
    },
    {
      "inputs": [
        {
          "internalType": "address",
          "name": "from",
          "type": "address"
        },
        {
          "internalType": "address",
          "name": "to",
          "type": "address"
        },
        {
          "internalType": "uint256",
          "name": "tokenId",
          "type": "uint256"
        }
      ],
      "name": "transferFrom",
      "outputs": [],
      "stateMutability": "nonpayable",
      "type": "function"
    },
    {
      "inputs": [
        {
          "internalType": "address",
          "name": "newOwner",
          "type": "address"
        }
      ],
      "name": "transferOwnership",
      "outputs": [],
      "stateMutability": "nonpayable",
      "type": "function"
    }
  ],
  "bytecode": "0x608060405260006008553480156200001657600080fd5b5060405180604001604052806011815260200170111bdb985d1a5bdb8810dbdb9d1c9858dd607a1b81525060405180604001604052806004815260200163111390d560e21b81525081600090816200006f91906200019c565b5060016200007e82826200019c565b5050506200009b62000095620000a160201b60201c565b620000a5565b62000268565b3390565b600780546001600160a01b038381166001600160a01b0319831681179093556040519116919082907f8be0079c531659141344cd1fd0a4f28419497f9722a3daafe3b4186f6b6457e090600090a35050565b634e487b7160e01b600052604160045260246000fd5b600181811c908216806200012257607f821691505b6020821081036200014357634e487b7160e01b600052602260045260246000fd5b50919050565b601f8211156200019757600081815260208120601f850160051c81016020861015620001725750805b601f850160051c820191505b8181101562000193578281556001016200017e565b5050505b505050565b81516001600160401b03811115620001b857620001b8620000f7565b620001d081620001c984546200010d565b8462000149565b602080601f831160018114620002085760008415620001ef5750858301515b600019600386901b1c1916600185901b17855562000193565b600085815260208120601f198616915b82811015620002395788860151825594840194600190910190840162000218565b5085821015620002585787850151600019600388901b60f8161c191681555b5050505050600190811b01905550565b6115a580620002786000396000f3fe608060405234801561001057600080fd5b50600436106101165760003560e01c8063715018a6116100a2578063a22cb46511610071578063a22cb46514610240578063b88d4fde14610253578063c87b56dd14610266578063e985e9c514610279578063f2fde38b1461028c57600080fd5b8063715018a61461021657806379cf134a1461021e5780638da5cb5b1461022757806395d89b411461023857600080fd5b8063095ea7b3116100e9578063095ea7b3146101a757806323b872dd146101bc57806342842e0e146101cf5780636352211e146101e257806370a08231146101f557600080fd5b806301ffc9a71461011b57806306c497131461014357806306fdde0314610167578063081812fc1461017c575b600080fd5b61012e6101293660046110b6565b61029f565b60405190151581526020015b60405180910390f35b6101566101513660046110d3565b6102f1565b60405161013a95949392919061113c565b61016f6103c9565b60405161013a919061117b565b61018f61018a3660046110d3565b61045b565b6040516001600160a01b03909116815260200161013a565b6101ba6101b53660046111aa565b610482565b005b6101ba6101ca3660046111d4565b61059c565b6101ba6101dd3660046111d4565b6105cd565b61018f6101f03660046110d3565b6105e8565b610208610203366004611210565b610648565b60405190815260200161013a565b6101ba6106ce565b61020860085481565b6007546001600160a01b031661018f565b61016f6106e2565b6101ba61024e36600461122b565b6106f1565b6101ba61026136600461127d565b610700565b61016f6102743660046110d3565b610738565b61012e610287366004611359565b610848565b6101ba61029a366004611210565b610876565b60006001600160e01b031982166380ac58cd60e01b14806102d057506001600160e01b03198216635b5e139f60e01b145b806102eb57506301ffc9a760e01b6001600160e01b03198316145b92915050565b6009818154811061030157600080fd5b6000918252602090912060059091020180546001820154600283015460038401805493955091936001600160a01b03909116929091906103409061138c565b80601f016020809104026020016040519081016040528092919081815260200182805461036c9061138c565b80156103b95780601f1061038e576101008083540402835291602001916103b9565b820191906000526020600020905b81548152906001019060200180831161039c57829003601f168201915b5050505050908060040154905085565b6060600080546103d89061138c565b80601f01602080910402602001604051908101604052809291908181526020018280546104049061138c565b80156104515780601f1061042657610100808354040283529160200191610451565b820191906000526020600020905b81548152906001019060200180831161043457829003601f168201915b5050505050905090565b6000610466826108ef565b506000908152600460205260409020546001600160a01b031690565b600061048d826105e8565b9050806001600160a01b0316836001600160a01b0316036104ff5760405162461bcd60e51b815260206004820152602160248201527f4552433732313a20617070726f76616c20746f2063757272656e74206f776e656044820152603960f91b60648201526084015b60405180910390fd5b336001600160a01b038216148061051b575061051b8133610848565b61058d5760405162461bcd60e51b815260206004820152603d60248201527f4552433732313a20617070726f76652063616c6c6572206973206e6f7420746f60448201527f6b656e206f776e6572206f7220617070726f76656420666f7220616c6c00000060648201526084016104f6565b610597838361094e565b505050565b6105a633826109bc565b6105c25760405162461bcd60e51b81526004016104f6906113c6565b610597838383610a1a565b61059783838360405180602001604052806000815250610700565b6000818152600260205260408120546001600160a01b0316806102eb5760405162461bcd60e51b8152602060048201526018602482015277115490cdcc8c4e881a5b9d985b1a59081d1bdad95b88125160421b60448201526064016104f6565b60006001600160a01b0382166106b25760405162461bcd60e51b815260206004820152602960248201527f4552433732313a2061646472657373207a65726f206973206e6f7420612076616044820152683634b21037bbb732b960b91b60648201526084016104f6565b506001600160a01b031660009081526003602052604090205490565b6106d6610b8b565b6106e06000610be5565b565b6060600180546103d89061138c565b6106fc338383610c37565b5050565b61070a33836109bc565b6107265760405162461bcd60e51b81526004016104f6906113c6565b61073284848484610d05565b50505050565b6060610743826108ef565b6000828152600660205260408120805461075c9061138c565b80601f01602080910402602001604051908101604052809291908181526020018280546107889061138c565b80156107d55780601f106107aa576101008083540402835291602001916107d5565b820191906000526020600020905b8154815290600101906020018083116107b857829003601f168201915b5050505050905060006107f360408051602081019091526000815290565b90508051600003610805575092915050565b81511561083757808260405160200161081f929190611413565b60405160208183030381529060405292505050919050565b61084084610d38565b949350505050565b6001600160a01b03918216600090815260056020908152604080832093909416825291909152205460ff1690565b61087e610b8b565b6001600160a01b0381166108e35760405162461bcd60e51b815260206004820152602660248201527f4f776e61626c653a206e6577206f776e657220697320746865207a65726f206160448201526564647265737360d01b60648201526084016104f6565b6108ec81610be5565b50565b6000818152600260205260409020546001600160a01b03166108ec5760405162461bcd60e51b8152602060048201526018602482015277115490cdcc8c4e881a5b9d985b1a59081d1bdad95b88125160421b60448201526064016104f6565b600081815260046020526040902080546001600160a01b0319166001600160a01b0384169081179091558190610983826105e8565b6001600160a01b03167f8c5be1e5ebec7d5bd14f71427d1e84f3dd0314c0f7b2291e5b200ac8c7c3b92560405160405180910390a45050565b6000806109c8836105e8565b9050806001600160a01b0316846001600160a01b031614806109ef57506109ef8185610848565b806108405750836001600160a01b0316610a088461045b565b6001600160a01b031614949350505050565b826001600160a01b0316610a2d826105e8565b6001600160a01b031614610a535760405162461bcd60e51b81526004016104f690611442565b6001600160a01b038216610ab55760405162461bcd60e51b8152602060048201526024808201527f4552433732313a207472616e7366657220746f20746865207a65726f206164646044820152637265737360e01b60648201526084016104f6565b610ac28383836001610dac565b826001600160a01b0316610ad5826105e8565b6001600160a01b031614610afb5760405162461bcd60e51b81526004016104f690611442565b600081815260046020908152604080832080546001600160a01b03199081169091556001600160a01b0387811680865260038552838620805460001901905590871680865283862080546001019055868652600290945282852080549092168417909155905184937fddf252ad1be2c89b69c2b068fc378daa952ba7f163c4a11628f55a4df523b3ef91a4505050565b6007546001600160a01b031633146106e05760405162461bcd60e51b815260206004820181905260248201527f4f776e61626c653a2063616c6c6572206973206e6f7420746865206f776e657260448201526064016104f6565b600780546001600160a01b038381166001600160a01b0319831681179093556040519116919082907f8be0079c531659141344cd1fd0a4f28419497f9722a3daafe3b4186f6b6457e090600090a35050565b816001600160a01b0316836001600160a01b031603610c985760405162461bcd60e51b815260206004820152601960248201527f4552433732313a20617070726f766520746f2063616c6c65720000000000000060448201526064016104f6565b6001600160a01b03838116600081815260056020908152604080832094871680845294825291829020805460ff191686151590811790915591519182527f17307eab39ab6107e8899845ad3d59bd9653f200f220920489ca2b5937696c31910160405180910390a3505050565b610d10848484610a1a565b610d1c84848484610e34565b6107325760405162461bcd60e51b81526004016104f690611487565b6060610d43826108ef565b6000610d5a60408051602081019091526000815290565b90506000815111610d7a5760405180602001604052806000815250610da5565b80610d8484610f35565b604051602001610d95929190611413565b6040516020818303038152906040525b9392505050565b6001811115610732576001600160a01b03841615610df2576001600160a01b03841660009081526003602052604081208054839290610dec9084906114ef565b90915550505b6001600160a01b03831615610732576001600160a01b03831660009081526003602052604081208054839290610e29908490611502565b909155505050505050565b60006001600160a01b0384163b15610f2a57604051630a85bd0160e11b81526001600160a01b0385169063150b7a0290610e78903390899088908890600401611515565b6020604051808303816000875af1925050508015610eb3575060408051601f3d908101601f19168201909252610eb091810190611552565b60015b610f10573d808015610ee1576040519150601f19603f3d011682016040523d82523d6000602084013e610ee6565b606091505b508051600003610f085760405162461bcd60e51b81526004016104f690611487565b805181602001fd5b6001600160e01b031916630a85bd0160e11b149050610840565b506001949350505050565b60606000610f4283610fc8565b600101905060008167ffffffffffffffff811115610f6257610f62611267565b6040519080825280601f01601f191660200182016040528015610f8c576020820181803683370190505b5090508181016020015b600019016f181899199a1a9b1b9c1cb0b131b232b360811b600a86061a8153600a8504945084610f9657509392505050565b60008072184f03e93ff9f4daa797ed6e38ed64bf6a1f0160401b83106110075772184f03e93ff9f4daa797ed6e38ed64bf6a1f0160401b830492506040015b6d04ee2d6d415b85acef81000000008310611033576d04ee2d6d415b85acef8100000000830492506020015b662386f26fc10000831061105157662386f26fc10000830492506010015b6305f5e1008310611069576305f5e100830492506008015b612710831061107d57612710830492506004015b6064831061108f576064830492506002015b600a83106102eb5760010192915050565b6001600160e01b0319811681146108ec57600080fd5b6000602082840312156110c857600080fd5b8135610da5816110a0565b6000602082840312156110e557600080fd5b5035919050565b60005b838110156111075781810151838201526020016110ef565b50506000910152565b600081518084526111288160208601602086016110ec565b601f01601f19169290920160200192915050565b85815284602082015260018060a01b038416604082015260a06060820152600061116960a0830185611110565b90508260808301529695505050505050565b602081526000610da56020830184611110565b80356001600160a01b03811681146111a557600080fd5b919050565b600080604083850312156111bd57600080fd5b6111c68361118e565b946020939093013593505050565b6000806000606084860312156111e957600080fd5b6111f28461118e565b92506112006020850161118e565b9150604084013590509250925092565b60006020828403121561122257600080fd5b610da58261118e565b6000806040838503121561123e57600080fd5b6112478361118e565b91506020830135801515811461125c57600080fd5b809150509250929050565b634e487b7160e01b600052604160045260246000fd5b6000806000806080858703121561129357600080fd5b61129c8561118e565b93506112aa6020860161118e565b925060408501359150606085013567ffffffffffffffff808211156112ce57600080fd5b818701915087601f8301126112e257600080fd5b8135818111156112f4576112f4611267565b604051601f8201601f19908116603f0116810190838211818310171561131c5761131c611267565b816040528281528a602084870101111561133557600080fd5b82602086016020830137600060208483010152809550505050505092959194509250565b6000806040838503121561136c57600080fd5b6113758361118e565b91506113836020840161118e565b90509250929050565b600181811c908216806113a057607f821691505b6020821081036113c057634e487b7160e01b600052602260045260246000fd5b50919050565b6020808252602d908201527f4552433732313a2063616c6c6572206973206e6f7420746f6b656e206f776e6560408201526c1c881bdc88185c1c1c9bdd9959609a1b606082015260800190565b600083516114258184602088016110ec565b8351908301906114398183602088016110ec565b01949350505050565b60208082526025908201527f4552433732313a207472616e736665722066726f6d20696e636f72726563742060408201526437bbb732b960d91b606082015260800190565b60208082526032908201527f4552433732313a207472616e7366657220746f206e6f6e20455243373231526560408201527131b2b4bb32b91034b6b83632b6b2b73a32b960711b606082015260800190565b634e487b7160e01b600052601160045260246000fd5b818103818111156102eb576102eb6114d9565b808201808211156102eb576102eb6114d9565b6001600160a01b038581168252841660208201526040810183905260806060820181905260009061154890830184611110565b9695505050505050565b60006020828403121561156457600080fd5b8151610da5816110a056fea26469706673582212209458ed0595560351d6a786bba53d1b8348c84a75e1363f2be5f71a4b84af7b3c64736f6c63430008110033",
  "immutableReferences": {},
  "source": "// SPDX-License-Identifier: MIT\r\npragma solidity ^0.8.7;\r\n\r\nimport \"../node_modules/@openzeppelin/contracts/token/ERC721/extensions/ERC721URIStorage.sol\";\r\nimport \"../node_modules/@openzeppelin/contracts/utils/Counters.sol\";\r\nimport \"../node_modules/@openzeppelin/contracts/token/ERC721/ERC721.sol\";\r\nimport \"../node_modules/@openzeppelin/contracts/access/Ownable.sol\";\r\n\r\ncontract Donation is ERC721URIStorage, Ownable {\r\n\r\n    uint256 public totalNumberOfDonations = 0;\r\n\r\n    struct NftDonation {\r\n        uint256 donationID;\r\n        uint256 donationIndex;\r\n        address donorAddress;\r\n        string donationComment;\r\n        uint256 donationAmount;\r\n    }\r\n\r\n    NftDonation[] public allDonations; // Store all the donations in an array\r\n   \r\n    constructor() ERC721(\"Donation Contract\", \"DNCT\") {}\r\n    \r\n}",
  "sourcePath": "C:\\Users\\Archie\\Desktop\\EtherTix\\frontend\\contracts\\Donation.sol",
  "compiler": {
    "name": "solc",
    "version": "0.8.17+commit.8df45f5f.Emscripten.clang"
  },
  "schemaVersion": "3.4.12",
  "updatedAt": "2023-03-02T14:57:44.612Z",
  "devdoc": {
    "kind": "dev",
    "methods": {
      "approve(address,uint256)": {
        "details": "See {IERC721-approve}."
      },
      "balanceOf(address)": {
        "details": "See {IERC721-balanceOf}."
      },
      "getApproved(uint256)": {
        "details": "See {IERC721-getApproved}."
      },
      "isApprovedForAll(address,address)": {
        "details": "See {IERC721-isApprovedForAll}."
      },
      "name()": {
        "details": "See {IERC721Metadata-name}."
      },
      "owner()": {
        "details": "Returns the address of the current owner."
      },
      "ownerOf(uint256)": {
        "details": "See {IERC721-ownerOf}."
      },
      "renounceOwnership()": {
        "details": "Leaves the contract without owner. It will not be possible to call `onlyOwner` functions anymore. Can only be called by the current owner. NOTE: Renouncing ownership will leave the contract without an owner, thereby removing any functionality that is only available to the owner."
      },
      "safeTransferFrom(address,address,uint256)": {
        "details": "See {IERC721-safeTransferFrom}."
      },
      "safeTransferFrom(address,address,uint256,bytes)": {
        "details": "See {IERC721-safeTransferFrom}."
      },
      "setApprovalForAll(address,bool)": {
        "details": "See {IERC721-setApprovalForAll}."
      },
      "supportsInterface(bytes4)": {
        "details": "See {IERC165-supportsInterface}."
      },
      "symbol()": {
        "details": "See {IERC721Metadata-symbol}."
      },
      "tokenURI(uint256)": {
        "details": "See {IERC721Metadata-tokenURI}."
      },
      "transferFrom(address,address,uint256)": {
        "details": "See {IERC721-transferFrom}."
      },
      "transferOwnership(address)": {
        "details": "Transfers ownership of the contract to a new account (`newOwner`). Can only be called by the current owner."
      }
    },
    "version": 1
  },
  "userdoc": {
    "kind": "user",
    "methods": {},
    "version": 1
  }
}