{
  "contractName": "Donation",
  "abi": [
    {
      "inputs": [
        {
          "internalType": "address payable",
          "name": "_recipient",
          "type": "address"
        },
        {
          "internalType": "uint256",
          "name": "_totalDonated",
          "type": "uint256"
        }
      ],
      "stateMutability": "nonpayable",
      "type": "constructor"
    },
    {
      "anonymous": false,
      "inputs": [
        {
          "indexed": true,
          "internalType": "address",
          "name": "owner",
          "type": "address"
        },
        {
          "indexed": true,
          "internalType": "address",
          "name": "approved",
          "type": "address"
        },
        {
          "indexed": true,
          "internalType": "uint256",
          "name": "tokenId",
          "type": "uint256"
        }
      ],
      "name": "Approval",
      "type": "event"
    },
    {
      "anonymous": false,
      "inputs": [
        {
          "indexed": true,
          "internalType": "address",
          "name": "owner",
          "type": "address"
        },
        {
          "indexed": true,
          "internalType": "address",
          "name": "operator",
          "type": "address"
        },
        {
          "indexed": false,
          "internalType": "bool",
          "name": "approved",
          "type": "bool"
        }
      ],
      "name": "ApprovalForAll",
      "type": "event"
    },
    {
      "anonymous": false,
      "inputs": [
        {
          "indexed": true,
          "internalType": "address",
          "name": "from",
          "type": "address"
        },
        {
          "indexed": true,
          "internalType": "address",
          "name": "to",
          "type": "address"
        },
        {
          "indexed": true,
          "internalType": "uint256",
          "name": "tokenId",
          "type": "uint256"
        }
      ],
      "name": "Transfer",
      "type": "event"
    },
    {
      "inputs": [
        {
          "internalType": "address",
          "name": "to",
          "type": "address"
        },
        {
          "internalType": "uint256",
          "name": "tokenId",
          "type": "uint256"
        }
      ],
      "name": "approve",
      "outputs": [],
      "stateMutability": "nonpayable",
      "type": "function"
    },
    {
      "inputs": [
        {
          "internalType": "address",
          "name": "owner",
          "type": "address"
        }
      ],
      "name": "balanceOf",
      "outputs": [
        {
          "internalType": "uint256",
          "name": "",
          "type": "uint256"
        }
      ],
      "stateMutability": "view",
      "type": "function"
    },
    {
      "inputs": [],
      "name": "didDonate",
      "outputs": [
        {
          "internalType": "bool",
          "name": "",
          "type": "bool"
        }
      ],
      "stateMutability": "view",
      "type": "function"
    },
    {
      "inputs": [
        {
          "internalType": "uint256",
          "name": "tokenId",
          "type": "uint256"
        }
      ],
      "name": "getApproved",
      "outputs": [
        {
          "internalType": "address",
          "name": "",
          "type": "address"
        }
      ],
      "stateMutability": "view",
      "type": "function"
    },
    {
      "inputs": [
        {
          "internalType": "address",
          "name": "owner",
          "type": "address"
        },
        {
          "internalType": "address",
          "name": "operator",
          "type": "address"
        }
      ],
      "name": "isApprovedForAll",
      "outputs": [
        {
          "internalType": "bool",
          "name": "",
          "type": "bool"
        }
      ],
      "stateMutability": "view",
      "type": "function"
    },
    {
      "inputs": [
        {
          "internalType": "uint256",
          "name": "",
          "type": "uint256"
        }
      ],
      "name": "listOfDonations",
      "outputs": [
        {
          "internalType": "uint256",
          "name": "",
          "type": "uint256"
        }
      ],
      "stateMutability": "view",
      "type": "function"
    },
    {
      "inputs": [],
      "name": "name",
      "outputs": [
        {
          "internalType": "string",
          "name": "",
          "type": "string"
        }
      ],
      "stateMutability": "view",
      "type": "function"
    },
    {
      "inputs": [
        {
          "internalType": "uint256",
          "name": "tokenId",
          "type": "uint256"
        }
      ],
      "name": "ownerOf",
      "outputs": [
        {
          "internalType": "address",
          "name": "",
          "type": "address"
        }
      ],
      "stateMutability": "view",
      "type": "function"
    },
    {
      "inputs": [],
      "name": "recipient",
      "outputs": [
        {
          "internalType": "address payable",
          "name": "",
          "type": "address"
        }
      ],
      "stateMutability": "view",
      "type": "function"
    },
    {
      "inputs": [
        {
          "internalType": "address",
          "name": "",
          "type": "address"
        }
      ],
      "name": "recipientDonation",
      "outputs": [
        {
          "internalType": "bool",
          "name": "",
          "type": "bool"
        }
      ],
      "stateMutability": "view",
      "type": "function"
    },
    {
      "inputs": [
        {
          "internalType": "address",
          "name": "from",
          "type": "address"
        },
        {
          "internalType": "address",
          "name": "to",
          "type": "address"
        },
        {
          "internalType": "uint256",
          "name": "tokenId",
          "type": "uint256"
        }
      ],
      "name": "safeTransferFrom",
      "outputs": [],
      "stateMutability": "nonpayable",
      "type": "function"
    },
    {
      "inputs": [
        {
          "internalType": "address",
          "name": "from",
          "type": "address"
        },
        {
          "internalType": "address",
          "name": "to",
          "type": "address"
        },
        {
          "internalType": "uint256",
          "name": "tokenId",
          "type": "uint256"
        },
        {
          "internalType": "bytes",
          "name": "data",
          "type": "bytes"
        }
      ],
      "name": "safeTransferFrom",
      "outputs": [],
      "stateMutability": "nonpayable",
      "type": "function"
    },
    {
      "inputs": [
        {
          "internalType": "address",
          "name": "operator",
          "type": "address"
        },
        {
          "internalType": "bool",
          "name": "approved",
          "type": "bool"
        }
      ],
      "name": "setApprovalForAll",
      "outputs": [],
      "stateMutability": "nonpayable",
      "type": "function"
    },
    {
      "inputs": [
        {
          "internalType": "bytes4",
          "name": "interfaceId",
          "type": "bytes4"
        }
      ],
      "name": "supportsInterface",
      "outputs": [
        {
          "internalType": "bool",
          "name": "",
          "type": "bool"
        }
      ],
      "stateMutability": "view",
      "type": "function"
    },
    {
      "inputs": [],
      "name": "symbol",
      "outputs": [
        {
          "internalType": "string",
          "name": "",
          "type": "string"
        }
      ],
      "stateMutability": "view",
      "type": "function"
    },
    {
      "inputs": [
        {
          "internalType": "uint256",
          "name": "tokenId",
          "type": "uint256"
        }
      ],
      "name": "tokenURI",
      "outputs": [
        {
          "internalType": "string",
          "name": "",
          "type": "string"
        }
      ],
      "stateMutability": "view",
      "type": "function"
    },
    {
      "inputs": [],
      "name": "totalDonated",
      "outputs": [
        {
          "internalType": "uint256",
          "name": "",
          "type": "uint256"
        }
      ],
      "stateMutability": "view",
      "type": "function"
    },
    {
      "inputs": [
        {
          "internalType": "address",
          "name": "from",
          "type": "address"
        },
        {
          "internalType": "address",
          "name": "to",
          "type": "address"
        },
        {
          "internalType": "uint256",
          "name": "tokenId",
          "type": "uint256"
        }
      ],
      "name": "transferFrom",
      "outputs": [],
      "stateMutability": "nonpayable",
      "type": "function"
    },
    {
      "inputs": [
        {
          "internalType": "uint256",
          "name": "amountToDonate",
          "type": "uint256"
        }
      ],
      "name": "leaveDonation",
      "outputs": [],
      "stateMutability": "payable",
      "type": "function"
    },
    {
      "inputs": [],
      "name": "checkDonation",
      "outputs": [
        {
          "internalType": "bool",
          "name": "",
          "type": "bool"
        }
      ],
      "stateMutability": "payable",
      "type": "function"
    }
  ],
  "bytecode": "0x60806040523480156200001157600080fd5b5060405162001722380380620017228339810160408190526200003491620000c0565b60405180604001604052806009815260200168446f6e6174696f6e7360b81b81525060405180604001604052806004815260200163444e545360e01b8152508160009081620000849190620001a1565b506001620000938282620001a1565b5050600780546001600160a01b0319166001600160a01b039490941693909317909255600855506200026d565b60008060408385031215620000d457600080fd5b82516001600160a01b0381168114620000ec57600080fd5b6020939093015192949293505050565b634e487b7160e01b600052604160045260246000fd5b600181811c908216806200012757607f821691505b6020821081036200014857634e487b7160e01b600052602260045260246000fd5b50919050565b601f8211156200019c57600081815260208120601f850160051c81016020861015620001775750805b601f850160051c820191505b81811015620001985782815560010162000183565b5050505b505050565b81516001600160401b03811115620001bd57620001bd620000fc565b620001d581620001ce845462000112565b846200014e565b602080601f8311600181146200020d5760008415620001f45750858301515b600019600386901b1c1916600185901b17855562000198565b600085815260208120601f198616915b828110156200023e578886015182559484019460019091019084016200021d565b50858210156200025d5787850151600019600388901b60f8161c191681555b5050505050600190811b01905550565b6114a5806200027d6000396000f3fe60806040526004361061011e5760003560e01c806370a08231116100a0578063c5d1aa3e11610064578063c5d1aa3e14610307578063c87b56dd14610321578063dc2b67f514610341578063e985e9c514610361578063f7a5c9211461038157600080fd5b806370a082311461028b5780637b1e2f43146102ab57806395d89b41146102b2578063a22cb465146102c7578063b88d4fde146102e757600080fd5b80631ef33d19116100e75780631ef33d19146101f857806323b872dd1461020b57806342842e0e1461022b5780636352211e1461024b57806366d003ac1461026b57600080fd5b8062b370441461012357806301ffc9a71461014c57806306fdde031461017c578063081812fc1461019e578063095ea7b3146101d6575b600080fd5b34801561012f57600080fd5b5061013960085481565b6040519081526020015b60405180910390f35b34801561015857600080fd5b5061016c610167366004610ff5565b6103b1565b6040519015158152602001610143565b34801561018857600080fd5b50610191610403565b6040516101439190611062565b3480156101aa57600080fd5b506101be6101b9366004611075565b610495565b6040516001600160a01b039091168152602001610143565b3480156101e257600080fd5b506101f66101f13660046110aa565b6104bc565b005b6101f6610206366004611075565b6105d6565b34801561021757600080fd5b506101f66102263660046110d4565b6105f0565b34801561023757600080fd5b506101f66102463660046110d4565b610621565b34801561025757600080fd5b506101be610266366004611075565b61063c565b34801561027757600080fd5b506007546101be906001600160a01b031681565b34801561029757600080fd5b506101396102a6366004611110565b61069c565b600061016c565b3480156102be57600080fd5b50610191610722565b3480156102d357600080fd5b506101f66102e236600461112b565b610731565b3480156102f357600080fd5b506101f661030236600461117d565b610740565b34801561031357600080fd5b5060095461016c9060ff1681565b34801561032d57600080fd5b5061019161033c366004611075565b610778565b34801561034d57600080fd5b5061013961035c366004611075565b610888565b34801561036d57600080fd5b5061016c61037c366004611259565b6108a9565b34801561038d57600080fd5b5061016c61039c366004611110565b600b6020526000908152604090205460ff1681565b60006001600160e01b031982166380ac58cd60e01b14806103e257506001600160e01b03198216635b5e139f60e01b145b806103fd57506301ffc9a760e01b6001600160e01b03198316145b92915050565b6060600080546104129061128c565b80601f016020809104026020016040519081016040528092919081815260200182805461043e9061128c565b801561048b5780601f106104605761010080835404028352916020019161048b565b820191906000526020600020905b81548152906001019060200180831161046e57829003601f168201915b5050505050905090565b60006104a0826108d7565b506000908152600460205260409020546001600160a01b031690565b60006104c78261063c565b9050806001600160a01b0316836001600160a01b0316036105395760405162461bcd60e51b815260206004820152602160248201527f4552433732313a20617070726f76616c20746f2063757272656e74206f776e656044820152603960f91b60648201526084015b60405180910390fd5b336001600160a01b0382161480610555575061055581336108a9565b6105c75760405162461bcd60e51b815260206004820152603d60248201527f4552433732313a20617070726f76652063616c6c6572206973206e6f7420746f60448201527f6b656e206f776e6572206f7220617070726f76656420666f7220616c6c0000006064820152608401610530565b6105d18383610939565b505050565b80600860008282546105e891906112dc565b909155505050565b6105fa33826109a7565b6106165760405162461bcd60e51b8152600401610530906112ef565b6105d1838383610a05565b6105d183838360405180602001604052806000815250610740565b6000818152600260205260408120546001600160a01b0316806103fd5760405162461bcd60e51b8152602060048201526018602482015277115490cdcc8c4e881a5b9d985b1a59081d1bdad95b88125160421b6044820152606401610530565b60006001600160a01b0382166107065760405162461bcd60e51b815260206004820152602960248201527f4552433732313a2061646472657373207a65726f206973206e6f7420612076616044820152683634b21037bbb732b960b91b6064820152608401610530565b506001600160a01b031660009081526003602052604090205490565b6060600180546104129061128c565b61073c338383610b76565b5050565b61074a33836109a7565b6107665760405162461bcd60e51b8152600401610530906112ef565b61077284848484610c44565b50505050565b6060610783826108d7565b6000828152600660205260408120805461079c9061128c565b80601f01602080910402602001604051908101604052809291908181526020018280546107c89061128c565b80156108155780601f106107ea57610100808354040283529160200191610815565b820191906000526020600020905b8154815290600101906020018083116107f857829003601f168201915b50505050509050600061083360408051602081019091526000815290565b90508051600003610845575092915050565b81511561087757808260405160200161085f92919061133c565b60405160208183030381529060405292505050919050565b61088084610c77565b949350505050565b600a818154811061089857600080fd5b600091825260209091200154905081565b6001600160a01b03918216600090815260056020908152604080832093909416825291909152205460ff1690565b6000818152600260205260409020546001600160a01b03166109365760405162461bcd60e51b8152602060048201526018602482015277115490cdcc8c4e881a5b9d985b1a59081d1bdad95b88125160421b6044820152606401610530565b50565b600081815260046020526040902080546001600160a01b0319166001600160a01b038416908117909155819061096e8261063c565b6001600160a01b03167f8c5be1e5ebec7d5bd14f71427d1e84f3dd0314c0f7b2291e5b200ac8c7c3b92560405160405180910390a45050565b6000806109b38361063c565b9050806001600160a01b0316846001600160a01b031614806109da57506109da81856108a9565b806108805750836001600160a01b03166109f384610495565b6001600160a01b031614949350505050565b826001600160a01b0316610a188261063c565b6001600160a01b031614610a3e5760405162461bcd60e51b81526004016105309061136b565b6001600160a01b038216610aa05760405162461bcd60e51b8152602060048201526024808201527f4552433732313a207472616e7366657220746f20746865207a65726f206164646044820152637265737360e01b6064820152608401610530565b610aad8383836001610ceb565b826001600160a01b0316610ac08261063c565b6001600160a01b031614610ae65760405162461bcd60e51b81526004016105309061136b565b600081815260046020908152604080832080546001600160a01b03199081169091556001600160a01b0387811680865260038552838620805460001901905590871680865283862080546001019055868652600290945282852080549092168417909155905184937fddf252ad1be2c89b69c2b068fc378daa952ba7f163c4a11628f55a4df523b3ef91a4505050565b816001600160a01b0316836001600160a01b031603610bd75760405162461bcd60e51b815260206004820152601960248201527f4552433732313a20617070726f766520746f2063616c6c6572000000000000006044820152606401610530565b6001600160a01b03838116600081815260056020908152604080832094871680845294825291829020805460ff191686151590811790915591519182527f17307eab39ab6107e8899845ad3d59bd9653f200f220920489ca2b5937696c31910160405180910390a3505050565b610c4f848484610a05565b610c5b84848484610d73565b6107725760405162461bcd60e51b8152600401610530906113b0565b6060610c82826108d7565b6000610c9960408051602081019091526000815290565b90506000815111610cb95760405180602001604052806000815250610ce4565b80610cc384610e74565b604051602001610cd492919061133c565b6040516020818303038152906040525b9392505050565b6001811115610772576001600160a01b03841615610d31576001600160a01b03841660009081526003602052604081208054839290610d2b908490611402565b90915550505b6001600160a01b03831615610772576001600160a01b03831660009081526003602052604081208054839290610d689084906112dc565b909155505050505050565b60006001600160a01b0384163b15610e6957604051630a85bd0160e11b81526001600160a01b0385169063150b7a0290610db7903390899088908890600401611415565b6020604051808303816000875af1925050508015610df2575060408051601f3d908101601f19168201909252610def91810190611452565b60015b610e4f573d808015610e20576040519150601f19603f3d011682016040523d82523d6000602084013e610e25565b606091505b508051600003610e475760405162461bcd60e51b8152600401610530906113b0565b805181602001fd5b6001600160e01b031916630a85bd0160e11b149050610880565b506001949350505050565b60606000610e8183610f07565b600101905060008167ffffffffffffffff811115610ea157610ea1611167565b6040519080825280601f01601f191660200182016040528015610ecb576020820181803683370190505b5090508181016020015b600019016f181899199a1a9b1b9c1cb0b131b232b360811b600a86061a8153600a8504945084610ed557509392505050565b60008072184f03e93ff9f4daa797ed6e38ed64bf6a1f0160401b8310610f465772184f03e93ff9f4daa797ed6e38ed64bf6a1f0160401b830492506040015b6d04ee2d6d415b85acef81000000008310610f72576d04ee2d6d415b85acef8100000000830492506020015b662386f26fc100008310610f9057662386f26fc10000830492506010015b6305f5e1008310610fa8576305f5e100830492506008015b6127108310610fbc57612710830492506004015b60648310610fce576064830492506002015b600a83106103fd5760010192915050565b6001600160e01b03198116811461093657600080fd5b60006020828403121561100757600080fd5b8135610ce481610fdf565b60005b8381101561102d578181015183820152602001611015565b50506000910152565b6000815180845261104e816020860160208601611012565b601f01601f19169290920160200192915050565b602081526000610ce46020830184611036565b60006020828403121561108757600080fd5b5035919050565b80356001600160a01b03811681146110a557600080fd5b919050565b600080604083850312156110bd57600080fd5b6110c68361108e565b946020939093013593505050565b6000806000606084860312156110e957600080fd5b6110f28461108e565b92506111006020850161108e565b9150604084013590509250925092565b60006020828403121561112257600080fd5b610ce48261108e565b6000806040838503121561113e57600080fd5b6111478361108e565b91506020830135801515811461115c57600080fd5b809150509250929050565b634e487b7160e01b600052604160045260246000fd5b6000806000806080858703121561119357600080fd5b61119c8561108e565b93506111aa6020860161108e565b925060408501359150606085013567ffffffffffffffff808211156111ce57600080fd5b818701915087601f8301126111e257600080fd5b8135818111156111f4576111f4611167565b604051601f8201601f19908116603f0116810190838211818310171561121c5761121c611167565b816040528281528a602084870101111561123557600080fd5b82602086016020830137600060208483010152809550505050505092959194509250565b6000806040838503121561126c57600080fd5b6112758361108e565b91506112836020840161108e565b90509250929050565b600181811c908216806112a057607f821691505b6020821081036112c057634e487b7160e01b600052602260045260246000fd5b50919050565b634e487b7160e01b600052601160045260246000fd5b808201808211156103fd576103fd6112c6565b6020808252602d908201527f4552433732313a2063616c6c6572206973206e6f7420746f6b656e206f776e6560408201526c1c881bdc88185c1c1c9bdd9959609a1b606082015260800190565b6000835161134e818460208801611012565b835190830190611362818360208801611012565b01949350505050565b60208082526025908201527f4552433732313a207472616e736665722066726f6d20696e636f72726563742060408201526437bbb732b960d91b606082015260800190565b60208082526032908201527f4552433732313a207472616e7366657220746f206e6f6e20455243373231526560408201527131b2b4bb32b91034b6b83632b6b2b73a32b960711b606082015260800190565b818103818111156103fd576103fd6112c6565b6001600160a01b038581168252841660208201526040810183905260806060820181905260009061144890830184611036565b9695505050505050565b60006020828403121561146457600080fd5b8151610ce481610fdf56fea2646970667358221220fc15c008468c3b91430b5b8dd07e8d5e2a15f4b023e7fda8844cd5af372e851364736f6c63430008110033",
  "immutableReferences": {},
  "source": "// SPDX-License-Identifier: MIT\npragma solidity ^0.8.7;\n\nimport \"../node_modules/@openzeppelin/contracts/token/ERC721/extensions/ERC721URIStorage.sol\";\nimport \"../node_modules/@openzeppelin/contracts/utils/Counters.sol\";\nimport \"../node_modules/@openzeppelin/contracts/token/ERC721/ERC721.sol\";\nimport \"../node_modules/@openzeppelin/contracts/access/Ownable.sol\";\n\ncontract Donation is ERC721URIStorage {\n    address payable public recipient; // The address of the donator\n    uint256 public totalDonated; // How much has been donated\n    bool public didDonate;\n\n    uint256[] public listOfDonations;\n    mapping(address => bool) public recipientDonation;\n\n   constructor(address payable _recipient, uint256 _totalDonated) ERC721(\"Donations\", \"DNTS\") {\n        recipient = _recipient;\n        totalDonated = _totalDonated;\n   }\n\n   // Users can donate funds to the contract\n  function leaveDonation(uint256 amountToDonate) public payable {\n      totalDonated += amountToDonate;\n  }\n\n  function checkDonation() public payable returns (bool) {\n      \n  }\n\n}",
  "sourcePath": "/Users/sabin2000/Documents/ethertix/frontend/contracts/Donation.sol",
  "compiler": {
    "name": "solc",
    "version": "0.8.17+commit.8df45f5f.Emscripten.clang"
  },
  "schemaVersion": "3.4.9",
  "updatedAt": "2023-01-08T09:39:23.423Z",
  "devdoc": {
    "kind": "dev",
    "methods": {
      "approve(address,uint256)": {
        "details": "See {IERC721-approve}."
      },
      "balanceOf(address)": {
        "details": "See {IERC721-balanceOf}."
      },
      "getApproved(uint256)": {
        "details": "See {IERC721-getApproved}."
      },
      "isApprovedForAll(address,address)": {
        "details": "See {IERC721-isApprovedForAll}."
      },
      "name()": {
        "details": "See {IERC721Metadata-name}."
      },
      "ownerOf(uint256)": {
        "details": "See {IERC721-ownerOf}."
      },
      "safeTransferFrom(address,address,uint256)": {
        "details": "See {IERC721-safeTransferFrom}."
      },
      "safeTransferFrom(address,address,uint256,bytes)": {
        "details": "See {IERC721-safeTransferFrom}."
      },
      "setApprovalForAll(address,bool)": {
        "details": "See {IERC721-setApprovalForAll}."
      },
      "supportsInterface(bytes4)": {
        "details": "See {IERC165-supportsInterface}."
      },
      "symbol()": {
        "details": "See {IERC721Metadata-symbol}."
      },
      "tokenURI(uint256)": {
        "details": "See {IERC721Metadata-tokenURI}."
      },
      "transferFrom(address,address,uint256)": {
        "details": "See {IERC721-transferFrom}."
      }
    },
    "version": 1
  },
  "userdoc": {
    "kind": "user",
    "methods": {},
    "version": 1
  }
}