{
  "contractName": "TicketNFT",
  "abi": [
    {
      "inputs": [
        {
          "internalType": "string",
          "name": "_test",
          "type": "string"
        }
      ],
      "stateMutability": "nonpayable",
      "type": "constructor"
    },
    {
      "anonymous": false,
      "inputs": [
        {
          "indexed": true,
          "internalType": "address",
          "name": "owner",
          "type": "address"
        },
        {
          "indexed": true,
          "internalType": "address",
          "name": "approved",
          "type": "address"
        },
        {
          "indexed": true,
          "internalType": "uint256",
          "name": "tokenId",
          "type": "uint256"
        }
      ],
      "name": "Approval",
      "type": "event"
    },
    {
      "anonymous": false,
      "inputs": [
        {
          "indexed": true,
          "internalType": "address",
          "name": "owner",
          "type": "address"
        },
        {
          "indexed": true,
          "internalType": "address",
          "name": "operator",
          "type": "address"
        },
        {
          "indexed": false,
          "internalType": "bool",
          "name": "approved",
          "type": "bool"
        }
      ],
      "name": "ApprovalForAll",
      "type": "event"
    },
    {
      "anonymous": false,
      "inputs": [
        {
          "indexed": true,
          "internalType": "address",
          "name": "previousOwner",
          "type": "address"
        },
        {
          "indexed": true,
          "internalType": "address",
          "name": "newOwner",
          "type": "address"
        }
      ],
      "name": "OwnershipTransferred",
      "type": "event"
    },
    {
      "anonymous": false,
      "inputs": [
        {
          "indexed": true,
          "internalType": "address",
          "name": "from",
          "type": "address"
        },
        {
          "indexed": true,
          "internalType": "address",
          "name": "to",
          "type": "address"
        },
        {
          "indexed": true,
          "internalType": "uint256",
          "name": "tokenId",
          "type": "uint256"
        }
      ],
      "name": "Transfer",
      "type": "event"
    },
    {
      "inputs": [
        {
          "internalType": "address",
          "name": "to",
          "type": "address"
        },
        {
          "internalType": "uint256",
          "name": "tokenId",
          "type": "uint256"
        }
      ],
      "name": "approve",
      "outputs": [],
      "stateMutability": "nonpayable",
      "type": "function"
    },
    {
      "inputs": [
        {
          "internalType": "address",
          "name": "owner",
          "type": "address"
        }
      ],
      "name": "balanceOf",
      "outputs": [
        {
          "internalType": "uint256",
          "name": "",
          "type": "uint256"
        }
      ],
      "stateMutability": "view",
      "type": "function"
    },
    {
      "inputs": [
        {
          "internalType": "uint256",
          "name": "tokenId",
          "type": "uint256"
        }
      ],
      "name": "getApproved",
      "outputs": [
        {
          "internalType": "address",
          "name": "",
          "type": "address"
        }
      ],
      "stateMutability": "view",
      "type": "function"
    },
    {
      "inputs": [
        {
          "internalType": "address",
          "name": "owner",
          "type": "address"
        },
        {
          "internalType": "address",
          "name": "operator",
          "type": "address"
        }
      ],
      "name": "isApprovedForAll",
      "outputs": [
        {
          "internalType": "bool",
          "name": "",
          "type": "bool"
        }
      ],
      "stateMutability": "view",
      "type": "function"
    },
    {
      "inputs": [],
      "name": "name",
      "outputs": [
        {
          "internalType": "string",
          "name": "",
          "type": "string"
        }
      ],
      "stateMutability": "view",
      "type": "function"
    },
    {
      "inputs": [],
      "name": "owner",
      "outputs": [
        {
          "internalType": "address",
          "name": "",
          "type": "address"
        }
      ],
      "stateMutability": "view",
      "type": "function"
    },
    {
      "inputs": [
        {
          "internalType": "uint256",
          "name": "tokenId",
          "type": "uint256"
        }
      ],
      "name": "ownerOf",
      "outputs": [
        {
          "internalType": "address",
          "name": "",
          "type": "address"
        }
      ],
      "stateMutability": "view",
      "type": "function"
    },
    {
      "inputs": [],
      "name": "renounceOwnership",
      "outputs": [],
      "stateMutability": "nonpayable",
      "type": "function"
    },
    {
      "inputs": [
        {
          "internalType": "address",
          "name": "from",
          "type": "address"
        },
        {
          "internalType": "address",
          "name": "to",
          "type": "address"
        },
        {
          "internalType": "uint256",
          "name": "tokenId",
          "type": "uint256"
        }
      ],
      "name": "safeTransferFrom",
      "outputs": [],
      "stateMutability": "nonpayable",
      "type": "function"
    },
    {
      "inputs": [
        {
          "internalType": "address",
          "name": "from",
          "type": "address"
        },
        {
          "internalType": "address",
          "name": "to",
          "type": "address"
        },
        {
          "internalType": "uint256",
          "name": "tokenId",
          "type": "uint256"
        },
        {
          "internalType": "bytes",
          "name": "data",
          "type": "bytes"
        }
      ],
      "name": "safeTransferFrom",
      "outputs": [],
      "stateMutability": "nonpayable",
      "type": "function"
    },
    {
      "inputs": [
        {
          "internalType": "address",
          "name": "operator",
          "type": "address"
        },
        {
          "internalType": "bool",
          "name": "approved",
          "type": "bool"
        }
      ],
      "name": "setApprovalForAll",
      "outputs": [],
      "stateMutability": "nonpayable",
      "type": "function"
    },
    {
      "inputs": [
        {
          "internalType": "bytes4",
          "name": "interfaceId",
          "type": "bytes4"
        }
      ],
      "name": "supportsInterface",
      "outputs": [
        {
          "internalType": "bool",
          "name": "",
          "type": "bool"
        }
      ],
      "stateMutability": "view",
      "type": "function"
    },
    {
      "inputs": [],
      "name": "symbol",
      "outputs": [
        {
          "internalType": "string",
          "name": "",
          "type": "string"
        }
      ],
      "stateMutability": "view",
      "type": "function"
    },
    {
      "inputs": [],
      "name": "test",
      "outputs": [
        {
          "internalType": "string",
          "name": "",
          "type": "string"
        }
      ],
      "stateMutability": "view",
      "type": "function"
    },
    {
      "inputs": [
        {
          "internalType": "uint256",
          "name": "tokenId",
          "type": "uint256"
        }
      ],
      "name": "tokenURI",
      "outputs": [
        {
          "internalType": "string",
          "name": "",
          "type": "string"
        }
      ],
      "stateMutability": "view",
      "type": "function"
    },
    {
      "inputs": [
        {
          "internalType": "address",
          "name": "from",
          "type": "address"
        },
        {
          "internalType": "address",
          "name": "to",
          "type": "address"
        },
        {
          "internalType": "uint256",
          "name": "tokenId",
          "type": "uint256"
        }
      ],
      "name": "transferFrom",
      "outputs": [],
      "stateMutability": "nonpayable",
      "type": "function"
    },
    {
      "inputs": [
        {
          "internalType": "address",
          "name": "newOwner",
          "type": "address"
        }
      ],
      "name": "transferOwnership",
      "outputs": [],
      "stateMutability": "nonpayable",
      "type": "function"
    }
  ],
  "bytecode": "0x60806040523480156200001157600080fd5b50604051620018663803806200186683398101604081905262000034916200013a565b60405180604001604052806011815260200170115d995b9d08151a58dad95d1cc8139195607a1b815250604051806040016040528060048152602001631513919560e21b81525081600090816200008c91906200029e565b5060016200009b82826200029e565b505050620000b8620000b2620000ce60201b60201c565b620000d2565b6008620000c682826200029e565b50506200036a565b3390565b600780546001600160a01b038381166001600160a01b0319831681179093556040519116919082907f8be0079c531659141344cd1fd0a4f28419497f9722a3daafe3b4186f6b6457e090600090a35050565b634e487b7160e01b600052604160045260246000fd5b600060208083850312156200014e57600080fd5b82516001600160401b03808211156200016657600080fd5b818501915085601f8301126200017b57600080fd5b81518181111562000190576200019062000124565b604051601f8201601f19908116603f01168101908382118183101715620001bb57620001bb62000124565b816040528281528886848701011115620001d457600080fd5b600093505b82841015620001f85784840186015181850187015292850192620001d9565b600086848301015280965050505050505092915050565b600181811c908216806200022457607f821691505b6020821081036200024557634e487b7160e01b600052602260045260246000fd5b50919050565b601f8211156200029957600081815260208120601f850160051c81016020861015620002745750805b601f850160051c820191505b81811015620002955782815560010162000280565b5050505b505050565b81516001600160401b03811115620002ba57620002ba62000124565b620002d281620002cb84546200020f565b846200024b565b602080601f8311600181146200030a5760008415620002f15750858301515b600019600386901b1c1916600185901b17855562000295565b600085815260208120601f198616915b828110156200033b578886015182559484019460019091019084016200031a565b50858210156200035a5787850151600019600388901b60f8161c191681555b5050505050600190811b01905550565b6114ec806200037a6000396000f3fe608060405234801561001057600080fd5b506004361061010b5760003560e01c8063715018a6116100a2578063b88d4fde11610071578063b88d4fde1461021b578063c87b56dd1461022e578063e985e9c514610241578063f2fde38b14610254578063f8a8fd6d1461026757600080fd5b8063715018a6146101e75780638da5cb5b146101ef57806395d89b4114610200578063a22cb4651461020857600080fd5b806323b872dd116100de57806323b872dd1461018d57806342842e0e146101a05780636352211e146101b357806370a08231146101c657600080fd5b806301ffc9a71461011057806306fdde0314610138578063081812fc1461014d578063095ea7b314610178575b600080fd5b61012361011e36600461103c565b61026f565b60405190151581526020015b60405180910390f35b6101406102c1565b60405161012f91906110a9565b61016061015b3660046110bc565b610353565b6040516001600160a01b03909116815260200161012f565b61018b6101863660046110f1565b61037a565b005b61018b61019b36600461111b565b610494565b61018b6101ae36600461111b565b6104c5565b6101606101c13660046110bc565b6104e0565b6101d96101d4366004611157565b610540565b60405190815260200161012f565b61018b6105c6565b6007546001600160a01b0316610160565b6101406105da565b61018b610216366004611172565b6105e9565b61018b6102293660046111c4565b6105f8565b61014061023c3660046110bc565b610630565b61012361024f3660046112a0565b610740565b61018b610262366004611157565b61076e565b6101406107e7565b60006001600160e01b031982166380ac58cd60e01b14806102a057506001600160e01b03198216635b5e139f60e01b145b806102bb57506301ffc9a760e01b6001600160e01b03198316145b92915050565b6060600080546102d0906112d3565b80601f01602080910402602001604051908101604052809291908181526020018280546102fc906112d3565b80156103495780601f1061031e57610100808354040283529160200191610349565b820191906000526020600020905b81548152906001019060200180831161032c57829003601f168201915b5050505050905090565b600061035e82610875565b506000908152600460205260409020546001600160a01b031690565b6000610385826104e0565b9050806001600160a01b0316836001600160a01b0316036103f75760405162461bcd60e51b815260206004820152602160248201527f4552433732313a20617070726f76616c20746f2063757272656e74206f776e656044820152603960f91b60648201526084015b60405180910390fd5b336001600160a01b038216148061041357506104138133610740565b6104855760405162461bcd60e51b815260206004820152603d60248201527f4552433732313a20617070726f76652063616c6c6572206973206e6f7420746f60448201527f6b656e206f776e6572206f7220617070726f76656420666f7220616c6c00000060648201526084016103ee565b61048f83836108d4565b505050565b61049e3382610942565b6104ba5760405162461bcd60e51b81526004016103ee9061130d565b61048f8383836109a0565b61048f838383604051806020016040528060008152506105f8565b6000818152600260205260408120546001600160a01b0316806102bb5760405162461bcd60e51b8152602060048201526018602482015277115490cdcc8c4e881a5b9d985b1a59081d1bdad95b88125160421b60448201526064016103ee565b60006001600160a01b0382166105aa5760405162461bcd60e51b815260206004820152602960248201527f4552433732313a2061646472657373207a65726f206973206e6f7420612076616044820152683634b21037bbb732b960b91b60648201526084016103ee565b506001600160a01b031660009081526003602052604090205490565b6105ce610b11565b6105d86000610b6b565b565b6060600180546102d0906112d3565b6105f4338383610bbd565b5050565b6106023383610942565b61061e5760405162461bcd60e51b81526004016103ee9061130d565b61062a84848484610c8b565b50505050565b606061063b82610875565b60008281526006602052604081208054610654906112d3565b80601f0160208091040260200160405190810160405280929190818152602001828054610680906112d3565b80156106cd5780601f106106a2576101008083540402835291602001916106cd565b820191906000526020600020905b8154815290600101906020018083116106b057829003601f168201915b5050505050905060006106eb60408051602081019091526000815290565b905080516000036106fd575092915050565b81511561072f57808260405160200161071792919061135a565b60405160208183030381529060405292505050919050565b61073884610cbe565b949350505050565b6001600160a01b03918216600090815260056020908152604080832093909416825291909152205460ff1690565b610776610b11565b6001600160a01b0381166107db5760405162461bcd60e51b815260206004820152602660248201527f4f776e61626c653a206e6577206f776e657220697320746865207a65726f206160448201526564647265737360d01b60648201526084016103ee565b6107e481610b6b565b50565b600880546107f4906112d3565b80601f0160208091040260200160405190810160405280929190818152602001828054610820906112d3565b801561086d5780601f106108425761010080835404028352916020019161086d565b820191906000526020600020905b81548152906001019060200180831161085057829003601f168201915b505050505081565b6000818152600260205260409020546001600160a01b03166107e45760405162461bcd60e51b8152602060048201526018602482015277115490cdcc8c4e881a5b9d985b1a59081d1bdad95b88125160421b60448201526064016103ee565b600081815260046020526040902080546001600160a01b0319166001600160a01b0384169081179091558190610909826104e0565b6001600160a01b03167f8c5be1e5ebec7d5bd14f71427d1e84f3dd0314c0f7b2291e5b200ac8c7c3b92560405160405180910390a45050565b60008061094e836104e0565b9050806001600160a01b0316846001600160a01b0316148061097557506109758185610740565b806107385750836001600160a01b031661098e84610353565b6001600160a01b031614949350505050565b826001600160a01b03166109b3826104e0565b6001600160a01b0316146109d95760405162461bcd60e51b81526004016103ee90611389565b6001600160a01b038216610a3b5760405162461bcd60e51b8152602060048201526024808201527f4552433732313a207472616e7366657220746f20746865207a65726f206164646044820152637265737360e01b60648201526084016103ee565b610a488383836001610d32565b826001600160a01b0316610a5b826104e0565b6001600160a01b031614610a815760405162461bcd60e51b81526004016103ee90611389565b600081815260046020908152604080832080546001600160a01b03199081169091556001600160a01b0387811680865260038552838620805460001901905590871680865283862080546001019055868652600290945282852080549092168417909155905184937fddf252ad1be2c89b69c2b068fc378daa952ba7f163c4a11628f55a4df523b3ef91a4505050565b6007546001600160a01b031633146105d85760405162461bcd60e51b815260206004820181905260248201527f4f776e61626c653a2063616c6c6572206973206e6f7420746865206f776e657260448201526064016103ee565b600780546001600160a01b038381166001600160a01b0319831681179093556040519116919082907f8be0079c531659141344cd1fd0a4f28419497f9722a3daafe3b4186f6b6457e090600090a35050565b816001600160a01b0316836001600160a01b031603610c1e5760405162461bcd60e51b815260206004820152601960248201527f4552433732313a20617070726f766520746f2063616c6c65720000000000000060448201526064016103ee565b6001600160a01b03838116600081815260056020908152604080832094871680845294825291829020805460ff191686151590811790915591519182527f17307eab39ab6107e8899845ad3d59bd9653f200f220920489ca2b5937696c31910160405180910390a3505050565b610c968484846109a0565b610ca284848484610dba565b61062a5760405162461bcd60e51b81526004016103ee906113ce565b6060610cc982610875565b6000610ce060408051602081019091526000815290565b90506000815111610d005760405180602001604052806000815250610d2b565b80610d0a84610ebb565b604051602001610d1b92919061135a565b6040516020818303038152906040525b9392505050565b600181111561062a576001600160a01b03841615610d78576001600160a01b03841660009081526003602052604081208054839290610d72908490611436565b90915550505b6001600160a01b0383161561062a576001600160a01b03831660009081526003602052604081208054839290610daf908490611449565b909155505050505050565b60006001600160a01b0384163b15610eb057604051630a85bd0160e11b81526001600160a01b0385169063150b7a0290610dfe90339089908890889060040161145c565b6020604051808303816000875af1925050508015610e39575060408051601f3d908101601f19168201909252610e3691810190611499565b60015b610e96573d808015610e67576040519150601f19603f3d011682016040523d82523d6000602084013e610e6c565b606091505b508051600003610e8e5760405162461bcd60e51b81526004016103ee906113ce565b805181602001fd5b6001600160e01b031916630a85bd0160e11b149050610738565b506001949350505050565b60606000610ec883610f4e565b600101905060008167ffffffffffffffff811115610ee857610ee86111ae565b6040519080825280601f01601f191660200182016040528015610f12576020820181803683370190505b5090508181016020015b600019016f181899199a1a9b1b9c1cb0b131b232b360811b600a86061a8153600a8504945084610f1c57509392505050565b60008072184f03e93ff9f4daa797ed6e38ed64bf6a1f0160401b8310610f8d5772184f03e93ff9f4daa797ed6e38ed64bf6a1f0160401b830492506040015b6d04ee2d6d415b85acef81000000008310610fb9576d04ee2d6d415b85acef8100000000830492506020015b662386f26fc100008310610fd757662386f26fc10000830492506010015b6305f5e1008310610fef576305f5e100830492506008015b612710831061100357612710830492506004015b60648310611015576064830492506002015b600a83106102bb5760010192915050565b6001600160e01b0319811681146107e457600080fd5b60006020828403121561104e57600080fd5b8135610d2b81611026565b60005b8381101561107457818101518382015260200161105c565b50506000910152565b60008151808452611095816020860160208601611059565b601f01601f19169290920160200192915050565b602081526000610d2b602083018461107d565b6000602082840312156110ce57600080fd5b5035919050565b80356001600160a01b03811681146110ec57600080fd5b919050565b6000806040838503121561110457600080fd5b61110d836110d5565b946020939093013593505050565b60008060006060848603121561113057600080fd5b611139846110d5565b9250611147602085016110d5565b9150604084013590509250925092565b60006020828403121561116957600080fd5b610d2b826110d5565b6000806040838503121561118557600080fd5b61118e836110d5565b9150602083013580151581146111a357600080fd5b809150509250929050565b634e487b7160e01b600052604160045260246000fd5b600080600080608085870312156111da57600080fd5b6111e3856110d5565b93506111f1602086016110d5565b925060408501359150606085013567ffffffffffffffff8082111561121557600080fd5b818701915087601f83011261122957600080fd5b81358181111561123b5761123b6111ae565b604051601f8201601f19908116603f01168101908382118183101715611263576112636111ae565b816040528281528a602084870101111561127c57600080fd5b82602086016020830137600060208483010152809550505050505092959194509250565b600080604083850312156112b357600080fd5b6112bc836110d5565b91506112ca602084016110d5565b90509250929050565b600181811c908216806112e757607f821691505b60208210810361130757634e487b7160e01b600052602260045260246000fd5b50919050565b6020808252602d908201527f4552433732313a2063616c6c6572206973206e6f7420746f6b656e206f776e6560408201526c1c881bdc88185c1c1c9bdd9959609a1b606082015260800190565b6000835161136c818460208801611059565b835190830190611380818360208801611059565b01949350505050565b60208082526025908201527f4552433732313a207472616e736665722066726f6d20696e636f72726563742060408201526437bbb732b960d91b606082015260800190565b60208082526032908201527f4552433732313a207472616e7366657220746f206e6f6e20455243373231526560408201527131b2b4bb32b91034b6b83632b6b2b73a32b960711b606082015260800190565b634e487b7160e01b600052601160045260246000fd5b818103818111156102bb576102bb611420565b808201808211156102bb576102bb611420565b6001600160a01b038581168252841660208201526040810183905260806060820181905260009061148f9083018461107d565b9695505050505050565b6000602082840312156114ab57600080fd5b8151610d2b8161102656fea2646970667358221220a7dd29082657f4376c67271957561982d4a262f7d24f4681e6745aeb7e7cb2c364736f6c63430008110033",
  "immutableReferences": {},
  "source": "// SPDX-License-Identifier: MIT\npragma solidity ^0.8.7;\n\nimport \"../node_modules/@openzeppelin/contracts/token/ERC721/extensions/ERC721URIStorage.sol\";\nimport \"../node_modules/@openzeppelin/contracts/utils/Counters.sol\";\nimport \"../node_modules/@openzeppelin/contracts/token/ERC721/ERC721.sol\";\nimport \"../node_modules/@openzeppelin/contracts/access/Ownable.sol\";\n\ncontract TicketNFT is ERC721URIStorage, Ownable {\n    using Counters for Counters.Counter;\n\n    string public test;\n\n    constructor(string memory _test) ERC721(\"Event Tickets NFT\", \"TNFT\") {\n        test = _test;\n    }\n\n}",
  "sourcePath": "/Users/sabin2000/Documents/ethertix/frontend/contracts/TicketNFT.sol",
  "compiler": {
    "name": "solc",
    "version": "0.8.17+commit.8df45f5f.Emscripten.clang"
  },
  "schemaVersion": "3.4.9",
  "updatedAt": "2023-02-06T12:37:14.832Z",
  "devdoc": {
    "kind": "dev",
    "methods": {
      "approve(address,uint256)": {
        "details": "See {IERC721-approve}."
      },
      "balanceOf(address)": {
        "details": "See {IERC721-balanceOf}."
      },
      "getApproved(uint256)": {
        "details": "See {IERC721-getApproved}."
      },
      "isApprovedForAll(address,address)": {
        "details": "See {IERC721-isApprovedForAll}."
      },
      "name()": {
        "details": "See {IERC721Metadata-name}."
      },
      "owner()": {
        "details": "Returns the address of the current owner."
      },
      "ownerOf(uint256)": {
        "details": "See {IERC721-ownerOf}."
      },
      "renounceOwnership()": {
        "details": "Leaves the contract without owner. It will not be possible to call `onlyOwner` functions anymore. Can only be called by the current owner. NOTE: Renouncing ownership will leave the contract without an owner, thereby removing any functionality that is only available to the owner."
      },
      "safeTransferFrom(address,address,uint256)": {
        "details": "See {IERC721-safeTransferFrom}."
      },
      "safeTransferFrom(address,address,uint256,bytes)": {
        "details": "See {IERC721-safeTransferFrom}."
      },
      "setApprovalForAll(address,bool)": {
        "details": "See {IERC721-setApprovalForAll}."
      },
      "supportsInterface(bytes4)": {
        "details": "See {IERC165-supportsInterface}."
      },
      "symbol()": {
        "details": "See {IERC721Metadata-symbol}."
      },
      "tokenURI(uint256)": {
        "details": "See {IERC721Metadata-tokenURI}."
      },
      "transferFrom(address,address,uint256)": {
        "details": "See {IERC721-transferFrom}."
      },
      "transferOwnership(address)": {
        "details": "Transfers ownership of the contract to a new account (`newOwner`). Can only be called by the current owner."
      }
    },
    "version": 1
  },
  "userdoc": {
    "kind": "user",
    "methods": {},
    "version": 1
  }
}