{
  "contractName": "TicketNFT",
  "abi": [
    {
      "inputs": [],
      "stateMutability": "nonpayable",
      "type": "constructor"
    },
    {
      "anonymous": false,
      "inputs": [
        {
          "indexed": true,
          "internalType": "address",
          "name": "owner",
          "type": "address"
        },
        {
          "indexed": true,
          "internalType": "address",
          "name": "approved",
          "type": "address"
        },
        {
          "indexed": true,
          "internalType": "uint256",
          "name": "tokenId",
          "type": "uint256"
        }
      ],
      "name": "Approval",
      "type": "event"
    },
    {
      "anonymous": false,
      "inputs": [
        {
          "indexed": true,
          "internalType": "address",
          "name": "owner",
          "type": "address"
        },
        {
          "indexed": true,
          "internalType": "address",
          "name": "operator",
          "type": "address"
        },
        {
          "indexed": false,
          "internalType": "bool",
          "name": "approved",
          "type": "bool"
        }
      ],
      "name": "ApprovalForAll",
      "type": "event"
    },
    {
      "anonymous": false,
      "inputs": [
        {
          "indexed": false,
          "internalType": "uint256",
          "name": "tokenId",
          "type": "uint256"
        },
        {
          "indexed": false,
          "internalType": "bool",
          "name": "isListed",
          "type": "bool"
        }
      ],
      "name": "NewTokenMinted",
      "type": "event"
    },
    {
      "anonymous": false,
      "inputs": [
        {
          "indexed": false,
          "internalType": "uint256",
          "name": "tokenId",
          "type": "uint256"
        },
        {
          "indexed": false,
          "internalType": "uint256",
          "name": "listingPrice",
          "type": "uint256"
        }
      ],
      "name": "NftListedForSale",
      "type": "event"
    },
    {
      "anonymous": false,
      "inputs": [
        {
          "indexed": false,
          "internalType": "uint256",
          "name": "tokenId",
          "type": "uint256"
        },
        {
          "indexed": false,
          "internalType": "address",
          "name": "oldTokenOwnerAddress",
          "type": "address"
        },
        {
          "indexed": false,
          "internalType": "address",
          "name": "newTokenOwnerAddress",
          "type": "address"
        }
      ],
      "name": "NftOwnershipTransferEvent",
      "type": "event"
    },
    {
      "anonymous": false,
      "inputs": [
        {
          "indexed": false,
          "internalType": "uint256",
          "name": "tokenId",
          "type": "uint256"
        },
        {
          "indexed": false,
          "internalType": "address",
          "name": "newTokenOwner",
          "type": "address"
        },
        {
          "indexed": false,
          "internalType": "string",
          "name": "tokenName",
          "type": "string"
        },
        {
          "indexed": false,
          "internalType": "uint256",
          "name": "tokenPrice",
          "type": "uint256"
        }
      ],
      "name": "NftPurchased",
      "type": "event"
    },
    {
      "anonymous": false,
      "inputs": [
        {
          "indexed": true,
          "internalType": "address",
          "name": "previousOwner",
          "type": "address"
        },
        {
          "indexed": true,
          "internalType": "address",
          "name": "newOwner",
          "type": "address"
        }
      ],
      "name": "OwnershipTransferred",
      "type": "event"
    },
    {
      "anonymous": false,
      "inputs": [
        {
          "indexed": true,
          "internalType": "address",
          "name": "from",
          "type": "address"
        },
        {
          "indexed": true,
          "internalType": "address",
          "name": "to",
          "type": "address"
        },
        {
          "indexed": true,
          "internalType": "uint256",
          "name": "tokenId",
          "type": "uint256"
        }
      ],
      "name": "Transfer",
      "type": "event"
    },
    {
      "inputs": [
        {
          "internalType": "address",
          "name": "to",
          "type": "address"
        },
        {
          "internalType": "uint256",
          "name": "tokenId",
          "type": "uint256"
        }
      ],
      "name": "approve",
      "outputs": [],
      "stateMutability": "nonpayable",
      "type": "function"
    },
    {
      "inputs": [
        {
          "internalType": "address",
          "name": "owner",
          "type": "address"
        }
      ],
      "name": "balanceOf",
      "outputs": [
        {
          "internalType": "uint256",
          "name": "",
          "type": "uint256"
        }
      ],
      "stateMutability": "view",
      "type": "function"
    },
    {
      "inputs": [
        {
          "internalType": "uint256",
          "name": "",
          "type": "uint256"
        }
      ],
      "name": "circulatingTokens",
      "outputs": [
        {
          "internalType": "uint256",
          "name": "tokenId",
          "type": "uint256"
        },
        {
          "internalType": "address",
          "name": "tokenOwner",
          "type": "address"
        },
        {
          "internalType": "string",
          "name": "tokenName",
          "type": "string"
        },
        {
          "internalType": "uint256",
          "name": "tokenPrice",
          "type": "uint256"
        },
        {
          "internalType": "bool",
          "name": "isListedForSale",
          "type": "bool"
        }
      ],
      "stateMutability": "view",
      "type": "function"
    },
    {
      "inputs": [
        {
          "internalType": "uint256",
          "name": "tokenId",
          "type": "uint256"
        }
      ],
      "name": "getApproved",
      "outputs": [
        {
          "internalType": "address",
          "name": "",
          "type": "address"
        }
      ],
      "stateMutability": "view",
      "type": "function"
    },
    {
      "inputs": [],
      "name": "initialListingPrice",
      "outputs": [
        {
          "internalType": "uint256",
          "name": "",
          "type": "uint256"
        }
      ],
      "stateMutability": "view",
      "type": "function"
    },
    {
      "inputs": [
        {
          "internalType": "address",
          "name": "owner",
          "type": "address"
        },
        {
          "internalType": "address",
          "name": "operator",
          "type": "address"
        }
      ],
      "name": "isApprovedForAll",
      "outputs": [
        {
          "internalType": "bool",
          "name": "",
          "type": "bool"
        }
      ],
      "stateMutability": "view",
      "type": "function"
    },
    {
      "inputs": [
        {
          "internalType": "uint256",
          "name": "",
          "type": "uint256"
        }
      ],
      "name": "isTokenForSale",
      "outputs": [
        {
          "internalType": "bool",
          "name": "",
          "type": "bool"
        }
      ],
      "stateMutability": "view",
      "type": "function"
    },
    {
      "inputs": [],
      "name": "name",
      "outputs": [
        {
          "internalType": "string",
          "name": "",
          "type": "string"
        }
      ],
      "stateMutability": "view",
      "type": "function"
    },
    {
      "inputs": [],
      "name": "owner",
      "outputs": [
        {
          "internalType": "address",
          "name": "",
          "type": "address"
        }
      ],
      "stateMutability": "view",
      "type": "function"
    },
    {
      "inputs": [
        {
          "internalType": "uint256",
          "name": "tokenId",
          "type": "uint256"
        }
      ],
      "name": "ownerOf",
      "outputs": [
        {
          "internalType": "address",
          "name": "",
          "type": "address"
        }
      ],
      "stateMutability": "view",
      "type": "function"
    },
    {
      "inputs": [],
      "name": "renounceOwnership",
      "outputs": [],
      "stateMutability": "nonpayable",
      "type": "function"
    },
    {
      "inputs": [
        {
          "internalType": "address",
          "name": "from",
          "type": "address"
        },
        {
          "internalType": "address",
          "name": "to",
          "type": "address"
        },
        {
          "internalType": "uint256",
          "name": "tokenId",
          "type": "uint256"
        }
      ],
      "name": "safeTransferFrom",
      "outputs": [],
      "stateMutability": "nonpayable",
      "type": "function"
    },
    {
      "inputs": [
        {
          "internalType": "address",
          "name": "from",
          "type": "address"
        },
        {
          "internalType": "address",
          "name": "to",
          "type": "address"
        },
        {
          "internalType": "uint256",
          "name": "tokenId",
          "type": "uint256"
        },
        {
          "internalType": "bytes",
          "name": "data",
          "type": "bytes"
        }
      ],
      "name": "safeTransferFrom",
      "outputs": [],
      "stateMutability": "nonpayable",
      "type": "function"
    },
    {
      "inputs": [
        {
          "internalType": "address",
          "name": "operator",
          "type": "address"
        },
        {
          "internalType": "bool",
          "name": "approved",
          "type": "bool"
        }
      ],
      "name": "setApprovalForAll",
      "outputs": [],
      "stateMutability": "nonpayable",
      "type": "function"
    },
    {
      "inputs": [
        {
          "internalType": "bytes4",
          "name": "interfaceId",
          "type": "bytes4"
        }
      ],
      "name": "supportsInterface",
      "outputs": [
        {
          "internalType": "bool",
          "name": "",
          "type": "bool"
        }
      ],
      "stateMutability": "view",
      "type": "function"
    },
    {
      "inputs": [],
      "name": "symbol",
      "outputs": [
        {
          "internalType": "string",
          "name": "",
          "type": "string"
        }
      ],
      "stateMutability": "view",
      "type": "function"
    },
    {
      "inputs": [
        {
          "internalType": "uint256",
          "name": "tokenId",
          "type": "uint256"
        }
      ],
      "name": "tokenURI",
      "outputs": [
        {
          "internalType": "string",
          "name": "",
          "type": "string"
        }
      ],
      "stateMutability": "view",
      "type": "function"
    },
    {
      "inputs": [
        {
          "internalType": "uint256",
          "name": "",
          "type": "uint256"
        }
      ],
      "name": "tokensPrice",
      "outputs": [
        {
          "internalType": "uint256",
          "name": "",
          "type": "uint256"
        }
      ],
      "stateMutability": "view",
      "type": "function"
    },
    {
      "inputs": [],
      "name": "totalTokenSupply",
      "outputs": [
        {
          "internalType": "uint256",
          "name": "",
          "type": "uint256"
        }
      ],
      "stateMutability": "view",
      "type": "function"
    },
    {
      "inputs": [
        {
          "internalType": "address",
          "name": "from",
          "type": "address"
        },
        {
          "internalType": "address",
          "name": "to",
          "type": "address"
        },
        {
          "internalType": "uint256",
          "name": "tokenId",
          "type": "uint256"
        }
      ],
      "name": "transferFrom",
      "outputs": [],
      "stateMutability": "nonpayable",
      "type": "function"
    },
    {
      "inputs": [
        {
          "internalType": "address",
          "name": "newOwner",
          "type": "address"
        }
      ],
      "name": "transferOwnership",
      "outputs": [],
      "stateMutability": "nonpayable",
      "type": "function"
    },
    {
      "inputs": [
        {
          "internalType": "string",
          "name": "_tokenName",
          "type": "string"
        },
        {
          "internalType": "uint256",
          "name": "_tokenPrice",
          "type": "uint256"
        }
      ],
      "name": "mintToken",
      "outputs": [
        {
          "internalType": "uint256",
          "name": "",
          "type": "uint256"
        }
      ],
      "stateMutability": "payable",
      "type": "function"
    },
    {
      "inputs": [
        {
          "internalType": "uint256",
          "name": "_tokenId",
          "type": "uint256"
        },
        {
          "internalType": "address",
          "name": "_newTokenOwnerAddress",
          "type": "address"
        }
      ],
      "name": "transferTokenOwnership",
      "outputs": [],
      "stateMutability": "payable",
      "type": "function"
    },
    {
      "inputs": [
        {
          "internalType": "uint256",
          "name": "_tokenId",
          "type": "uint256"
        }
      ],
      "name": "getOwnerOfToken",
      "outputs": [
        {
          "internalType": "address",
          "name": "",
          "type": "address"
        }
      ],
      "stateMutability": "view",
      "type": "function"
    },
    {
      "inputs": [
        {
          "internalType": "uint256",
          "name": "_tokenId",
          "type": "uint256"
        }
      ],
      "name": "tokenIsOnSale",
      "outputs": [
        {
          "internalType": "bool",
          "name": "",
          "type": "bool"
        }
      ],
      "stateMutability": "view",
      "type": "function"
    },
    {
      "inputs": [
        {
          "internalType": "uint256",
          "name": "_tokenIndex",
          "type": "uint256"
        }
      ],
      "name": "fetchTokenByIndex",
      "outputs": [
        {
          "components": [
            {
              "internalType": "uint256",
              "name": "tokenId",
              "type": "uint256"
            },
            {
              "internalType": "address",
              "name": "tokenOwner",
              "type": "address"
            },
            {
              "internalType": "string",
              "name": "tokenName",
              "type": "string"
            },
            {
              "internalType": "uint256",
              "name": "tokenPrice",
              "type": "uint256"
            },
            {
              "internalType": "bool",
              "name": "isListedForSale",
              "type": "bool"
            }
          ],
          "internalType": "struct TicketNFT.NftToken",
          "name": "",
          "type": "tuple"
        }
      ],
      "stateMutability": "view",
      "type": "function"
    },
    {
      "inputs": [
        {
          "internalType": "uint256",
          "name": "_tokenId",
          "type": "uint256"
        },
        {
          "internalType": "uint256",
          "name": "_listingPrice",
          "type": "uint256"
        }
      ],
      "name": "listNftForSale",
      "outputs": [],
      "stateMutability": "nonpayable",
      "type": "function"
    },
    {
      "inputs": [
        {
          "internalType": "uint256",
          "name": "tokenId",
          "type": "uint256"
        }
      ],
      "name": "buyNftToken",
      "outputs": [
        {
          "internalType": "address",
          "name": "",
          "type": "address"
        }
      ],
      "stateMutability": "payable",
      "type": "function"
    },
    {
      "inputs": [
        {
          "internalType": "uint256",
          "name": "tokenId",
          "type": "uint256"
        }
      ],
      "name": "burnNftToken",
      "outputs": [],
      "stateMutability": "payable",
      "type": "function"
    },
    {
      "inputs": [
        {
          "internalType": "address",
          "name": "currentNftOwner",
          "type": "address"
        }
      ],
      "name": "fetchAccountBalance",
      "outputs": [
        {
          "internalType": "uint256",
          "name": "",
          "type": "uint256"
        }
      ],
      "stateMutability": "view",
      "type": "function"
    }
  ],
  "bytecode": "0x6080604052662386f26fc100006009553480156200001c57600080fd5b5060405180604001604052806011815260200170115d995b9d1cc813919508151a58dad95d607a1b815250604051806040016040528060048152602001631153919560e21b8152508160009081620000759190620001a2565b506001620000848282620001a2565b505050620000a16200009b620000a760201b60201c565b620000ab565b6200026e565b3390565b600780546001600160a01b038381166001600160a01b0319831681179093556040519116919082907f8be0079c531659141344cd1fd0a4f28419497f9722a3daafe3b4186f6b6457e090600090a35050565b634e487b7160e01b600052604160045260246000fd5b600181811c908216806200012857607f821691505b6020821081036200014957634e487b7160e01b600052602260045260246000fd5b50919050565b601f8211156200019d57600081815260208120601f850160051c81016020861015620001785750805b601f850160051c820191505b81811015620001995782815560010162000184565b5050505b505050565b81516001600160401b03811115620001be57620001be620000fd565b620001d681620001cf845462000113565b846200014f565b602080601f8311600181146200020e5760008415620001f55750858301515b600019600386901b1c1916600185901b17855562000199565b600085815260208120601f198616915b828110156200023f578886015182559484019460019091019084016200021e565b50858210156200025e5787850151600019600388901b60f8161c191681555b5050505050600190811b01905550565b6126a4806200027e6000396000f3fe6080604052600436106101cd5760003560e01c80637f1dd80b116100f7578063ba093ba611610095578063e4ac1bbe11610064578063e4ac1bbe1461056b578063e985e9c514610581578063e9cf64e6146105ca578063f2fde38b146105dd57600080fd5b8063ba093ba6146104f8578063c046372c14610525578063c87b56dd14610538578063da8cc6e81461055857600080fd5b806395d89b41116100d157806395d89b41146104725780639a65b72214610487578063a22cb465146104b8578063b88d4fde146104d857600080fd5b80637f1dd80b146103f1578063854905b6146104275780638da5cb5b1461045457600080fd5b80631ca8b6cb1161016f5780634fed1c941161013e5780634fed1c941461036c5780636352211e1461039c57806370a08231146103bc578063715018a6146103dc57600080fd5b80631ca8b6cb1461030357806323b872dd146103195780633bda356c1461033957806342842e0e1461034c57600080fd5b8063081812fc116101ab578063081812fc1461024b57806308d5ab4214610283578063095ea7b3146102b5578063188e9c06146102d557600080fd5b806301ffc9a7146101d257806304f233091461020757806306fdde0314610229575b600080fd5b3480156101de57600080fd5b506101f26101ed366004611f2a565b6105fd565b60405190151581526020015b60405180910390f35b34801561021357600080fd5b50610227610222366004611f47565b61064f565b005b34801561023557600080fd5b5061023e6108b5565b6040516101fe9190611fb9565b34801561025757600080fd5b5061026b610266366004611fcc565b610947565b6040516001600160a01b0390911681526020016101fe565b34801561028f57600080fd5b506101f261029e366004611fcc565b6000908152600a6020526040902060030154151590565b3480156102c157600080fd5b506102276102d0366004612001565b61096e565b3480156102e157600080fd5b506102f56102f036600461202b565b610a83565b6040519081526020016101fe565b34801561030f57600080fd5b506102f560085481565b34801561032557600080fd5b50610227610334366004612046565b610a8e565b610227610347366004611fcc565b610abf565b34801561035857600080fd5b50610227610367366004612046565b610bb7565b34801561037857600080fd5b506101f2610387366004611fcc565b600c6020526000908152604090205460ff1681565b3480156103a857600080fd5b5061026b6103b7366004611fcc565b610bd2565b3480156103c857600080fd5b506102f56103d736600461202b565b610c32565b3480156103e857600080fd5b50610227610cb8565b3480156103fd57600080fd5b5061026b61040c366004611fcc565b6000908152600b60205260409020546001600160a01b031690565b34801561043357600080fd5b506102f5610442366004611fcc565b600d6020526000908152604090205481565b34801561046057600080fd5b506007546001600160a01b031661026b565b34801561047e57600080fd5b5061023e610ccc565b34801561049357600080fd5b506104a76104a2366004611fcc565b610cdb565b6040516101fe959493929190612082565b3480156104c457600080fd5b506102276104d33660046120c5565b610da0565b3480156104e457600080fd5b506102276104f336600461218d565b610dab565b34801561050457600080fd5b50610518610513366004611fcc565b610de3565b6040516101fe9190612209565b6102f5610533366004612263565b610f0c565b34801561054457600080fd5b5061023e610553366004611fcc565b611044565b61026b610566366004611fcc565b611154565b34801561057757600080fd5b506102f560095481565b34801561058d57600080fd5b506101f261059c3660046122bc565b6001600160a01b03918216600090815260056020908152604080832093909416825291909152205460ff1690565b6102276105d83660046122ef565b611467565b3480156105e957600080fd5b506102276105f836600461202b565b611599565b60006001600160e01b031982166380ac58cd60e01b148061062e57506001600160e01b03198216635b5e139f60e01b145b8061064957506301ffc9a760e01b6001600160e01b03198316145b92915050565b6000828152600b60205260409020546001600160a01b031633146106e05760405162461bcd60e51b815260206004820152603760248201527f596f75206d75737420626520746865206f776e6572206f66207468697320746f60448201527f6b656e20746f206c69737420697420666f722073616c6500000000000000000060648201526084015b60405180910390fd5b6000828152600a6020526040902060030154156107655760405162461bcd60e51b815260206004820152603a60248201527f54686520746f6b656e206d75737420616c7265616479206265206f6e2073616c60448201527f6520746f206c69737420746865206e667420666f722073616c6500000000000060648201526084016106d7565b6008805490600061077583612328565b90915550506000828152600a60209081526040808320815160a0810183528154815260018201546001600160a01b03169381019390935260028101805491928401916107c09061233f565b80601f01602080910402602001604051908101604052809291908181526020018280546107ec9061233f565b80156108395780601f1061080e57610100808354040283529160200191610839565b820191906000526020600020905b81548152906001019060200180831161081c57829003601f168201915b50505091835250506003820154602082015260049091015460ff16151560409182015260608201849052608082018051159052519091507fc5a9946ad95695e956f90d429bf0833a693d0928aac900c651ebe3f4fc3cd89d906108a89085908590918252602082015260400190565b60405180910390a1505050565b6060600080546108c49061233f565b80601f01602080910402602001604051908101604052809291908181526020018280546108f09061233f565b801561093d5780601f106109125761010080835404028352916020019161093d565b820191906000526020600020905b81548152906001019060200180831161092057829003601f168201915b5050505050905090565b600061095282611612565b506000908152600460205260409020546001600160a01b031690565b600061097982610bd2565b9050806001600160a01b0316836001600160a01b0316036109e65760405162461bcd60e51b815260206004820152602160248201527f4552433732313a20617070726f76616c20746f2063757272656e74206f776e656044820152603960f91b60648201526084016106d7565b336001600160a01b0382161480610a025750610a02813361059c565b610a745760405162461bcd60e51b815260206004820152603d60248201527f4552433732313a20617070726f76652063616c6c6572206973206e6f7420746f60448201527f6b656e206f776e6572206f7220617070726f76656420666f7220616c6c00000060648201526084016106d7565b610a7e8383611671565b505050565b600061064982610c32565b610a9833826116df565b610ab45760405162461bcd60e51b81526004016106d790612379565b610a7e83838361175d565b6000818152600a60209081526040808320815160a0810183528154815260018201546001600160a01b0316938101939093526002810180549192840191610b059061233f565b80601f0160208091040260200160405190810160405280929190818152602001828054610b319061233f565b8015610b7e5780601f10610b5357610100808354040283529160200191610b7e565b820191906000526020600020905b815481529060010190602001808311610b6157829003601f168201915b50505091835250506003820154602082015260049091015460ff161515604090910152600060808201529050610bb3826118ce565b5050565b610a7e83838360405180602001604052806000815250610dab565b6000818152600260205260408120546001600160a01b0316806106495760405162461bcd60e51b8152602060048201526018602482015277115490cdcc8c4e881a5b9d985b1a59081d1bdad95b88125160421b60448201526064016106d7565b60006001600160a01b038216610c9c5760405162461bcd60e51b815260206004820152602960248201527f4552433732313a2061646472657373207a65726f206973206e6f7420612076616044820152683634b21037bbb732b960b91b60648201526084016106d7565b506001600160a01b031660009081526003602052604090205490565b610cc061190e565b610cca6000611968565b565b6060600180546108c49061233f565b600a6020526000908152604090208054600182015460028301805492936001600160a01b0390921692610d0d9061233f565b80601f0160208091040260200160405190810160405280929190818152602001828054610d399061233f565b8015610d865780601f10610d5b57610100808354040283529160200191610d86565b820191906000526020600020905b815481529060010190602001808311610d6957829003601f168201915b50505050600383015460049093015491929160ff16905085565b610bb33383836119ba565b610db533836116df565b610dd15760405162461bcd60e51b81526004016106d790612379565b610ddd84848484611a88565b50505050565b610e206040518060a001604052806000815260200160006001600160a01b0316815260200160608152602001600081526020016000151581525090565b6000828152600a6020908152604091829020825160a0810184528154815260018201546001600160a01b0316928101929092526002810180549293919291840191610e6a9061233f565b80601f0160208091040260200160405190810160405280929190818152602001828054610e969061233f565b8015610ee35780601f10610eb857610100808354040283529160200191610ee3565b820191906000526020600020905b815481529060010190602001808311610ec657829003601f168201915b50505091835250506003820154602082015260049091015460ff16151560409091015292915050565b600080600860008154610f1e906123c6565b91829055506040805160a0810182528281523360208083018281528385018a8152606085018a9052600060808601819052878152600a909352949091208351815590516001820180546001600160a01b0319166001600160a01b039092169190911790559251939450929091906002820190610f9a908261242d565b50606082015160038201556080909101516004918201805491151560ff199283161790556000848152600a6020908152604080832094850180549094169093556008548252600b815282822080546001600160a01b0387166001600160a01b0319909116179055825186815290810182905290917f6e0d3d70795daa61644af1425fa1cc87d96ae8753a5ee6173696c956e879fa72910160405180910390a1509195945050505050565b606061104f82611612565b600082815260066020526040812080546110689061233f565b80601f01602080910402602001604051908101604052809291908181526020018280546110949061233f565b80156110e15780601f106110b6576101008083540402835291602001916110e1565b820191906000526020600020905b8154815290600101906020018083116110c457829003601f168201915b5050505050905060006110ff60408051602081019091526000815290565b90508051600003611111575092915050565b81511561114357808260405160200161112b9291906124ed565b60405160208183030381529060405292505050919050565b61114c84611abb565b949350505050565b6000818152600b602052604081205433906001600160a01b03166111ba5760405162461bcd60e51b815260206004820152601d60248201527f546865204e46542068617320616c7265616479206265656e20736f6c6400000060448201526064016106d7565b6000838152600d6020526040902054341461123d5760405162461bcd60e51b815260206004820152603c60248201527f5468652076616c7565206f6620746865206d7367206d7573742062652065717560448201527f616c20746f20746865207072696365206f662074686520746f6b656e0000000060648201526084016106d7565b34816001600160a01b03163110156112bd5760405162461bcd60e51b815260206004820152603b60248201527f54686520746f6b656e20627579657220646f6573206e6f74206861766520656e60448201527f6f7567682066756e647320746f206275792074686520746f6b656e000000000060648201526084016106d7565b6000838152600a60209081526040808320815160a0810183528154815260018201546001600160a01b03169381019390935260028101805491928401916113039061233f565b80601f016020809104026020016040519081016040528092919081815260200182805461132f9061233f565b801561137c5780601f106113515761010080835404028352916020019161137c565b820191906000526020600020905b81548152906001019060200180831161135f57829003601f168201915b5050509183525050600382015460208083019190915260049092015460ff161515604091820152828201516000888152600d9093528183205491519394509283926001600160a01b0384169280156108fc02929091818181858888f193505050501580156113ee573d6000803e3d6000fd5b506001600160a01b0384166020808501919091526000878152600c909152604090819020805460ff1916905580840151606085015191517fe3c099707a92dd41663e7f3deca1d4a744ad4c34d9d152d4690430448bae422a92611455928a9289929061251c565b60405180910390a15091949350505050565b6000828152600a6020526040902060018101543391906001600160a01b031682146115335760405162461bcd60e51b815260206004820152606a60248201527f596f75206173207468652063616c6c657220646f206e6f74206f776e2074686960448201527f7320746f6b656e20726570726573656e74696e6720746865207469636b65742e60648201527f205472616e73666572206f66206f776e6572736869702063616e6e6f74206265608482015269081c195c999bdc9b595960b21b60a482015260c4016106d7565b6001810180546001600160a01b0319166001600160a01b038581169182179092556040805187815292851660208401528201527f871c82ffff979d6aec4e39ef3ff2de7ab2c141f6bd26cdfdb5ac9a3b7c79bbf19060600160405180910390a150505050565b6115a161190e565b6001600160a01b0381166116065760405162461bcd60e51b815260206004820152602660248201527f4f776e61626c653a206e6577206f776e657220697320746865207a65726f206160448201526564647265737360d01b60648201526084016106d7565b61160f81611968565b50565b6000818152600260205260409020546001600160a01b031661160f5760405162461bcd60e51b8152602060048201526018602482015277115490cdcc8c4e881a5b9d985b1a59081d1bdad95b88125160421b60448201526064016106d7565b600081815260046020526040902080546001600160a01b0319166001600160a01b03841690811790915581906116a682610bd2565b6001600160a01b03167f8c5be1e5ebec7d5bd14f71427d1e84f3dd0314c0f7b2291e5b200ac8c7c3b92560405160405180910390a45050565b6000806116eb83610bd2565b9050806001600160a01b0316846001600160a01b0316148061173257506001600160a01b0380821660009081526005602090815260408083209388168352929052205460ff165b8061114c5750836001600160a01b031661174b84610947565b6001600160a01b031614949350505050565b826001600160a01b031661177082610bd2565b6001600160a01b0316146117965760405162461bcd60e51b81526004016106d790612557565b6001600160a01b0382166117f85760405162461bcd60e51b8152602060048201526024808201527f4552433732313a207472616e7366657220746f20746865207a65726f206164646044820152637265737360e01b60648201526084016106d7565b6118058383836001611b2f565b826001600160a01b031661181882610bd2565b6001600160a01b03161461183e5760405162461bcd60e51b81526004016106d790612557565b600081815260046020908152604080832080546001600160a01b03199081169091556001600160a01b0387811680865260038552838620805460001901905590871680865283862080546001019055868652600290945282852080549092168417909155905184937fddf252ad1be2c89b69c2b068fc378daa952ba7f163c4a11628f55a4df523b3ef91a4505050565b6118d781611bb7565b600081815260066020526040902080546118f09061233f565b15905061160f57600081815260066020526040812061160f91611ec6565b6007546001600160a01b03163314610cca5760405162461bcd60e51b815260206004820181905260248201527f4f776e61626c653a2063616c6c6572206973206e6f7420746865206f776e657260448201526064016106d7565b600780546001600160a01b038381166001600160a01b0319831681179093556040519116919082907f8be0079c531659141344cd1fd0a4f28419497f9722a3daafe3b4186f6b6457e090600090a35050565b816001600160a01b0316836001600160a01b031603611a1b5760405162461bcd60e51b815260206004820152601960248201527f4552433732313a20617070726f766520746f2063616c6c65720000000000000060448201526064016106d7565b6001600160a01b03838116600081815260056020908152604080832094871680845294825291829020805460ff191686151590811790915591519182527f17307eab39ab6107e8899845ad3d59bd9653f200f220920489ca2b5937696c31910160405180910390a3505050565b611a9384848461175d565b611a9f84848484611c5a565b610ddd5760405162461bcd60e51b81526004016106d79061259c565b6060611ac682611612565b6000611add60408051602081019091526000815290565b90506000815111611afd5760405180602001604052806000815250611b28565b80611b0784611d5b565b604051602001611b189291906124ed565b6040516020818303038152906040525b9392505050565b6001811115610ddd576001600160a01b03841615611b75576001600160a01b03841660009081526003602052604081208054839290611b6f9084906125ee565b90915550505b6001600160a01b03831615610ddd576001600160a01b03831660009081526003602052604081208054839290611bac908490612601565b909155505050505050565b6000611bc282610bd2565b9050611bd2816000846001611b2f565b611bdb82610bd2565b600083815260046020908152604080832080546001600160a01b03199081169091556001600160a01b0385168085526003845282852080546000190190558785526002909352818420805490911690555192935084927fddf252ad1be2c89b69c2b068fc378daa952ba7f163c4a11628f55a4df523b3ef908390a45050565b60006001600160a01b0384163b15611d5057604051630a85bd0160e11b81526001600160a01b0385169063150b7a0290611c9e903390899088908890600401612614565b6020604051808303816000875af1925050508015611cd9575060408051601f3d908101601f19168201909252611cd691810190612651565b60015b611d36573d808015611d07576040519150601f19603f3d011682016040523d82523d6000602084013e611d0c565b606091505b508051600003611d2e5760405162461bcd60e51b81526004016106d79061259c565b805181602001fd5b6001600160e01b031916630a85bd0160e11b14905061114c565b506001949350505050565b60606000611d6883611dee565b600101905060008167ffffffffffffffff811115611d8857611d88612101565b6040519080825280601f01601f191660200182016040528015611db2576020820181803683370190505b5090508181016020015b600019016f181899199a1a9b1b9c1cb0b131b232b360811b600a86061a8153600a8504945084611dbc57509392505050565b60008072184f03e93ff9f4daa797ed6e38ed64bf6a1f0160401b8310611e2d5772184f03e93ff9f4daa797ed6e38ed64bf6a1f0160401b830492506040015b6d04ee2d6d415b85acef81000000008310611e59576d04ee2d6d415b85acef8100000000830492506020015b662386f26fc100008310611e7757662386f26fc10000830492506010015b6305f5e1008310611e8f576305f5e100830492506008015b6127108310611ea357612710830492506004015b60648310611eb5576064830492506002015b600a83106106495760010192915050565b508054611ed29061233f565b6000825580601f10611ee2575050565b601f01602090049060005260206000209081019061160f91905b80821115611f105760008155600101611efc565b5090565b6001600160e01b03198116811461160f57600080fd5b600060208284031215611f3c57600080fd5b8135611b2881611f14565b60008060408385031215611f5a57600080fd5b50508035926020909101359150565b60005b83811015611f84578181015183820152602001611f6c565b50506000910152565b60008151808452611fa5816020860160208601611f69565b601f01601f19169290920160200192915050565b602081526000611b286020830184611f8d565b600060208284031215611fde57600080fd5b5035919050565b80356001600160a01b0381168114611ffc57600080fd5b919050565b6000806040838503121561201457600080fd5b61201d83611fe5565b946020939093013593505050565b60006020828403121561203d57600080fd5b611b2882611fe5565b60008060006060848603121561205b57600080fd5b61206484611fe5565b925061207260208501611fe5565b9150604084013590509250925092565b8581526001600160a01b038516602082015260a0604082018190526000906120ac90830186611f8d565b6060830194909452509015156080909101529392505050565b600080604083850312156120d857600080fd5b6120e183611fe5565b9150602083013580151581146120f657600080fd5b809150509250929050565b634e487b7160e01b600052604160045260246000fd5b600067ffffffffffffffff8084111561213257612132612101565b604051601f8501601f19908116603f0116810190828211818310171561215a5761215a612101565b8160405280935085815286868601111561217357600080fd5b858560208301376000602087830101525050509392505050565b600080600080608085870312156121a357600080fd5b6121ac85611fe5565b93506121ba60208601611fe5565b925060408501359150606085013567ffffffffffffffff8111156121dd57600080fd5b8501601f810187136121ee57600080fd5b6121fd87823560208401612117565b91505092959194509250565b602081528151602082015260018060a01b0360208301511660408201526000604083015160a0606084015261224160c0840182611f8d565b9050606084015160808401526080840151151560a08401528091505092915050565b6000806040838503121561227657600080fd5b823567ffffffffffffffff81111561228d57600080fd5b8301601f8101851361229e57600080fd5b6122ad85823560208401612117565b95602094909401359450505050565b600080604083850312156122cf57600080fd5b6122d883611fe5565b91506122e660208401611fe5565b90509250929050565b6000806040838503121561230257600080fd5b823591506122e660208401611fe5565b634e487b7160e01b600052601160045260246000fd5b60008161233757612337612312565b506000190190565b600181811c9082168061235357607f821691505b60208210810361237357634e487b7160e01b600052602260045260246000fd5b50919050565b6020808252602d908201527f4552433732313a2063616c6c6572206973206e6f7420746f6b656e206f776e6560408201526c1c881bdc88185c1c1c9bdd9959609a1b606082015260800190565b6000600182016123d8576123d8612312565b5060010190565b601f821115610a7e57600081815260208120601f850160051c810160208610156124065750805b601f850160051c820191505b8181101561242557828155600101612412565b505050505050565b815167ffffffffffffffff81111561244757612447612101565b61245b81612455845461233f565b846123df565b602080601f83116001811461249057600084156124785750858301515b600019600386901b1c1916600185901b178555612425565b600085815260208120601f198616915b828110156124bf578886015182559484019460019091019084016124a0565b50858210156124dd5787850151600019600388901b60f8161c191681555b5050505050600190811b01905550565b600083516124ff818460208801611f69565b835190830190612513818360208801611f69565b01949350505050565b8481526001600160a01b038416602082015260806040820181905260009061254690830185611f8d565b905082606083015295945050505050565b60208082526025908201527f4552433732313a207472616e736665722066726f6d20696e636f72726563742060408201526437bbb732b960d91b606082015260800190565b60208082526032908201527f4552433732313a207472616e7366657220746f206e6f6e20455243373231526560408201527131b2b4bb32b91034b6b83632b6b2b73a32b960711b606082015260800190565b8181038181111561064957610649612312565b8082018082111561064957610649612312565b6001600160a01b038581168252841660208201526040810183905260806060820181905260009061264790830184611f8d565b9695505050505050565b60006020828403121561266357600080fd5b8151611b2881611f1456fea26469706673582212200084437220750660a1a4f9e49cc839179122153862c0a3e20a6e2fa0c15b2b1664736f6c63430008110033",
  "immutableReferences": {},
  "source": "// SPDX-License-Identifier: MIT\npragma solidity ^0.8.7;\n\nimport \"../node_modules/@openzeppelin/contracts/token/ERC721/extensions/ERC721URIStorage.sol\";\nimport \"../node_modules/@openzeppelin/contracts/utils/Counters.sol\";\nimport \"../node_modules/@openzeppelin/contracts/token/ERC721/ERC721.sol\";\nimport \"../node_modules/@openzeppelin/contracts/access/Ownable.sol\";\n\ncontract TicketNFT is ERC721URIStorage, Ownable { // NFT Contract for Event Tickets\n    using Counters for Counters.Counter;\n\n    struct NftToken { // Create the struct for the nft token\n        uint256 tokenId;\n        address tokenOwner;\n        string tokenName;\n        uint256 tokenPrice;\n        bool isListedForSale;\n    }\n\n    uint256 public totalTokenSupply; // Total supply for the tokens\n    uint256 public initialListingPrice = 0.010 ether;\n\n    mapping (uint256 => NftToken) public circulatingTokens; // Create mapping between an Integer and the token struct (1 => Nft data, 2: Nft Data...)\n    mapping (uint256 => address) tokenOwner; // Store the owners of the NFT\n\n    mapping (uint256 => bool) public isTokenForSale;\n    mapping (uint256 => uint) public tokensPrice;\n    mapping(string => bool) tokenNames;\n\n    event NewTokenMinted(uint256 tokenId, bool isListed);\n    event NftPurchased (uint256 tokenId, address newTokenOwner, string tokenName, uint tokenPrice);\n    event NftOwnershipTransferEvent(uint tokenId, address oldTokenOwnerAddress, address newTokenOwnerAddress);\n    event NftListedForSale(uint tokenId, uint listingPrice);\n    \n    constructor() ERC721(\"Events NFT Ticket\", \"ENFT\") {}\n\n    // @description: Mint a new NFT token on the blockchain that uniquely represents an Event Ticket\n    // @parameters: _tokenName: Represents the name of the ticket, _tokenPrice: The price of the event ticket\n    // @returns: Returns the new ticket ID (Used for proof of ownership in transfer of ownership)\n\n    function mintToken(string memory _tokenName, uint256 _tokenPrice) public payable returns (uint) {\n        uint256 newTokenID = ++totalTokenSupply;\n        address owner = msg.sender; // Store the address of the current owner of the token\n\n        circulatingTokens[newTokenID] = NftToken(newTokenID, owner, _tokenName, _tokenPrice, false);\n\n        NftToken storage currMintedToken = circulatingTokens[newTokenID];\n        currMintedToken.isListedForSale = false;\n   \n        bool isTokenListed = currMintedToken.isListedForSale;\n        tokenOwner[totalTokenSupply] = owner; // Set the new token owner to the owner (Updating the owner)\n\n        emit NewTokenMinted(newTokenID, isTokenListed);\n        return newTokenID; // Return the newly created ID\n    }\n\n    // @description: The function is responsible for transferring the ownership of a token from the ticket issuer's address to the buyer address\n    // @parameters: Token ID and the new token owner's metamask wallet address\n    function transferTokenOwnership(uint256 _tokenId, address _newTokenOwnerAddress) public payable {\n        address currentTokenOwner = msg.sender;\n        NftToken storage nftToken = circulatingTokens[_tokenId];\n\n        require(nftToken.tokenOwner == currentTokenOwner, \"You as the caller do not own this token representing the ticket. Transfer of ownership cannot be performed\");\n        nftToken.tokenOwner = _newTokenOwnerAddress;\n\n        emit NftOwnershipTransferEvent(_tokenId, currentTokenOwner, _newTokenOwnerAddress);\n    }\n\n    // @description: Returns the owner of the NFT token given an ID and returns the address of the owner\n    function getOwnerOfToken(uint256 _tokenId) public view returns (address) {\n        return tokenOwner[_tokenId];\n    }\n\n    function tokenIsOnSale(uint256 _tokenId) public view returns (bool) { // Function that determines if the token with its ID is already on sale or not\n        return circulatingTokens[_tokenId].tokenPrice > 0;\n  }\n\n    // @description: Returns the minted NFT by its Token INDEX\n    function fetchTokenByIndex(uint256 _tokenIndex) public view returns (NftToken memory) {\n        return circulatingTokens[_tokenIndex];\n    }\n\n    function listNftForSale(uint256 _tokenId, uint256 _listingPrice) public { // Function which will list the NFT for sale\n        require(getOwnerOfToken(_tokenId) == msg.sender, \"You must be the owner of this token to list it for sale\");\n        require(!(tokenIsOnSale(_tokenId)), \"The token must already be on sale to list the nft for sale\");\n\n        totalTokenSupply--; // Decrease the total supply of tokens when listed for sale\n\n        NftToken memory currentNftToken = circulatingTokens[_tokenId];\n        currentNftToken.tokenPrice = _listingPrice;\n        currentNftToken.isListedForSale = !(currentNftToken.isListedForSale); // Set the property of current nft token struct is listed to the negation of false\n\n        emit NftListedForSale(_tokenId, _listingPrice);\n    }\n\n    function buyNftToken(uint256 tokenId) public payable returns (address) { // Function that allows the ticket buyer to to purchase the NFT Token given the Token ID\n        address tokenBuyer = msg.sender; // Store the token buyer in msg.sender\n        require(tokenOwner[tokenId] != address(0), \"The NFT has already been sold\");\n        require(msg.value == tokensPrice[tokenId], \"The value of the msg must be equal to the price of the token\");\n        require(tokenBuyer.balance >= msg.value, \"The token buyer does not have enough funds to buy the token\");\n\n        NftToken memory currentToken = circulatingTokens[tokenId]; // Extract the current nft token\n        address currentTokenOwner = currentToken.tokenOwner; // Get the current token owner\n        address payable currentTokenOwnerPayable = payable(currentTokenOwner);\n\n        currentTokenOwnerPayable.transfer(tokensPrice[tokenId]);\n        currentToken.tokenOwner = tokenBuyer;\n        isTokenForSale[tokenId] = false;\n\n        emit NftPurchased(tokenId, tokenBuyer, currentToken.tokenName, currentToken.tokenPrice); // Emit the event that an NFT Has been purchased\n        return tokenBuyer; // Return the new address of the token owner (current buyer)\n   }\n\n   function burnNftToken(uint256 tokenId) public payable {\n\n        NftToken memory currentTokenToBurn = circulatingTokens[tokenId];\n        currentTokenToBurn.isListedForSale = false;\n\n        return _burn(tokenId);\n   }\n\n   function fetchAccountBalance(address currentNftOwner) public view returns (uint) {\n      return balanceOf(currentNftOwner);\n   }\n\n}",
  "sourcePath": "/Users/sabin2000/Documents/ethertix/frontend/contracts/TicketNFT.sol",
  "compiler": {
    "name": "solc",
    "version": "0.8.17+commit.8df45f5f.Emscripten.clang"
  },
  "schemaVersion": "3.4.9",
  "updatedAt": "2023-02-27T09:48:27.848Z",
  "devdoc": {
    "kind": "dev",
    "methods": {
      "approve(address,uint256)": {
        "details": "See {IERC721-approve}."
      },
      "balanceOf(address)": {
        "details": "See {IERC721-balanceOf}."
      },
      "getApproved(uint256)": {
        "details": "See {IERC721-getApproved}."
      },
      "isApprovedForAll(address,address)": {
        "details": "See {IERC721-isApprovedForAll}."
      },
      "name()": {
        "details": "See {IERC721Metadata-name}."
      },
      "owner()": {
        "details": "Returns the address of the current owner."
      },
      "ownerOf(uint256)": {
        "details": "See {IERC721-ownerOf}."
      },
      "renounceOwnership()": {
        "details": "Leaves the contract without owner. It will not be possible to call `onlyOwner` functions anymore. Can only be called by the current owner. NOTE: Renouncing ownership will leave the contract without an owner, thereby removing any functionality that is only available to the owner."
      },
      "safeTransferFrom(address,address,uint256)": {
        "details": "See {IERC721-safeTransferFrom}."
      },
      "safeTransferFrom(address,address,uint256,bytes)": {
        "details": "See {IERC721-safeTransferFrom}."
      },
      "setApprovalForAll(address,bool)": {
        "details": "See {IERC721-setApprovalForAll}."
      },
      "supportsInterface(bytes4)": {
        "details": "See {IERC165-supportsInterface}."
      },
      "symbol()": {
        "details": "See {IERC721Metadata-symbol}."
      },
      "tokenURI(uint256)": {
        "details": "See {IERC721Metadata-tokenURI}."
      },
      "transferFrom(address,address,uint256)": {
        "details": "See {IERC721-transferFrom}."
      },
      "transferOwnership(address)": {
        "details": "Transfers ownership of the contract to a new account (`newOwner`). Can only be called by the current owner."
      }
    },
    "version": 1
  },
  "userdoc": {
    "kind": "user",
    "methods": {},
    "version": 1
  }
}