{
  "contractName": "TicketNFT",
  "abi": [
    {
      "inputs": [],
      "stateMutability": "nonpayable",
      "type": "constructor"
    },
    {
      "inputs": [],
      "name": "listingPrice",
      "outputs": [
        {
          "internalType": "uint256",
          "name": "",
          "type": "uint256"
        }
      ],
      "stateMutability": "view",
      "type": "function",
      "constant": true
    },
    {
      "inputs": [
        {
          "internalType": "uint256",
          "name": "",
          "type": "uint256"
        }
      ],
      "name": "tokens",
      "outputs": [
        {
          "internalType": "uint256",
          "name": "id",
          "type": "uint256"
        },
        {
          "internalType": "address",
          "name": "tokenOwner",
          "type": "address"
        },
        {
          "internalType": "string",
          "name": "tokenName",
          "type": "string"
        },
        {
          "internalType": "uint256",
          "name": "tokenPrice",
          "type": "uint256"
        }
      ],
      "stateMutability": "view",
      "type": "function",
      "constant": true
    },
    {
      "inputs": [],
      "name": "totalTokenSupply",
      "outputs": [
        {
          "internalType": "uint256",
          "name": "",
          "type": "uint256"
        }
      ],
      "stateMutability": "view",
      "type": "function",
      "constant": true
    },
    {
      "inputs": [
        {
          "internalType": "string",
          "name": "_tokenName",
          "type": "string"
        },
        {
          "internalType": "uint256",
          "name": "_tokenPrice",
          "type": "uint256"
        }
      ],
      "name": "mintToken",
      "outputs": [],
      "stateMutability": "nonpayable",
      "type": "function"
    },
    {
      "inputs": [
        {
          "internalType": "uint256",
          "name": "tokenId",
          "type": "uint256"
        },
        {
          "internalType": "address",
          "name": "_toAddress",
          "type": "address"
        }
      ],
      "name": "transferTokenOwnership",
      "outputs": [],
      "stateMutability": "payable",
      "type": "function",
      "payable": true
    },
    {
      "inputs": [
        {
          "internalType": "uint256",
          "name": "_tokenId",
          "type": "uint256"
        },
        {
          "internalType": "uint256",
          "name": "_listingPrice",
          "type": "uint256"
        }
      ],
      "name": "listNftForSale",
      "outputs": [],
      "stateMutability": "nonpayable",
      "type": "function"
    },
    {
      "inputs": [],
      "name": "buyNftToken",
      "outputs": [],
      "stateMutability": "payable",
      "type": "function",
      "payable": true
    }
  ],
  "bytecode": "0x6080604052666a94d74f43000060015534801561001b57600080fd5b5061067b8061002b6000396000f3fe6080604052600436106100705760003560e01c80634f64b2be1161004e5780634f64b2be146100bf578063c046372c146100ef578063c78f19f91461010f578063e9cf64e61461012557600080fd5b806304f23309146100755780631ca8b6cb1461009657806327da8d5314610094575b600080fd5b34801561008157600080fd5b50610094610090366004610327565b5050565b005b3480156100a257600080fd5b506100ac60035481565b6040519081526020015b60405180910390f35b3480156100cb57600080fd5b506100df6100da366004610349565b610138565b6040516100b69493929190610362565b3480156100fb57600080fd5b5061009461010a3660046103e4565b6101f3565b34801561011b57600080fd5b506100ac60015481565b610094610133366004610499565b61028b565b60006020819052908152604090208054600182015460028301805492936001600160a01b039092169261016a906104d5565b80601f0160208091040260200160405190810160405280929190818152602001828054610196906104d5565b80156101e35780601f106101b8576101008083540402835291602001916101e3565b820191906000526020600020905b8154815290600101906020018083116101c657829003601f168201915b5050505050908060030154905084565b60038054339160006102048361050f565b9091555050600354604080516080810182528281526001600160a01b038481166020808401918252838501898152606085018990526000878152918290529490208351815590516001820180546001600160a01b0319169190931617909155915190919060028201906102779082610585565b506060820151816003015590505050505050565b600082815260208190526040902060018101546001600160a01b031633146103035760405162461bcd60e51b815260206004820152602160248201527f596f7520646f206e6f74206f776e2074686973207469636b657420746f6b656e6044820152601760f91b606482015260840160405180910390fd5b60010180546001600160a01b0319166001600160a01b039290921691909117905550565b6000806040838503121561033a57600080fd5b50508035926020909101359150565b60006020828403121561035b57600080fd5b5035919050565b8481526000602060018060a01b0386168184015260806040840152845180608085015260005b818110156103a45786810183015185820160a001528201610388565b50600060a0828601015260a0601f19601f8301168501019250505082606083015295945050505050565b634e487b7160e01b600052604160045260246000fd5b600080604083850312156103f757600080fd5b823567ffffffffffffffff8082111561040f57600080fd5b818501915085601f83011261042357600080fd5b813581811115610435576104356103ce565b604051601f8201601f19908116603f0116810190838211818310171561045d5761045d6103ce565b8160405282815288602084870101111561047657600080fd5b826020860160208301376000602093820184015298969091013596505050505050565b600080604083850312156104ac57600080fd5b8235915060208301356001600160a01b03811681146104ca57600080fd5b809150509250929050565b600181811c908216806104e957607f821691505b60208210810361050957634e487b7160e01b600052602260045260246000fd5b50919050565b60006001820161052f57634e487b7160e01b600052601160045260246000fd5b5060010190565b601f82111561058057600081815260208120601f850160051c8101602086101561055d5750805b601f850160051c820191505b8181101561057c57828155600101610569565b5050505b505050565b815167ffffffffffffffff81111561059f5761059f6103ce565b6105b3816105ad84546104d5565b84610536565b602080601f8311600181146105e857600084156105d05750858301515b600019600386901b1c1916600185901b17855561057c565b600085815260208120601f198616915b82811015610617578886015182559484019460019091019084016105f8565b50858210156106355787850151600019600388901b60f8161c191681555b5050505050600190811b0190555056fea264697066735822122058f5fb5eaac2137ca86152921c4bd7642ef98f3f9c2c232031a92b2d751858b964736f6c63430008110033",
  "immutableReferences": {},
  "source": "// SPDX-License-Identifier: MIT\npragma solidity ^0.8.7;\n\nimport \"../node_modules/@openzeppelin/contracts/token/ERC721/extensions/ERC721URIStorage.sol\";\nimport \"../node_modules/@openzeppelin/contracts/utils/Counters.sol\";\nimport \"../node_modules/@openzeppelin/contracts/token/ERC721/ERC721.sol\";\nimport \"../node_modules/@openzeppelin/contracts/access/Ownable.sol\";\n\ncontract TicketNFT { // NFT Contract for Event Tickets\n    using Counters for Counters.Counter;\n\n    struct NftToken {\n        uint256 id;\n        address tokenOwner;\n        string tokenName;\n        uint256 tokenPrice;\n    }\n\n    mapping (uint256 => NftToken) public tokens; // Create mapping between an Integer and the token struct (1 => Nft data, 2: Nft Data...)\n    uint256 public listingPrice = 0.030 ether; // Listing price for the token\n    mapping(uint256 => address) tokenOwners; // Store the owners of the NFT\n    uint256 public totalTokenSupply; // Total supply for the tokens\n    \n    constructor() {}\n\n    function mintToken(string memory _tokenName, uint256 _tokenPrice) public {\n        address owner = msg.sender; // Store the address of the current owner of the token\n        totalTokenSupply++;\n\n        uint256 tokenId = totalTokenSupply; // Set the Token ID to the incremented total supply value\n        tokens[tokenId] = NftToken(tokenId, owner, _tokenName, _tokenPrice);\n    }\n\n    \n    function transferTokenOwnership(uint256 tokenId, address _toAddress) public payable {\n        NftToken storage nftToken = tokens[tokenId];\n       require(nftToken.tokenOwner == msg.sender, \"You do not own this ticket token.\");\n        nftToken.tokenOwner = _toAddress;\n    }\n\n    function listNftForSale(uint256 _tokenId, uint256 _listingPrice) public { // Function which will list the NFT for sale\n\n    }\n\n    function buyNftToken() public payable {\n\n    }\n\n}",
  "sourcePath": "/Users/sabin2000/Documents/ethertix/frontend/contracts/TicketNFT.sol",
  "compiler": {
    "name": "solc",
    "version": "0.8.17+commit.8df45f5f.Emscripten.clang"
  },
  "schemaVersion": "3.4.9",
  "updatedAt": "2023-02-10T20:29:30.499Z",
  "networkType": "ethereum",
  "devdoc": {
    "kind": "dev",
    "methods": {},
    "version": 1
  },
  "userdoc": {
    "kind": "user",
    "methods": {},
    "version": 1
  }
}