{
  "contractName": "TicketNFT",
  "abi": [
    {
      "inputs": [],
      "stateMutability": "nonpayable",
      "type": "constructor"
    },
    {
      "anonymous": false,
      "inputs": [
        {
          "indexed": true,
          "internalType": "address",
          "name": "owner",
          "type": "address"
        },
        {
          "indexed": true,
          "internalType": "address",
          "name": "approved",
          "type": "address"
        },
        {
          "indexed": true,
          "internalType": "uint256",
          "name": "tokenId",
          "type": "uint256"
        }
      ],
      "name": "Approval",
      "type": "event"
    },
    {
      "anonymous": false,
      "inputs": [
        {
          "indexed": true,
          "internalType": "address",
          "name": "owner",
          "type": "address"
        },
        {
          "indexed": true,
          "internalType": "address",
          "name": "operator",
          "type": "address"
        },
        {
          "indexed": false,
          "internalType": "bool",
          "name": "approved",
          "type": "bool"
        }
      ],
      "name": "ApprovalForAll",
      "type": "event"
    },
    {
      "anonymous": false,
      "inputs": [
        {
          "indexed": false,
          "internalType": "uint256",
          "name": "tokenId",
          "type": "uint256"
        },
        {
          "indexed": false,
          "internalType": "bool",
          "name": "isListed",
          "type": "bool"
        }
      ],
      "name": "NewTokenMinted",
      "type": "event"
    },
    {
      "anonymous": false,
      "inputs": [
        {
          "indexed": false,
          "internalType": "uint256",
          "name": "tokenId",
          "type": "uint256"
        },
        {
          "indexed": false,
          "internalType": "uint256",
          "name": "listingPrice",
          "type": "uint256"
        }
      ],
      "name": "NftListedForSale",
      "type": "event"
    },
    {
      "anonymous": false,
      "inputs": [
        {
          "indexed": false,
          "internalType": "uint256",
          "name": "tokenId",
          "type": "uint256"
        },
        {
          "indexed": false,
          "internalType": "address",
          "name": "oldTokenOwnerAddress",
          "type": "address"
        },
        {
          "indexed": false,
          "internalType": "address",
          "name": "newTokenOwnerAddress",
          "type": "address"
        }
      ],
      "name": "NftOwnershipTransferEvent",
      "type": "event"
    },
    {
      "anonymous": false,
      "inputs": [
        {
          "indexed": false,
          "internalType": "uint256",
          "name": "tokenId",
          "type": "uint256"
        },
        {
          "indexed": false,
          "internalType": "address",
          "name": "newTokenOwner",
          "type": "address"
        },
        {
          "indexed": false,
          "internalType": "string",
          "name": "tokenName",
          "type": "string"
        },
        {
          "indexed": false,
          "internalType": "uint256",
          "name": "tokenPrice",
          "type": "uint256"
        }
      ],
      "name": "NftPurchased",
      "type": "event"
    },
    {
      "anonymous": false,
      "inputs": [
        {
          "indexed": true,
          "internalType": "address",
          "name": "previousOwner",
          "type": "address"
        },
        {
          "indexed": true,
          "internalType": "address",
          "name": "newOwner",
          "type": "address"
        }
      ],
      "name": "OwnershipTransferred",
      "type": "event"
    },
    {
      "anonymous": false,
      "inputs": [
        {
          "indexed": true,
          "internalType": "address",
          "name": "from",
          "type": "address"
        },
        {
          "indexed": true,
          "internalType": "address",
          "name": "to",
          "type": "address"
        },
        {
          "indexed": true,
          "internalType": "uint256",
          "name": "tokenId",
          "type": "uint256"
        }
      ],
      "name": "Transfer",
      "type": "event"
    },
    {
      "inputs": [
        {
          "internalType": "address",
          "name": "to",
          "type": "address"
        },
        {
          "internalType": "uint256",
          "name": "tokenId",
          "type": "uint256"
        }
      ],
      "name": "approve",
      "outputs": [],
      "stateMutability": "nonpayable",
      "type": "function"
    },
    {
      "inputs": [
        {
          "internalType": "address",
          "name": "owner",
          "type": "address"
        }
      ],
      "name": "balanceOf",
      "outputs": [
        {
          "internalType": "uint256",
          "name": "",
          "type": "uint256"
        }
      ],
      "stateMutability": "view",
      "type": "function",
      "constant": true
    },
    {
      "inputs": [
        {
          "internalType": "uint256",
          "name": "",
          "type": "uint256"
        }
      ],
      "name": "circulatingTokens",
      "outputs": [
        {
          "internalType": "uint256",
          "name": "tokenId",
          "type": "uint256"
        },
        {
          "internalType": "address",
          "name": "tokenOwner",
          "type": "address"
        },
        {
          "internalType": "string",
          "name": "tokenName",
          "type": "string"
        },
        {
          "internalType": "uint256",
          "name": "tokenPrice",
          "type": "uint256"
        },
        {
          "internalType": "bool",
          "name": "isListedForSale",
          "type": "bool"
        }
      ],
      "stateMutability": "view",
      "type": "function",
      "constant": true
    },
    {
      "inputs": [
        {
          "internalType": "uint256",
          "name": "tokenId",
          "type": "uint256"
        }
      ],
      "name": "getApproved",
      "outputs": [
        {
          "internalType": "address",
          "name": "",
          "type": "address"
        }
      ],
      "stateMutability": "view",
      "type": "function",
      "constant": true
    },
    {
      "inputs": [
        {
          "internalType": "address",
          "name": "owner",
          "type": "address"
        },
        {
          "internalType": "address",
          "name": "operator",
          "type": "address"
        }
      ],
      "name": "isApprovedForAll",
      "outputs": [
        {
          "internalType": "bool",
          "name": "",
          "type": "bool"
        }
      ],
      "stateMutability": "view",
      "type": "function",
      "constant": true
    },
    {
      "inputs": [
        {
          "internalType": "uint256",
          "name": "",
          "type": "uint256"
        }
      ],
      "name": "isTokenForSale",
      "outputs": [
        {
          "internalType": "bool",
          "name": "",
          "type": "bool"
        }
      ],
      "stateMutability": "view",
      "type": "function",
      "constant": true
    },
    {
      "inputs": [],
      "name": "name",
      "outputs": [
        {
          "internalType": "string",
          "name": "",
          "type": "string"
        }
      ],
      "stateMutability": "view",
      "type": "function",
      "constant": true
    },
    {
      "inputs": [],
      "name": "owner",
      "outputs": [
        {
          "internalType": "address",
          "name": "",
          "type": "address"
        }
      ],
      "stateMutability": "view",
      "type": "function",
      "constant": true
    },
    {
      "inputs": [
        {
          "internalType": "uint256",
          "name": "tokenId",
          "type": "uint256"
        }
      ],
      "name": "ownerOf",
      "outputs": [
        {
          "internalType": "address",
          "name": "",
          "type": "address"
        }
      ],
      "stateMutability": "view",
      "type": "function",
      "constant": true
    },
    {
      "inputs": [],
      "name": "renounceOwnership",
      "outputs": [],
      "stateMutability": "nonpayable",
      "type": "function"
    },
    {
      "inputs": [
        {
          "internalType": "address",
          "name": "from",
          "type": "address"
        },
        {
          "internalType": "address",
          "name": "to",
          "type": "address"
        },
        {
          "internalType": "uint256",
          "name": "tokenId",
          "type": "uint256"
        }
      ],
      "name": "safeTransferFrom",
      "outputs": [],
      "stateMutability": "nonpayable",
      "type": "function"
    },
    {
      "inputs": [
        {
          "internalType": "address",
          "name": "from",
          "type": "address"
        },
        {
          "internalType": "address",
          "name": "to",
          "type": "address"
        },
        {
          "internalType": "uint256",
          "name": "tokenId",
          "type": "uint256"
        },
        {
          "internalType": "bytes",
          "name": "data",
          "type": "bytes"
        }
      ],
      "name": "safeTransferFrom",
      "outputs": [],
      "stateMutability": "nonpayable",
      "type": "function"
    },
    {
      "inputs": [
        {
          "internalType": "address",
          "name": "operator",
          "type": "address"
        },
        {
          "internalType": "bool",
          "name": "approved",
          "type": "bool"
        }
      ],
      "name": "setApprovalForAll",
      "outputs": [],
      "stateMutability": "nonpayable",
      "type": "function"
    },
    {
      "inputs": [
        {
          "internalType": "bytes4",
          "name": "interfaceId",
          "type": "bytes4"
        }
      ],
      "name": "supportsInterface",
      "outputs": [
        {
          "internalType": "bool",
          "name": "",
          "type": "bool"
        }
      ],
      "stateMutability": "view",
      "type": "function",
      "constant": true
    },
    {
      "inputs": [],
      "name": "symbol",
      "outputs": [
        {
          "internalType": "string",
          "name": "",
          "type": "string"
        }
      ],
      "stateMutability": "view",
      "type": "function",
      "constant": true
    },
    {
      "inputs": [
        {
          "internalType": "uint256",
          "name": "tokenId",
          "type": "uint256"
        }
      ],
      "name": "tokenURI",
      "outputs": [
        {
          "internalType": "string",
          "name": "",
          "type": "string"
        }
      ],
      "stateMutability": "view",
      "type": "function",
      "constant": true
    },
    {
      "inputs": [
        {
          "internalType": "uint256",
          "name": "",
          "type": "uint256"
        }
      ],
      "name": "tokensPrice",
      "outputs": [
        {
          "internalType": "uint256",
          "name": "",
          "type": "uint256"
        }
      ],
      "stateMutability": "view",
      "type": "function",
      "constant": true
    },
    {
      "inputs": [],
      "name": "totalTokenSupply",
      "outputs": [
        {
          "internalType": "uint256",
          "name": "",
          "type": "uint256"
        }
      ],
      "stateMutability": "view",
      "type": "function",
      "constant": true
    },
    {
      "inputs": [
        {
          "internalType": "address",
          "name": "from",
          "type": "address"
        },
        {
          "internalType": "address",
          "name": "to",
          "type": "address"
        },
        {
          "internalType": "uint256",
          "name": "tokenId",
          "type": "uint256"
        }
      ],
      "name": "transferFrom",
      "outputs": [],
      "stateMutability": "nonpayable",
      "type": "function"
    },
    {
      "inputs": [
        {
          "internalType": "address",
          "name": "newOwner",
          "type": "address"
        }
      ],
      "name": "transferOwnership",
      "outputs": [],
      "stateMutability": "nonpayable",
      "type": "function"
    },
    {
      "inputs": [
        {
          "internalType": "string",
          "name": "_tokenName",
          "type": "string"
        },
        {
          "internalType": "uint256",
          "name": "_tokenPrice",
          "type": "uint256"
        }
      ],
      "name": "mintToken",
      "outputs": [
        {
          "internalType": "uint256",
          "name": "",
          "type": "uint256"
        }
      ],
      "stateMutability": "payable",
      "type": "function",
      "payable": true
    },
    {
      "inputs": [
        {
          "internalType": "uint256",
          "name": "_tokenId",
          "type": "uint256"
        },
        {
          "internalType": "address",
          "name": "_newTokenOwnerAddress",
          "type": "address"
        }
      ],
      "name": "transferTokenOwnership",
      "outputs": [],
      "stateMutability": "payable",
      "type": "function",
      "payable": true
    },
    {
      "inputs": [
        {
          "internalType": "uint256",
          "name": "_tokenId",
          "type": "uint256"
        }
      ],
      "name": "getOwnerOfToken",
      "outputs": [
        {
          "internalType": "address",
          "name": "",
          "type": "address"
        }
      ],
      "stateMutability": "view",
      "type": "function",
      "constant": true
    },
    {
      "inputs": [
        {
          "internalType": "uint256",
          "name": "_tokenId",
          "type": "uint256"
        }
      ],
      "name": "tokenIsOnSale",
      "outputs": [
        {
          "internalType": "bool",
          "name": "",
          "type": "bool"
        }
      ],
      "stateMutability": "view",
      "type": "function",
      "constant": true
    },
    {
      "inputs": [
        {
          "internalType": "uint256",
          "name": "_tokenIndex",
          "type": "uint256"
        }
      ],
      "name": "fetchTokenByIndex",
      "outputs": [
        {
          "components": [
            {
              "internalType": "uint256",
              "name": "tokenId",
              "type": "uint256"
            },
            {
              "internalType": "address",
              "name": "tokenOwner",
              "type": "address"
            },
            {
              "internalType": "string",
              "name": "tokenName",
              "type": "string"
            },
            {
              "internalType": "uint256",
              "name": "tokenPrice",
              "type": "uint256"
            },
            {
              "internalType": "bool",
              "name": "isListedForSale",
              "type": "bool"
            }
          ],
          "internalType": "struct TicketNFT.NftToken",
          "name": "",
          "type": "tuple"
        }
      ],
      "stateMutability": "view",
      "type": "function",
      "constant": true
    },
    {
      "inputs": [
        {
          "internalType": "uint256",
          "name": "_tokenId",
          "type": "uint256"
        },
        {
          "internalType": "uint256",
          "name": "_listingPrice",
          "type": "uint256"
        }
      ],
      "name": "listNftForSale",
      "outputs": [],
      "stateMutability": "nonpayable",
      "type": "function"
    },
    {
      "inputs": [
        {
          "internalType": "uint256",
          "name": "tokenId",
          "type": "uint256"
        }
      ],
      "name": "buyNftToken",
      "outputs": [
        {
          "internalType": "address",
          "name": "",
          "type": "address"
        }
      ],
      "stateMutability": "payable",
      "type": "function",
      "payable": true
    }
  ],
  "bytecode": "0x60806040523480156200001157600080fd5b5060405180604001604052806011815260200170115d995b9d1cc813919508151a58dad95d607a1b815250604051806040016040528060048152602001631153919560e21b81525081600090816200006a919062000197565b50600162000079828262000197565b50505062000096620000906200009c60201b60201c565b620000a0565b62000263565b3390565b600780546001600160a01b038381166001600160a01b0319831681179093556040519116919082907f8be0079c531659141344cd1fd0a4f28419497f9722a3daafe3b4186f6b6457e090600090a35050565b634e487b7160e01b600052604160045260246000fd5b600181811c908216806200011d57607f821691505b6020821081036200013e57634e487b7160e01b600052602260045260246000fd5b50919050565b601f8211156200019257600081815260208120601f850160051c810160208610156200016d5750805b601f850160051c820191505b818110156200018e5782815560010162000179565b5050505b505050565b81516001600160401b03811115620001b357620001b3620000f2565b620001cb81620001c4845462000108565b8462000144565b602080601f831160018114620002035760008415620001ea5750858301515b600019600386901b1c1916600185901b1785556200018e565b600085815260208120601f198616915b82811015620002345788860151825594840194600190910190840162000213565b5085821015620002535787850151600019600388901b60f8161c191681555b5050505050600190811b01905550565b61236080620002736000396000f3fe60806040526004361061019c5760003560e01c80637f1dd80b116100ec578063ba093ba61161008a578063da8cc6e811610064578063da8cc6e8146104f4578063e985e9c514610507578063e9cf64e614610550578063f2fde38b1461056357600080fd5b8063ba093ba614610494578063c046372c146104c1578063c87b56dd146104d457600080fd5b806395d89b41116100c657806395d89b411461040e5780639a65b72214610423578063a22cb46514610454578063b88d4fde1461047457600080fd5b80637f1dd80b1461038d578063854905b6146103c35780638da5cb5b146103f057600080fd5b80631ca8b6cb116101595780634fed1c94116101335780634fed1c94146103085780636352211e1461033857806370a0823114610358578063715018a61461037857600080fd5b80631ca8b6cb146102a457806323b872dd146102c857806342842e0e146102e857600080fd5b806301ffc9a7146101a157806304f23309146101d657806306fdde03146101f8578063081812fc1461021a57806308d5ab4214610252578063095ea7b314610284575b600080fd5b3480156101ad57600080fd5b506101c16101bc366004611c21565b610583565b60405190151581526020015b60405180910390f35b3480156101e257600080fd5b506101f66101f1366004611c3e565b6105d5565b005b34801561020457600080fd5b5061020d61083b565b6040516101cd9190611cb0565b34801561022657600080fd5b5061023a610235366004611cc3565b6108cd565b6040516001600160a01b0390911681526020016101cd565b34801561025e57600080fd5b506101c161026d366004611cc3565b600090815260096020526040902060030154151590565b34801561029057600080fd5b506101f661029f366004611cf8565b6108f4565b3480156102b057600080fd5b506102ba60085481565b6040519081526020016101cd565b3480156102d457600080fd5b506101f66102e3366004611d22565b610a09565b3480156102f457600080fd5b506101f6610303366004611d22565b610a3a565b34801561031457600080fd5b506101c1610323366004611cc3565b600b6020526000908152604090205460ff1681565b34801561034457600080fd5b5061023a610353366004611cc3565b610a55565b34801561036457600080fd5b506102ba610373366004611d5e565b610ab5565b34801561038457600080fd5b506101f6610b3b565b34801561039957600080fd5b5061023a6103a8366004611cc3565b6000908152600a60205260409020546001600160a01b031690565b3480156103cf57600080fd5b506102ba6103de366004611cc3565b600c6020526000908152604090205481565b3480156103fc57600080fd5b506007546001600160a01b031661023a565b34801561041a57600080fd5b5061020d610b4f565b34801561042f57600080fd5b5061044361043e366004611cc3565b610b5e565b6040516101cd959493929190611d79565b34801561046057600080fd5b506101f661046f366004611dbc565b610c23565b34801561048057600080fd5b506101f661048f366004611e84565b610c32565b3480156104a057600080fd5b506104b46104af366004611cc3565b610c6a565b6040516101cd9190611f00565b6102ba6104cf366004611f5a565b610d93565b3480156104e057600080fd5b5061020d6104ef366004611cc3565b610ecb565b61023a610502366004611cc3565b610fdb565b34801561051357600080fd5b506101c1610522366004611fb3565b6001600160a01b03918216600090815260056020908152604080832093909416825291909152205460ff1690565b6101f661055e366004611fe6565b6112a2565b34801561056f57600080fd5b506101f661057e366004611d5e565b6113c1565b60006001600160e01b031982166380ac58cd60e01b14806105b457506001600160e01b03198216635b5e139f60e01b145b806105cf57506301ffc9a760e01b6001600160e01b03198316145b92915050565b6000828152600a60205260409020546001600160a01b031633146106665760405162461bcd60e51b815260206004820152603760248201527f596f75206d75737420626520746865206f776e6572206f66207468697320746f60448201527f6b656e20746f206c69737420697420666f722073616c6500000000000000000060648201526084015b60405180910390fd5b600082815260096020526040902060030154156106eb5760405162461bcd60e51b815260206004820152603a60248201527f54686520746f6b656e206d75737420616c7265616479206265206f6e2073616c60448201527f6520746f206c69737420746865206e667420666f722073616c65000000000000606482015260840161065d565b600880549060006106fb8361201f565b90915550506000828152600960209081526040808320815160a0810183528154815260018201546001600160a01b031693810193909352600281018054919284019161074690612036565b80601f016020809104026020016040519081016040528092919081815260200182805461077290612036565b80156107bf5780601f10610794576101008083540402835291602001916107bf565b820191906000526020600020905b8154815290600101906020018083116107a257829003601f168201915b50505091835250506003820154602082015260049091015460ff16151560409182015260608201849052608082018051159052519091507fc5a9946ad95695e956f90d429bf0833a693d0928aac900c651ebe3f4fc3cd89d9061082e9085908590918252602082015260400190565b60405180910390a1505050565b60606000805461084a90612036565b80601f016020809104026020016040519081016040528092919081815260200182805461087690612036565b80156108c35780601f10610898576101008083540402835291602001916108c3565b820191906000526020600020905b8154815290600101906020018083116108a657829003601f168201915b5050505050905090565b60006108d88261143a565b506000908152600460205260409020546001600160a01b031690565b60006108ff82610a55565b9050806001600160a01b0316836001600160a01b03160361096c5760405162461bcd60e51b815260206004820152602160248201527f4552433732313a20617070726f76616c20746f2063757272656e74206f776e656044820152603960f91b606482015260840161065d565b336001600160a01b038216148061098857506109888133610522565b6109fa5760405162461bcd60e51b815260206004820152603d60248201527f4552433732313a20617070726f76652063616c6c6572206973206e6f7420746f60448201527f6b656e206f776e6572206f7220617070726f76656420666f7220616c6c000000606482015260840161065d565b610a048383611499565b505050565b610a133382611507565b610a2f5760405162461bcd60e51b815260040161065d90612070565b610a04838383611585565b610a0483838360405180602001604052806000815250610c32565b6000818152600260205260408120546001600160a01b0316806105cf5760405162461bcd60e51b8152602060048201526018602482015277115490cdcc8c4e881a5b9d985b1a59081d1bdad95b88125160421b604482015260640161065d565b60006001600160a01b038216610b1f5760405162461bcd60e51b815260206004820152602960248201527f4552433732313a2061646472657373207a65726f206973206e6f7420612076616044820152683634b21037bbb732b960b91b606482015260840161065d565b506001600160a01b031660009081526003602052604090205490565b610b436116f6565b610b4d6000611750565b565b60606001805461084a90612036565b60096020526000908152604090208054600182015460028301805492936001600160a01b0390921692610b9090612036565b80601f0160208091040260200160405190810160405280929190818152602001828054610bbc90612036565b8015610c095780601f10610bde57610100808354040283529160200191610c09565b820191906000526020600020905b815481529060010190602001808311610bec57829003601f168201915b50505050600383015460049093015491929160ff16905085565b610c2e3383836117a2565b5050565b610c3c3383611507565b610c585760405162461bcd60e51b815260040161065d90612070565b610c6484848484611870565b50505050565b610ca76040518060a001604052806000815260200160006001600160a01b0316815260200160608152602001600081526020016000151581525090565b600082815260096020908152604091829020825160a0810184528154815260018201546001600160a01b0316928101929092526002810180549293919291840191610cf190612036565b80601f0160208091040260200160405190810160405280929190818152602001828054610d1d90612036565b8015610d6a5780601f10610d3f57610100808354040283529160200191610d6a565b820191906000526020600020905b815481529060010190602001808311610d4d57829003601f168201915b50505091835250506003820154602082015260049091015460ff16151560409091015292915050565b600080600860008154610da5906120bd565b91829055506040805160a0810182528281523360208083018281528385018a8152606085018a90526000608086018190528781526009909352949091208351815590516001820180546001600160a01b0319166001600160a01b039092169190911790559251939450929091906002820190610e219082612124565b50606082015160038201556080909101516004918201805491151560ff19928316179055600084815260096020908152604080832094850180549094169093556008548252600a815282822080546001600160a01b0387166001600160a01b0319909116179055825186815290810182905290917f6e0d3d70795daa61644af1425fa1cc87d96ae8753a5ee6173696c956e879fa72910160405180910390a1509195945050505050565b6060610ed68261143a565b60008281526006602052604081208054610eef90612036565b80601f0160208091040260200160405190810160405280929190818152602001828054610f1b90612036565b8015610f685780601f10610f3d57610100808354040283529160200191610f68565b820191906000526020600020905b815481529060010190602001808311610f4b57829003601f168201915b505050505090506000610f8660408051602081019091526000815290565b90508051600003610f98575092915050565b815115610fca578082604051602001610fb29291906121e4565b60405160208183030381529060405292505050919050565b610fd3846118a3565b949350505050565b6000818152600a602052604081205433906001600160a01b03166110415760405162461bcd60e51b815260206004820152601d60248201527f546865204e46542068617320616c7265616479206265656e20736f6c64000000604482015260640161065d565b6000838152600c602052604090205434146110c45760405162461bcd60e51b815260206004820152603c60248201527f5468652076616c7565206f6620746865206d7367206d7573742062652065717560448201527f616c20746f20746865207072696365206f662074686520746f6b656e00000000606482015260840161065d565b34816001600160a01b03163110156111445760405162461bcd60e51b815260206004820152603b60248201527f54686520746f6b656e20627579657220646f6573206e6f74206861766520656e60448201527f6f7567682066756e647320746f206275792074686520746f6b656e0000000000606482015260840161065d565b6000838152600960209081526040808320815160a0810183528154815260018201546001600160a01b031693810193909352600281018054919284019161118a90612036565b80601f01602080910402602001604051908101604052809291908181526020018280546111b690612036565b80156112035780601f106111d857610100808354040283529160200191611203565b820191906000526020600020905b8154815290600101906020018083116111e657829003601f168201915b5050509183525050600382015460208083019190915260049092015460ff161515604091820152828201516000888152600c9093528183205491519394509283926001600160a01b0384169280156108fc02929091818181858888f19350505050158015611275573d6000803e3d6000fd5b5050506001600160a01b0382166020918201526000938452600b90526040909220805460ff191690555090565b600082815260096020526040902060018101543391906001600160a01b0316821461135b5760405162461bcd60e51b815260206004820152605c60248201527f596f7520646f206e6f74206f776e207468697320746f6b656e2072657072657360448201527f656e74696e6720746865207469636b65742e205472616e73666572206f66206f60648201527f776e6572736869702063616e6e6f7420626520706572666f726d656400000000608482015260a40161065d565b6001810180546001600160a01b0319166001600160a01b038581169182179092556040805187815292851660208401528201527f871c82ffff979d6aec4e39ef3ff2de7ab2c141f6bd26cdfdb5ac9a3b7c79bbf19060600160405180910390a150505050565b6113c96116f6565b6001600160a01b03811661142e5760405162461bcd60e51b815260206004820152602660248201527f4f776e61626c653a206e6577206f776e657220697320746865207a65726f206160448201526564647265737360d01b606482015260840161065d565b61143781611750565b50565b6000818152600260205260409020546001600160a01b03166114375760405162461bcd60e51b8152602060048201526018602482015277115490cdcc8c4e881a5b9d985b1a59081d1bdad95b88125160421b604482015260640161065d565b600081815260046020526040902080546001600160a01b0319166001600160a01b03841690811790915581906114ce82610a55565b6001600160a01b03167f8c5be1e5ebec7d5bd14f71427d1e84f3dd0314c0f7b2291e5b200ac8c7c3b92560405160405180910390a45050565b60008061151383610a55565b9050806001600160a01b0316846001600160a01b0316148061155a57506001600160a01b0380821660009081526005602090815260408083209388168352929052205460ff165b80610fd35750836001600160a01b0316611573846108cd565b6001600160a01b031614949350505050565b826001600160a01b031661159882610a55565b6001600160a01b0316146115be5760405162461bcd60e51b815260040161065d90612213565b6001600160a01b0382166116205760405162461bcd60e51b8152602060048201526024808201527f4552433732313a207472616e7366657220746f20746865207a65726f206164646044820152637265737360e01b606482015260840161065d565b61162d8383836001611917565b826001600160a01b031661164082610a55565b6001600160a01b0316146116665760405162461bcd60e51b815260040161065d90612213565b600081815260046020908152604080832080546001600160a01b03199081169091556001600160a01b0387811680865260038552838620805460001901905590871680865283862080546001019055868652600290945282852080549092168417909155905184937fddf252ad1be2c89b69c2b068fc378daa952ba7f163c4a11628f55a4df523b3ef91a4505050565b6007546001600160a01b03163314610b4d5760405162461bcd60e51b815260206004820181905260248201527f4f776e61626c653a2063616c6c6572206973206e6f7420746865206f776e6572604482015260640161065d565b600780546001600160a01b038381166001600160a01b0319831681179093556040519116919082907f8be0079c531659141344cd1fd0a4f28419497f9722a3daafe3b4186f6b6457e090600090a35050565b816001600160a01b0316836001600160a01b0316036118035760405162461bcd60e51b815260206004820152601960248201527f4552433732313a20617070726f766520746f2063616c6c657200000000000000604482015260640161065d565b6001600160a01b03838116600081815260056020908152604080832094871680845294825291829020805460ff191686151590811790915591519182527f17307eab39ab6107e8899845ad3d59bd9653f200f220920489ca2b5937696c31910160405180910390a3505050565b61187b848484611585565b6118878484848461199f565b610c645760405162461bcd60e51b815260040161065d90612258565b60606118ae8261143a565b60006118c560408051602081019091526000815290565b905060008151116118e55760405180602001604052806000815250611910565b806118ef84611aa0565b6040516020016119009291906121e4565b6040516020818303038152906040525b9392505050565b6001811115610c64576001600160a01b0384161561195d576001600160a01b038416600090815260036020526040812080548392906119579084906122aa565b90915550505b6001600160a01b03831615610c64576001600160a01b038316600090815260036020526040812080548392906119949084906122bd565b909155505050505050565b60006001600160a01b0384163b15611a9557604051630a85bd0160e11b81526001600160a01b0385169063150b7a02906119e39033908990889088906004016122d0565b6020604051808303816000875af1925050508015611a1e575060408051601f3d908101601f19168201909252611a1b9181019061230d565b60015b611a7b573d808015611a4c576040519150601f19603f3d011682016040523d82523d6000602084013e611a51565b606091505b508051600003611a735760405162461bcd60e51b815260040161065d90612258565b805181602001fd5b6001600160e01b031916630a85bd0160e11b149050610fd3565b506001949350505050565b60606000611aad83611b33565b600101905060008167ffffffffffffffff811115611acd57611acd611df8565b6040519080825280601f01601f191660200182016040528015611af7576020820181803683370190505b5090508181016020015b600019016f181899199a1a9b1b9c1cb0b131b232b360811b600a86061a8153600a8504945084611b0157509392505050565b60008072184f03e93ff9f4daa797ed6e38ed64bf6a1f0160401b8310611b725772184f03e93ff9f4daa797ed6e38ed64bf6a1f0160401b830492506040015b6d04ee2d6d415b85acef81000000008310611b9e576d04ee2d6d415b85acef8100000000830492506020015b662386f26fc100008310611bbc57662386f26fc10000830492506010015b6305f5e1008310611bd4576305f5e100830492506008015b6127108310611be857612710830492506004015b60648310611bfa576064830492506002015b600a83106105cf5760010192915050565b6001600160e01b03198116811461143757600080fd5b600060208284031215611c3357600080fd5b813561191081611c0b565b60008060408385031215611c5157600080fd5b50508035926020909101359150565b60005b83811015611c7b578181015183820152602001611c63565b50506000910152565b60008151808452611c9c816020860160208601611c60565b601f01601f19169290920160200192915050565b6020815260006119106020830184611c84565b600060208284031215611cd557600080fd5b5035919050565b80356001600160a01b0381168114611cf357600080fd5b919050565b60008060408385031215611d0b57600080fd5b611d1483611cdc565b946020939093013593505050565b600080600060608486031215611d3757600080fd5b611d4084611cdc565b9250611d4e60208501611cdc565b9150604084013590509250925092565b600060208284031215611d7057600080fd5b61191082611cdc565b8581526001600160a01b038516602082015260a060408201819052600090611da390830186611c84565b6060830194909452509015156080909101529392505050565b60008060408385031215611dcf57600080fd5b611dd883611cdc565b915060208301358015158114611ded57600080fd5b809150509250929050565b634e487b7160e01b600052604160045260246000fd5b600067ffffffffffffffff80841115611e2957611e29611df8565b604051601f8501601f19908116603f01168101908282118183101715611e5157611e51611df8565b81604052809350858152868686011115611e6a57600080fd5b858560208301376000602087830101525050509392505050565b60008060008060808587031215611e9a57600080fd5b611ea385611cdc565b9350611eb160208601611cdc565b925060408501359150606085013567ffffffffffffffff811115611ed457600080fd5b8501601f81018713611ee557600080fd5b611ef487823560208401611e0e565b91505092959194509250565b602081528151602082015260018060a01b0360208301511660408201526000604083015160a06060840152611f3860c0840182611c84565b9050606084015160808401526080840151151560a08401528091505092915050565b60008060408385031215611f6d57600080fd5b823567ffffffffffffffff811115611f8457600080fd5b8301601f81018513611f9557600080fd5b611fa485823560208401611e0e565b95602094909401359450505050565b60008060408385031215611fc657600080fd5b611fcf83611cdc565b9150611fdd60208401611cdc565b90509250929050565b60008060408385031215611ff957600080fd5b82359150611fdd60208401611cdc565b634e487b7160e01b600052601160045260246000fd5b60008161202e5761202e612009565b506000190190565b600181811c9082168061204a57607f821691505b60208210810361206a57634e487b7160e01b600052602260045260246000fd5b50919050565b6020808252602d908201527f4552433732313a2063616c6c6572206973206e6f7420746f6b656e206f776e6560408201526c1c881bdc88185c1c1c9bdd9959609a1b606082015260800190565b6000600182016120cf576120cf612009565b5060010190565b601f821115610a0457600081815260208120601f850160051c810160208610156120fd5750805b601f850160051c820191505b8181101561211c57828155600101612109565b505050505050565b815167ffffffffffffffff81111561213e5761213e611df8565b6121528161214c8454612036565b846120d6565b602080601f831160018114612187576000841561216f5750858301515b600019600386901b1c1916600185901b17855561211c565b600085815260208120601f198616915b828110156121b657888601518255948401946001909101908401612197565b50858210156121d45787850151600019600388901b60f8161c191681555b5050505050600190811b01905550565b600083516121f6818460208801611c60565b83519083019061220a818360208801611c60565b01949350505050565b60208082526025908201527f4552433732313a207472616e736665722066726f6d20696e636f72726563742060408201526437bbb732b960d91b606082015260800190565b60208082526032908201527f4552433732313a207472616e7366657220746f206e6f6e20455243373231526560408201527131b2b4bb32b91034b6b83632b6b2b73a32b960711b606082015260800190565b818103818111156105cf576105cf612009565b808201808211156105cf576105cf612009565b6001600160a01b038581168252841660208201526040810183905260806060820181905260009061230390830184611c84565b9695505050505050565b60006020828403121561231f57600080fd5b815161191081611c0b56fea2646970667358221220e0946c3416f558346a8b273db332324d5db1723e057839950c8df041d44593c164736f6c63430008110033",
  "immutableReferences": {},
  "source": "// SPDX-License-Identifier: MIT\npragma solidity ^0.8.7;\n\nimport \"../node_modules/@openzeppelin/contracts/token/ERC721/extensions/ERC721URIStorage.sol\";\nimport \"../node_modules/@openzeppelin/contracts/utils/Counters.sol\";\nimport \"../node_modules/@openzeppelin/contracts/token/ERC721/ERC721.sol\";\nimport \"../node_modules/@openzeppelin/contracts/access/Ownable.sol\";\n\ncontract TicketNFT is ERC721URIStorage, Ownable { // NFT Contract for Event Tickets\n    using Counters for Counters.Counter;\n\n    struct NftToken { // Create the struct for the nft token\n        uint256 tokenId;\n        address tokenOwner;\n        string tokenName;\n        uint256 tokenPrice;\n        bool isListedForSale;\n    }\n\n    uint256 public totalTokenSupply; // Total supply for the tokens\n\n    mapping (uint256 => NftToken) public circulatingTokens; // Create mapping between an Integer and the token struct (1 => Nft data, 2: Nft Data...)\n    mapping (uint256 => address) tokenOwner; // Store the owners of the NFT\n\n    mapping (uint256 => bool) public isTokenForSale;\n    mapping (uint256 => uint) public tokensPrice;\n    mapping(string => bool) tokenNames;\n\n    event NewTokenMinted(uint256 tokenId, bool isListed);\n    event NftPurchased (uint256 tokenId, address newTokenOwner, string tokenName, uint tokenPrice);\n    event NftOwnershipTransferEvent(uint tokenId, address oldTokenOwnerAddress, address newTokenOwnerAddress);\n    event NftListedForSale(uint tokenId, uint listingPrice);\n    \n    constructor() ERC721(\"Events NFT Ticket\", \"ENFT\") {}\n\n    function mintToken(string memory _tokenName, uint256 _tokenPrice) public payable returns (uint) {\n        uint256 newTokenID = ++totalTokenSupply;\n\n        address owner = msg.sender; // Store the address of the current owner of the token\n        circulatingTokens[newTokenID] = NftToken(newTokenID, owner, _tokenName, _tokenPrice, false);\n\n        NftToken storage currMintedToken = circulatingTokens[newTokenID];\n        currMintedToken.isListedForSale = false;\n   \n        bool isTokenListed = currMintedToken.isListedForSale;\n        tokenOwner[totalTokenSupply] = owner; // Set the new token owner to the owner (Updating the owner)\n\n        emit NewTokenMinted(newTokenID, isTokenListed);\n        return newTokenID; // Return the newly created ID\n    }\n\n    function transferTokenOwnership(uint256 _tokenId, address _newTokenOwnerAddress) public payable {\n        address currentTokenOwner = msg.sender;\n        NftToken storage nftToken = circulatingTokens[_tokenId];\n\n        require(nftToken.tokenOwner == currentTokenOwner, \"You do not own this token representing the ticket. Transfer of ownership cannot be performed\");\n        nftToken.tokenOwner = _newTokenOwnerAddress;\n\n        emit NftOwnershipTransferEvent(_tokenId, currentTokenOwner, _newTokenOwnerAddress);\n    }\n\n    // @description: Returns the owner of the NFT token given an ID and returns the address of the owner\n    function getOwnerOfToken(uint256 _tokenId) public view returns (address) {\n        return tokenOwner[_tokenId];\n    }\n\n    function tokenIsOnSale(uint256 _tokenId) public view returns (bool) { // Function that determines if the token with its ID is already on sale or not\n        return circulatingTokens[_tokenId].tokenPrice > 0;\n  }\n\n    function fetchTokenByIndex(uint256 _tokenIndex) public view returns (NftToken memory) {\n        return circulatingTokens[_tokenIndex];\n    }\n\n    function listNftForSale(uint256 _tokenId, uint256 _listingPrice) public { // Function which will list the NFT for sale\n        require(getOwnerOfToken(_tokenId) == msg.sender, \"You must be the owner of this token to list it for sale\");\n        require(!(tokenIsOnSale(_tokenId)), \"The token must already be on sale to list the nft for sale\");\n\n        totalTokenSupply--; // Decrease the total supply of tokens when listed for sale\n\n        NftToken memory currentNftToken = circulatingTokens[_tokenId];\n        currentNftToken.tokenPrice = _listingPrice;\n        currentNftToken.isListedForSale = !(currentNftToken.isListedForSale); // Set the property of current nft token struct is listed to the negation of false\n\n        emit NftListedForSale(_tokenId, _listingPrice);\n    }\n\n    function buyNftToken(uint256 tokenId) public payable returns (address) { // Function that allows the ticket buyer to to purchase the NFT Token given the Token ID\n        address tokenBuyer = msg.sender; // Store the token buyer in msg.sender\n        require(tokenOwner[tokenId] != address(0), \"The NFT has already been sold\");\n        require(msg.value == tokensPrice[tokenId], \"The value of the msg must be equal to the price of the token\");\n        require(tokenBuyer.balance >= msg.value, \"The token buyer does not have enough funds to buy the token\");\n\n        NftToken memory currentToken = circulatingTokens[tokenId]; // Extract the current nft token\n        address currentTokenOwner = currentToken.tokenOwner; // Get the current token owner\n        address payable currentTokenOwnerPayable = payable(currentTokenOwner);\n\n        currentTokenOwnerPayable.transfer(tokensPrice[tokenId]);\n        currentToken.tokenOwner = tokenBuyer;\n        isTokenForSale[tokenId] = false;\n\n        // Return the new blockchain address holder of the ticket token\n        return tokenBuyer;\n}\n\n}",
  "sourcePath": "/Users/sabin2000/Documents/ethertix/frontend/contracts/TicketNFT.sol",
  "compiler": {
    "name": "solc",
    "version": "0.8.17+commit.8df45f5f.Emscripten.clang"
  },
  "schemaVersion": "3.4.9",
  "updatedAt": "2023-02-24T15:50:50.403Z",
  "networkType": "ethereum",
  "devdoc": {
    "kind": "dev",
    "methods": {
      "approve(address,uint256)": {
        "details": "See {IERC721-approve}."
      },
      "balanceOf(address)": {
        "details": "See {IERC721-balanceOf}."
      },
      "getApproved(uint256)": {
        "details": "See {IERC721-getApproved}."
      },
      "isApprovedForAll(address,address)": {
        "details": "See {IERC721-isApprovedForAll}."
      },
      "name()": {
        "details": "See {IERC721Metadata-name}."
      },
      "owner()": {
        "details": "Returns the address of the current owner."
      },
      "ownerOf(uint256)": {
        "details": "See {IERC721-ownerOf}."
      },
      "renounceOwnership()": {
        "details": "Leaves the contract without owner. It will not be possible to call `onlyOwner` functions anymore. Can only be called by the current owner. NOTE: Renouncing ownership will leave the contract without an owner, thereby removing any functionality that is only available to the owner."
      },
      "safeTransferFrom(address,address,uint256)": {
        "details": "See {IERC721-safeTransferFrom}."
      },
      "safeTransferFrom(address,address,uint256,bytes)": {
        "details": "See {IERC721-safeTransferFrom}."
      },
      "setApprovalForAll(address,bool)": {
        "details": "See {IERC721-setApprovalForAll}."
      },
      "supportsInterface(bytes4)": {
        "details": "See {IERC165-supportsInterface}."
      },
      "symbol()": {
        "details": "See {IERC721Metadata-symbol}."
      },
      "tokenURI(uint256)": {
        "details": "See {IERC721Metadata-tokenURI}."
      },
      "transferFrom(address,address,uint256)": {
        "details": "See {IERC721-transferFrom}."
      },
      "transferOwnership(address)": {
        "details": "Transfers ownership of the contract to a new account (`newOwner`). Can only be called by the current owner."
      }
    },
    "version": 1
  },
  "userdoc": {
    "kind": "user",
    "methods": {},
    "version": 1
  }
}