{
  "contractName": "TicketNFT",
  "abi": [
    {
      "inputs": [],
      "stateMutability": "nonpayable",
      "type": "constructor"
    },
    {
      "anonymous": false,
      "inputs": [
        {
          "indexed": true,
          "internalType": "address",
          "name": "owner",
          "type": "address"
        },
        {
          "indexed": true,
          "internalType": "address",
          "name": "approved",
          "type": "address"
        },
        {
          "indexed": true,
          "internalType": "uint256",
          "name": "tokenId",
          "type": "uint256"
        }
      ],
      "name": "Approval",
      "type": "event"
    },
    {
      "anonymous": false,
      "inputs": [
        {
          "indexed": true,
          "internalType": "address",
          "name": "owner",
          "type": "address"
        },
        {
          "indexed": true,
          "internalType": "address",
          "name": "operator",
          "type": "address"
        },
        {
          "indexed": false,
          "internalType": "bool",
          "name": "approved",
          "type": "bool"
        }
      ],
      "name": "ApprovalForAll",
      "type": "event"
    },
    {
      "anonymous": false,
      "inputs": [
        {
          "indexed": true,
          "internalType": "address",
          "name": "previousOwner",
          "type": "address"
        },
        {
          "indexed": true,
          "internalType": "address",
          "name": "newOwner",
          "type": "address"
        }
      ],
      "name": "OwnershipTransferred",
      "type": "event"
    },
    {
      "anonymous": false,
      "inputs": [
        {
          "indexed": true,
          "internalType": "address",
          "name": "from",
          "type": "address"
        },
        {
          "indexed": true,
          "internalType": "address",
          "name": "to",
          "type": "address"
        },
        {
          "indexed": true,
          "internalType": "uint256",
          "name": "tokenId",
          "type": "uint256"
        }
      ],
      "name": "Transfer",
      "type": "event"
    },
    {
      "inputs": [
        {
          "internalType": "address",
          "name": "to",
          "type": "address"
        },
        {
          "internalType": "uint256",
          "name": "tokenId",
          "type": "uint256"
        }
      ],
      "name": "approve",
      "outputs": [],
      "stateMutability": "nonpayable",
      "type": "function"
    },
    {
      "inputs": [
        {
          "internalType": "address",
          "name": "owner",
          "type": "address"
        }
      ],
      "name": "balanceOf",
      "outputs": [
        {
          "internalType": "uint256",
          "name": "",
          "type": "uint256"
        }
      ],
      "stateMutability": "view",
      "type": "function",
      "constant": true
    },
    {
      "inputs": [
        {
          "internalType": "uint256",
          "name": "tokenId",
          "type": "uint256"
        }
      ],
      "name": "getApproved",
      "outputs": [
        {
          "internalType": "address",
          "name": "",
          "type": "address"
        }
      ],
      "stateMutability": "view",
      "type": "function",
      "constant": true
    },
    {
      "inputs": [
        {
          "internalType": "address",
          "name": "owner",
          "type": "address"
        },
        {
          "internalType": "address",
          "name": "operator",
          "type": "address"
        }
      ],
      "name": "isApprovedForAll",
      "outputs": [
        {
          "internalType": "bool",
          "name": "",
          "type": "bool"
        }
      ],
      "stateMutability": "view",
      "type": "function",
      "constant": true
    },
    {
      "inputs": [
        {
          "internalType": "uint256",
          "name": "",
          "type": "uint256"
        }
      ],
      "name": "isTokenForSale",
      "outputs": [
        {
          "internalType": "bool",
          "name": "",
          "type": "bool"
        }
      ],
      "stateMutability": "view",
      "type": "function",
      "constant": true
    },
    {
      "inputs": [],
      "name": "name",
      "outputs": [
        {
          "internalType": "string",
          "name": "",
          "type": "string"
        }
      ],
      "stateMutability": "view",
      "type": "function",
      "constant": true
    },
    {
      "inputs": [],
      "name": "owner",
      "outputs": [
        {
          "internalType": "address",
          "name": "",
          "type": "address"
        }
      ],
      "stateMutability": "view",
      "type": "function",
      "constant": true
    },
    {
      "inputs": [
        {
          "internalType": "uint256",
          "name": "tokenId",
          "type": "uint256"
        }
      ],
      "name": "ownerOf",
      "outputs": [
        {
          "internalType": "address",
          "name": "",
          "type": "address"
        }
      ],
      "stateMutability": "view",
      "type": "function",
      "constant": true
    },
    {
      "inputs": [],
      "name": "renounceOwnership",
      "outputs": [],
      "stateMutability": "nonpayable",
      "type": "function"
    },
    {
      "inputs": [
        {
          "internalType": "address",
          "name": "from",
          "type": "address"
        },
        {
          "internalType": "address",
          "name": "to",
          "type": "address"
        },
        {
          "internalType": "uint256",
          "name": "tokenId",
          "type": "uint256"
        }
      ],
      "name": "safeTransferFrom",
      "outputs": [],
      "stateMutability": "nonpayable",
      "type": "function"
    },
    {
      "inputs": [
        {
          "internalType": "address",
          "name": "from",
          "type": "address"
        },
        {
          "internalType": "address",
          "name": "to",
          "type": "address"
        },
        {
          "internalType": "uint256",
          "name": "tokenId",
          "type": "uint256"
        },
        {
          "internalType": "bytes",
          "name": "data",
          "type": "bytes"
        }
      ],
      "name": "safeTransferFrom",
      "outputs": [],
      "stateMutability": "nonpayable",
      "type": "function"
    },
    {
      "inputs": [
        {
          "internalType": "address",
          "name": "operator",
          "type": "address"
        },
        {
          "internalType": "bool",
          "name": "approved",
          "type": "bool"
        }
      ],
      "name": "setApprovalForAll",
      "outputs": [],
      "stateMutability": "nonpayable",
      "type": "function"
    },
    {
      "inputs": [
        {
          "internalType": "bytes4",
          "name": "interfaceId",
          "type": "bytes4"
        }
      ],
      "name": "supportsInterface",
      "outputs": [
        {
          "internalType": "bool",
          "name": "",
          "type": "bool"
        }
      ],
      "stateMutability": "view",
      "type": "function",
      "constant": true
    },
    {
      "inputs": [],
      "name": "symbol",
      "outputs": [
        {
          "internalType": "string",
          "name": "",
          "type": "string"
        }
      ],
      "stateMutability": "view",
      "type": "function",
      "constant": true
    },
    {
      "inputs": [
        {
          "internalType": "uint256",
          "name": "tokenId",
          "type": "uint256"
        }
      ],
      "name": "tokenURI",
      "outputs": [
        {
          "internalType": "string",
          "name": "",
          "type": "string"
        }
      ],
      "stateMutability": "view",
      "type": "function",
      "constant": true
    },
    {
      "inputs": [
        {
          "internalType": "uint256",
          "name": "",
          "type": "uint256"
        }
      ],
      "name": "tokens",
      "outputs": [
        {
          "internalType": "uint256",
          "name": "id",
          "type": "uint256"
        },
        {
          "internalType": "address",
          "name": "tokenOwner",
          "type": "address"
        },
        {
          "internalType": "string",
          "name": "tokenName",
          "type": "string"
        },
        {
          "internalType": "uint256",
          "name": "tokenPrice",
          "type": "uint256"
        }
      ],
      "stateMutability": "view",
      "type": "function",
      "constant": true
    },
    {
      "inputs": [
        {
          "internalType": "uint256",
          "name": "",
          "type": "uint256"
        }
      ],
      "name": "tokensPrice",
      "outputs": [
        {
          "internalType": "uint256",
          "name": "",
          "type": "uint256"
        }
      ],
      "stateMutability": "view",
      "type": "function",
      "constant": true
    },
    {
      "inputs": [],
      "name": "totalTokenSupply",
      "outputs": [
        {
          "internalType": "uint256",
          "name": "",
          "type": "uint256"
        }
      ],
      "stateMutability": "view",
      "type": "function",
      "constant": true
    },
    {
      "inputs": [
        {
          "internalType": "address",
          "name": "from",
          "type": "address"
        },
        {
          "internalType": "address",
          "name": "to",
          "type": "address"
        },
        {
          "internalType": "uint256",
          "name": "tokenId",
          "type": "uint256"
        }
      ],
      "name": "transferFrom",
      "outputs": [],
      "stateMutability": "nonpayable",
      "type": "function"
    },
    {
      "inputs": [
        {
          "internalType": "address",
          "name": "newOwner",
          "type": "address"
        }
      ],
      "name": "transferOwnership",
      "outputs": [],
      "stateMutability": "nonpayable",
      "type": "function"
    },
    {
      "inputs": [
        {
          "internalType": "string",
          "name": "_tokenName",
          "type": "string"
        },
        {
          "internalType": "uint256",
          "name": "_tokenPrice",
          "type": "uint256"
        }
      ],
      "name": "mintToken",
      "outputs": [],
      "stateMutability": "nonpayable",
      "type": "function"
    },
    {
      "inputs": [
        {
          "internalType": "uint256",
          "name": "tokenId",
          "type": "uint256"
        },
        {
          "internalType": "address",
          "name": "_toAddress",
          "type": "address"
        }
      ],
      "name": "transferTokenOwnership",
      "outputs": [],
      "stateMutability": "payable",
      "type": "function",
      "payable": true
    },
    {
      "inputs": [
        {
          "internalType": "uint256",
          "name": "_tokenId",
          "type": "uint256"
        }
      ],
      "name": "getOwnerOfToken",
      "outputs": [
        {
          "internalType": "address",
          "name": "",
          "type": "address"
        }
      ],
      "stateMutability": "view",
      "type": "function",
      "constant": true
    },
    {
      "inputs": [
        {
          "internalType": "uint256",
          "name": "_tokenId",
          "type": "uint256"
        }
      ],
      "name": "tokenIsOnSale",
      "outputs": [
        {
          "internalType": "bool",
          "name": "",
          "type": "bool"
        }
      ],
      "stateMutability": "view",
      "type": "function",
      "constant": true
    },
    {
      "inputs": [
        {
          "internalType": "uint256",
          "name": "_tokenIndex",
          "type": "uint256"
        }
      ],
      "name": "fetchTokenByIndex",
      "outputs": [
        {
          "components": [
            {
              "internalType": "uint256",
              "name": "id",
              "type": "uint256"
            },
            {
              "internalType": "address",
              "name": "tokenOwner",
              "type": "address"
            },
            {
              "internalType": "string",
              "name": "tokenName",
              "type": "string"
            },
            {
              "internalType": "uint256",
              "name": "tokenPrice",
              "type": "uint256"
            }
          ],
          "internalType": "struct TicketNFT.NftToken",
          "name": "",
          "type": "tuple"
        }
      ],
      "stateMutability": "view",
      "type": "function",
      "constant": true
    },
    {
      "inputs": [
        {
          "internalType": "uint256",
          "name": "_tokenId",
          "type": "uint256"
        },
        {
          "internalType": "uint256",
          "name": "_listingPrice",
          "type": "uint256"
        }
      ],
      "name": "listNftForSale",
      "outputs": [],
      "stateMutability": "nonpayable",
      "type": "function"
    },
    {
      "inputs": [
        {
          "internalType": "uint256",
          "name": "tokenId",
          "type": "uint256"
        }
      ],
      "name": "buyNftToken",
      "outputs": [],
      "stateMutability": "payable",
      "type": "function",
      "payable": true
    }
  ],
  "bytecode": "0x60806040523480156200001157600080fd5b5060405180604001604052806011815260200170115d995b9d1cc813919508151a58dad95d607a1b815250604051806040016040528060048152602001631153919560e21b81525081600090816200006a919062000197565b50600162000079828262000197565b50505062000096620000906200009c60201b60201c565b620000a0565b62000263565b3390565b600780546001600160a01b038381166001600160a01b0319831681179093556040519116919082907f8be0079c531659141344cd1fd0a4f28419497f9722a3daafe3b4186f6b6457e090600090a35050565b634e487b7160e01b600052604160045260246000fd5b600181811c908216806200011d57607f821691505b6020821081036200013e57634e487b7160e01b600052602260045260246000fd5b50919050565b601f8211156200019257600081815260208120601f850160051c810160208610156200016d5750805b601f850160051c820191505b818110156200018e5782815560010162000179565b5050505b505050565b81516001600160401b03811115620001b357620001b3620000f2565b620001cb81620001c4845462000108565b8462000144565b602080601f831160018114620002035760008415620001ea5750858301515b600019600386901b1c1916600185901b1785556200018e565b600085815260208120601f198616915b82811015620002345788860151825594840194600190910190840162000213565b5085821015620002535787850151600019600388901b60f8161c191681555b5050505050600190811b01905550565b611f9280620002736000396000f3fe60806040526004361061019c5760003560e01c8063715018a6116100ec578063ba093ba61161008a578063da8cc6e811610064578063da8cc6e814610500578063e985e9c514610513578063e9cf64e614610533578063f2fde38b1461054657600080fd5b8063ba093ba614610493578063c046372c146104c0578063c87b56dd146104e057600080fd5b80638da5cb5b116100c65780638da5cb5b1461042057806395d89b411461043e578063a22cb46514610453578063b88d4fde1461047357600080fd5b8063715018a6146103a85780637f1dd80b146103bd578063854905b6146103f357600080fd5b80631ca8b6cb116101595780634f64b2be116101335780634f64b2be146103085780634fed1c94146103385780636352211e1461036857806370a082311461038857600080fd5b80631ca8b6cb146102a457806323b872dd146102c857806342842e0e146102e857600080fd5b806301ffc9a7146101a157806304f23309146101d657806306fdde03146101f8578063081812fc1461021a57806308d5ab4214610252578063095ea7b314610284575b600080fd5b3480156101ad57600080fd5b506101c16101bc36600461187e565b610566565b60405190151581526020015b60405180910390f35b3480156101e257600080fd5b506101f66101f136600461189b565b6105b8565b005b34801561020457600080fd5b5061020d61064d565b6040516101cd919061190d565b34801561022657600080fd5b5061023a610235366004611920565b6106df565b6040516001600160a01b0390911681526020016101cd565b34801561025e57600080fd5b506101c161026d366004611920565b600090815260096020526040902060030154151590565b34801561029057600080fd5b506101f661029f366004611955565b610706565b3480156102b057600080fd5b506102ba60085481565b6040519081526020016101cd565b3480156102d457600080fd5b506101f66102e336600461197f565b61081b565b3480156102f457600080fd5b506101f661030336600461197f565b61084c565b34801561031457600080fd5b50610328610323366004611920565b610867565b6040516101cd94939291906119bb565b34801561034457600080fd5b506101c1610353366004611920565b600b6020526000908152604090205460ff1681565b34801561037457600080fd5b5061023a610383366004611920565b610922565b34801561039457600080fd5b506102ba6103a33660046119f6565b610982565b3480156103b457600080fd5b506101f6610a08565b3480156103c957600080fd5b5061023a6103d8366004611920565b6000908152600a60205260409020546001600160a01b031690565b3480156103ff57600080fd5b506102ba61040e366004611920565b600c6020526000908152604090205481565b34801561042c57600080fd5b506007546001600160a01b031661023a565b34801561044a57600080fd5b5061020d610a1c565b34801561045f57600080fd5b506101f661046e366004611a11565b610a2b565b34801561047f57600080fd5b506101f661048e366004611ad9565b610a36565b34801561049f57600080fd5b506104b36104ae366004611920565b610a6e565b6040516101cd9190611b55565b3480156104cc57600080fd5b506101f66104db366004611ba3565b610b7f565b3480156104ec57600080fd5b5061020d6104fb366004611920565b610c18565b6101f661050e366004611920565b610d28565b34801561051f57600080fd5b506101c161052e366004611bfc565b610f78565b6101f6610541366004611c2f565b610fa6565b34801561055257600080fd5b506101f66105613660046119f6565b61103e565b60006001600160e01b031982166380ac58cd60e01b148061059757506001600160e01b03198216635b5e139f60e01b145b806105b257506301ffc9a760e01b6001600160e01b03198316145b92915050565b6000828152600a60205260409020546001600160a01b031633146106495760405162461bcd60e51b815260206004820152603760248201527f596f75206d75737420626520746865206f776e6572206f66207468697320746f60448201527f6b656e20746f206c69737420697420666f722073616c6500000000000000000060648201526084015b60405180910390fd5b5050565b60606000805461065c90611c52565b80601f016020809104026020016040519081016040528092919081815260200182805461068890611c52565b80156106d55780601f106106aa576101008083540402835291602001916106d5565b820191906000526020600020905b8154815290600101906020018083116106b857829003601f168201915b5050505050905090565b60006106ea826110b7565b506000908152600460205260409020546001600160a01b031690565b600061071182610922565b9050806001600160a01b0316836001600160a01b03160361077e5760405162461bcd60e51b815260206004820152602160248201527f4552433732313a20617070726f76616c20746f2063757272656e74206f776e656044820152603960f91b6064820152608401610640565b336001600160a01b038216148061079a575061079a8133610f78565b61080c5760405162461bcd60e51b815260206004820152603d60248201527f4552433732313a20617070726f76652063616c6c6572206973206e6f7420746f60448201527f6b656e206f776e6572206f7220617070726f76656420666f7220616c6c0000006064820152608401610640565b6108168383611116565b505050565b6108253382611184565b6108415760405162461bcd60e51b815260040161064090611c8c565b6108168383836111e2565b61081683838360405180602001604052806000815250610a36565b60096020526000908152604090208054600182015460028301805492936001600160a01b039092169261089990611c52565b80601f01602080910402602001604051908101604052809291908181526020018280546108c590611c52565b80156109125780601f106108e757610100808354040283529160200191610912565b820191906000526020600020905b8154815290600101906020018083116108f557829003601f168201915b5050505050908060030154905084565b6000818152600260205260408120546001600160a01b0316806105b25760405162461bcd60e51b8152602060048201526018602482015277115490cdcc8c4e881a5b9d985b1a59081d1bdad95b88125160421b6044820152606401610640565b60006001600160a01b0382166109ec5760405162461bcd60e51b815260206004820152602960248201527f4552433732313a2061646472657373207a65726f206973206e6f7420612076616044820152683634b21037bbb732b960b91b6064820152608401610640565b506001600160a01b031660009081526003602052604090205490565b610a10611353565b610a1a60006113ad565b565b60606001805461065c90611c52565b6106493383836113ff565b610a403383611184565b610a5c5760405162461bcd60e51b815260040161064090611c8c565b610a68848484846114cd565b50505050565b610aa260405180608001604052806000815260200160006001600160a01b0316815260200160608152602001600081525090565b60008281526009602090815260409182902082516080810184528154815260018201546001600160a01b0316928101929092526002810180549293919291840191610aec90611c52565b80601f0160208091040260200160405190810160405280929190818152602001828054610b1890611c52565b8015610b655780601f10610b3a57610100808354040283529160200191610b65565b820191906000526020600020905b815481529060010190602001808311610b4857829003601f168201915b505050505081526020016003820154815250509050919050565b6008805433916000610b9083611cef565b9091555050600854604080516080810182528281526001600160a01b03848116602080840191825283850189815260608501899052600087815260099092529490208351815590516001820180546001600160a01b031916919093161790915591519091906002820190610c049082611d56565b506060820151816003015590505050505050565b6060610c23826110b7565b60008281526006602052604081208054610c3c90611c52565b80601f0160208091040260200160405190810160405280929190818152602001828054610c6890611c52565b8015610cb55780601f10610c8a57610100808354040283529160200191610cb5565b820191906000526020600020905b815481529060010190602001808311610c9857829003601f168201915b505050505090506000610cd360408051602081019091526000815290565b90508051600003610ce5575092915050565b815115610d17578082604051602001610cff929190611e16565b60405160208183030381529060405292505050919050565b610d2084611500565b949350505050565b600081815260096020908152604080832081516080810183528154815260018201546001600160a01b0316938101939093526002810180549192840191610d6e90611c52565b80601f0160208091040260200160405190810160405280929190818152602001828054610d9a90611c52565b8015610de75780601f10610dbc57610100808354040283529160200191610de7565b820191906000526020600020905b815481529060010190602001808311610dca57829003601f168201915b505050918352505060039190910154602091820152818101516000858152600c90925260409091205491925090339082903414610e8c5760405162461bcd60e51b815260206004820152603c60248201527f5468652076616c7565206f6620746865206d7367206d7573742062652065717560448201527f616c20746f20746865207072696365206f662074686520746f6b656e000000006064820152608401610640565b34826001600160a01b0316311015610f0c5760405162461bcd60e51b815260206004820152603b60248201527f54686520746f6b656e20627579657220646f6573206e6f74206861766520656e60448201527f6f7567682066756e647320746f206275792074686520746f6b656e00000000006064820152608401610640565b6000858152600c60205260408082205490516001600160a01b0384169282156108fc02929190818181858888f19350505050158015610f4f573d6000803e3d6000fd5b50506001600160a01b0316602092830152506000918252600b905260409020805460ff19169055565b6001600160a01b03918216600090815260056020908152604080832093909416825291909152205460ff1690565b600082815260096020526040902060018101546001600160a01b0316331461101a5760405162461bcd60e51b815260206004820152602160248201527f596f7520646f206e6f74206f776e2074686973207469636b657420746f6b656e6044820152601760f91b6064820152608401610640565b60010180546001600160a01b0319166001600160a01b039290921691909117905550565b611046611353565b6001600160a01b0381166110ab5760405162461bcd60e51b815260206004820152602660248201527f4f776e61626c653a206e6577206f776e657220697320746865207a65726f206160448201526564647265737360d01b6064820152608401610640565b6110b4816113ad565b50565b6000818152600260205260409020546001600160a01b03166110b45760405162461bcd60e51b8152602060048201526018602482015277115490cdcc8c4e881a5b9d985b1a59081d1bdad95b88125160421b6044820152606401610640565b600081815260046020526040902080546001600160a01b0319166001600160a01b038416908117909155819061114b82610922565b6001600160a01b03167f8c5be1e5ebec7d5bd14f71427d1e84f3dd0314c0f7b2291e5b200ac8c7c3b92560405160405180910390a45050565b60008061119083610922565b9050806001600160a01b0316846001600160a01b031614806111b757506111b78185610f78565b80610d205750836001600160a01b03166111d0846106df565b6001600160a01b031614949350505050565b826001600160a01b03166111f582610922565b6001600160a01b03161461121b5760405162461bcd60e51b815260040161064090611e45565b6001600160a01b03821661127d5760405162461bcd60e51b8152602060048201526024808201527f4552433732313a207472616e7366657220746f20746865207a65726f206164646044820152637265737360e01b6064820152608401610640565b61128a8383836001611574565b826001600160a01b031661129d82610922565b6001600160a01b0316146112c35760405162461bcd60e51b815260040161064090611e45565b600081815260046020908152604080832080546001600160a01b03199081169091556001600160a01b0387811680865260038552838620805460001901905590871680865283862080546001019055868652600290945282852080549092168417909155905184937fddf252ad1be2c89b69c2b068fc378daa952ba7f163c4a11628f55a4df523b3ef91a4505050565b6007546001600160a01b03163314610a1a5760405162461bcd60e51b815260206004820181905260248201527f4f776e61626c653a2063616c6c6572206973206e6f7420746865206f776e65726044820152606401610640565b600780546001600160a01b038381166001600160a01b0319831681179093556040519116919082907f8be0079c531659141344cd1fd0a4f28419497f9722a3daafe3b4186f6b6457e090600090a35050565b816001600160a01b0316836001600160a01b0316036114605760405162461bcd60e51b815260206004820152601960248201527f4552433732313a20617070726f766520746f2063616c6c6572000000000000006044820152606401610640565b6001600160a01b03838116600081815260056020908152604080832094871680845294825291829020805460ff191686151590811790915591519182527f17307eab39ab6107e8899845ad3d59bd9653f200f220920489ca2b5937696c31910160405180910390a3505050565b6114d88484846111e2565b6114e4848484846115fc565b610a685760405162461bcd60e51b815260040161064090611e8a565b606061150b826110b7565b600061152260408051602081019091526000815290565b90506000815111611542576040518060200160405280600081525061156d565b8061154c846116fd565b60405160200161155d929190611e16565b6040516020818303038152906040525b9392505050565b6001811115610a68576001600160a01b038416156115ba576001600160a01b038416600090815260036020526040812080548392906115b4908490611edc565b90915550505b6001600160a01b03831615610a68576001600160a01b038316600090815260036020526040812080548392906115f1908490611eef565b909155505050505050565b60006001600160a01b0384163b156116f257604051630a85bd0160e11b81526001600160a01b0385169063150b7a0290611640903390899088908890600401611f02565b6020604051808303816000875af192505050801561167b575060408051601f3d908101601f1916820190925261167891810190611f3f565b60015b6116d8573d8080156116a9576040519150601f19603f3d011682016040523d82523d6000602084013e6116ae565b606091505b5080516000036116d05760405162461bcd60e51b815260040161064090611e8a565b805181602001fd5b6001600160e01b031916630a85bd0160e11b149050610d20565b506001949350505050565b6060600061170a83611790565b600101905060008167ffffffffffffffff81111561172a5761172a611a4d565b6040519080825280601f01601f191660200182016040528015611754576020820181803683370190505b5090508181016020015b600019016f181899199a1a9b1b9c1cb0b131b232b360811b600a86061a8153600a850494508461175e57509392505050565b60008072184f03e93ff9f4daa797ed6e38ed64bf6a1f0160401b83106117cf5772184f03e93ff9f4daa797ed6e38ed64bf6a1f0160401b830492506040015b6d04ee2d6d415b85acef810000000083106117fb576d04ee2d6d415b85acef8100000000830492506020015b662386f26fc10000831061181957662386f26fc10000830492506010015b6305f5e1008310611831576305f5e100830492506008015b612710831061184557612710830492506004015b60648310611857576064830492506002015b600a83106105b25760010192915050565b6001600160e01b0319811681146110b457600080fd5b60006020828403121561189057600080fd5b813561156d81611868565b600080604083850312156118ae57600080fd5b50508035926020909101359150565b60005b838110156118d85781810151838201526020016118c0565b50506000910152565b600081518084526118f98160208601602086016118bd565b601f01601f19169290920160200192915050565b60208152600061156d60208301846118e1565b60006020828403121561193257600080fd5b5035919050565b80356001600160a01b038116811461195057600080fd5b919050565b6000806040838503121561196857600080fd5b61197183611939565b946020939093013593505050565b60008060006060848603121561199457600080fd5b61199d84611939565b92506119ab60208501611939565b9150604084013590509250925092565b8481526001600160a01b03841660208201526080604082018190526000906119e5908301856118e1565b905082606083015295945050505050565b600060208284031215611a0857600080fd5b61156d82611939565b60008060408385031215611a2457600080fd5b611a2d83611939565b915060208301358015158114611a4257600080fd5b809150509250929050565b634e487b7160e01b600052604160045260246000fd5b600067ffffffffffffffff80841115611a7e57611a7e611a4d565b604051601f8501601f19908116603f01168101908282118183101715611aa657611aa6611a4d565b81604052809350858152868686011115611abf57600080fd5b858560208301376000602087830101525050509392505050565b60008060008060808587031215611aef57600080fd5b611af885611939565b9350611b0660208601611939565b925060408501359150606085013567ffffffffffffffff811115611b2957600080fd5b8501601f81018713611b3a57600080fd5b611b4987823560208401611a63565b91505092959194509250565b602081528151602082015260018060a01b0360208301511660408201526000604083015160806060840152611b8d60a08401826118e1565b9050606084015160808401528091505092915050565b60008060408385031215611bb657600080fd5b823567ffffffffffffffff811115611bcd57600080fd5b8301601f81018513611bde57600080fd5b611bed85823560208401611a63565b95602094909401359450505050565b60008060408385031215611c0f57600080fd5b611c1883611939565b9150611c2660208401611939565b90509250929050565b60008060408385031215611c4257600080fd5b82359150611c2660208401611939565b600181811c90821680611c6657607f821691505b602082108103611c8657634e487b7160e01b600052602260045260246000fd5b50919050565b6020808252602d908201527f4552433732313a2063616c6c6572206973206e6f7420746f6b656e206f776e6560408201526c1c881bdc88185c1c1c9bdd9959609a1b606082015260800190565b634e487b7160e01b600052601160045260246000fd5b600060018201611d0157611d01611cd9565b5060010190565b601f82111561081657600081815260208120601f850160051c81016020861015611d2f5750805b601f850160051c820191505b81811015611d4e57828155600101611d3b565b505050505050565b815167ffffffffffffffff811115611d7057611d70611a4d565b611d8481611d7e8454611c52565b84611d08565b602080601f831160018114611db95760008415611da15750858301515b600019600386901b1c1916600185901b178555611d4e565b600085815260208120601f198616915b82811015611de857888601518255948401946001909101908401611dc9565b5085821015611e065787850151600019600388901b60f8161c191681555b5050505050600190811b01905550565b60008351611e288184602088016118bd565b835190830190611e3c8183602088016118bd565b01949350505050565b60208082526025908201527f4552433732313a207472616e736665722066726f6d20696e636f72726563742060408201526437bbb732b960d91b606082015260800190565b60208082526032908201527f4552433732313a207472616e7366657220746f206e6f6e20455243373231526560408201527131b2b4bb32b91034b6b83632b6b2b73a32b960711b606082015260800190565b818103818111156105b2576105b2611cd9565b808201808211156105b2576105b2611cd9565b6001600160a01b0385811682528416602082015260408101839052608060608201819052600090611f35908301846118e1565b9695505050505050565b600060208284031215611f5157600080fd5b815161156d8161186856fea264697066735822122071482ce567ea2b23e1c9d43e96b91376cdb13402bd87dd2df4bf7431309172a764736f6c63430008110033",
  "immutableReferences": {},
  "source": "// SPDX-License-Identifier: MIT\npragma solidity ^0.8.7;\n\nimport \"../node_modules/@openzeppelin/contracts/token/ERC721/extensions/ERC721URIStorage.sol\";\nimport \"../node_modules/@openzeppelin/contracts/utils/Counters.sol\";\nimport \"../node_modules/@openzeppelin/contracts/token/ERC721/ERC721.sol\";\nimport \"../node_modules/@openzeppelin/contracts/access/Ownable.sol\";\n\ncontract TicketNFT is ERC721URIStorage, Ownable { // NFT Contract for Event Tickets\n    using Counters for Counters.Counter;\n\n    struct NftToken {\n        uint256 id;\n        address tokenOwner;\n        string tokenName;\n        uint256 tokenPrice;\n    }\n\n    uint256 public totalTokenSupply; // Total supply for the tokens\n\n    mapping (uint256 => NftToken) public tokens; // Create mapping between an Integer and the token struct (1 => Nft data, 2: Nft Data...)\n    mapping (uint256 => address) tokenOwner; // Store the owners of the NFT\n    mapping (uint256 => bool) public isTokenForSale;\n    mapping (uint256 => uint256) public tokensPrice;\n    mapping(string => bool) tokenNames;\n    \n    constructor() ERC721(\"Events NFT Ticket\", \"ENFT\") {}\n\n    function mintToken(string memory _tokenName, uint256 _tokenPrice) public {\n        address owner = msg.sender; // Store the address of the current owner of the token\n        totalTokenSupply++;\n\n        uint256 tokenId = totalTokenSupply;\n        tokens[tokenId] = NftToken(tokenId, owner, _tokenName, _tokenPrice);\n    }\n\n    function transferTokenOwnership(uint256 tokenId, address _toAddress) public payable {\n        NftToken storage nftToken = tokens[tokenId];\n        require(nftToken.tokenOwner == msg.sender, \"You do not own this ticket token.\");\n        nftToken.tokenOwner = _toAddress;\n    }\n\n    function getOwnerOfToken(uint256 _tokenId) public view returns (address) {\n        return tokenOwner[_tokenId];\n    }\n\n    function tokenIsOnSale(uint256 _tokenId) public view returns (bool) {\n        return tokens[_tokenId].tokenPrice > 0;\n  }\n\n    function fetchTokenByIndex(uint256 _tokenIndex) public view returns (NftToken memory) {\n        return tokens[_tokenIndex];\n    }\n\n    function listNftForSale(uint256 _tokenId, uint256 _listingPrice) public { // Function which will list the NFT for sale\n        require(getOwnerOfToken(_tokenId) == msg.sender, \"You must be the owner of this token to list it for sale\");\n    }\n\n    function buyNftToken(uint256 tokenId) public payable {\n        NftToken memory currToken = tokens[tokenId];\n        address currentTokenOwner = currToken.tokenOwner;\n        \n        address tokenBuyer = msg.sender; // Store the token buyer in msg.sender\n        address payable currentTokenOwnerPayable = payable(currentTokenOwner);\n\n        require(msg.value == tokensPrice[tokenId], \"The value of the msg must be equal to the price of the token\");\n        require(tokenBuyer.balance >= msg.value, \"The token buyer does not have enough funds to buy the token\");\n\n        currentTokenOwnerPayable.transfer(tokensPrice[tokenId]);\n        currToken.tokenOwner = tokenBuyer;\n        isTokenForSale[tokenId] = false;\n}\n\n}",
  "sourcePath": "/Users/sabin2000/Documents/ethertix/frontend/contracts/TicketNFT.sol",
  "compiler": {
    "name": "solc",
    "version": "0.8.17+commit.8df45f5f.Emscripten.clang"
  },
  "schemaVersion": "3.4.9",
  "updatedAt": "2023-02-11T12:50:29.906Z",
  "networkType": "ethereum",
  "devdoc": {
    "kind": "dev",
    "methods": {
      "approve(address,uint256)": {
        "details": "See {IERC721-approve}."
      },
      "balanceOf(address)": {
        "details": "See {IERC721-balanceOf}."
      },
      "getApproved(uint256)": {
        "details": "See {IERC721-getApproved}."
      },
      "isApprovedForAll(address,address)": {
        "details": "See {IERC721-isApprovedForAll}."
      },
      "name()": {
        "details": "See {IERC721Metadata-name}."
      },
      "owner()": {
        "details": "Returns the address of the current owner."
      },
      "ownerOf(uint256)": {
        "details": "See {IERC721-ownerOf}."
      },
      "renounceOwnership()": {
        "details": "Leaves the contract without owner. It will not be possible to call `onlyOwner` functions anymore. Can only be called by the current owner. NOTE: Renouncing ownership will leave the contract without an owner, thereby removing any functionality that is only available to the owner."
      },
      "safeTransferFrom(address,address,uint256)": {
        "details": "See {IERC721-safeTransferFrom}."
      },
      "safeTransferFrom(address,address,uint256,bytes)": {
        "details": "See {IERC721-safeTransferFrom}."
      },
      "setApprovalForAll(address,bool)": {
        "details": "See {IERC721-setApprovalForAll}."
      },
      "supportsInterface(bytes4)": {
        "details": "See {IERC165-supportsInterface}."
      },
      "symbol()": {
        "details": "See {IERC721Metadata-symbol}."
      },
      "tokenURI(uint256)": {
        "details": "See {IERC721Metadata-tokenURI}."
      },
      "transferFrom(address,address,uint256)": {
        "details": "See {IERC721-transferFrom}."
      },
      "transferOwnership(address)": {
        "details": "Transfers ownership of the contract to a new account (`newOwner`). Can only be called by the current owner."
      }
    },
    "version": 1
  },
  "userdoc": {
    "kind": "user",
    "methods": {},
    "version": 1
  }
}