{
  "contractName": "TicketNFT",
  "abi": [
    {
      "inputs": [],
      "stateMutability": "nonpayable",
      "type": "constructor"
    },
    {
      "anonymous": false,
      "inputs": [
        {
          "indexed": true,
          "internalType": "address",
          "name": "owner",
          "type": "address"
        },
        {
          "indexed": true,
          "internalType": "address",
          "name": "approved",
          "type": "address"
        },
        {
          "indexed": true,
          "internalType": "uint256",
          "name": "tokenId",
          "type": "uint256"
        }
      ],
      "name": "Approval",
      "type": "event"
    },
    {
      "anonymous": false,
      "inputs": [
        {
          "indexed": true,
          "internalType": "address",
          "name": "owner",
          "type": "address"
        },
        {
          "indexed": true,
          "internalType": "address",
          "name": "operator",
          "type": "address"
        },
        {
          "indexed": false,
          "internalType": "bool",
          "name": "approved",
          "type": "bool"
        }
      ],
      "name": "ApprovalForAll",
      "type": "event"
    },
    {
      "anonymous": false,
      "inputs": [
        {
          "indexed": false,
          "internalType": "uint256",
          "name": "_tokenId",
          "type": "uint256"
        }
      ],
      "name": "NewTokenMinted",
      "type": "event"
    },
    {
      "anonymous": false,
      "inputs": [
        {
          "indexed": false,
          "internalType": "uint256",
          "name": "tokenId",
          "type": "uint256"
        },
        {
          "indexed": false,
          "internalType": "address",
          "name": "newTokenOwner",
          "type": "address"
        },
        {
          "indexed": false,
          "internalType": "string",
          "name": "name",
          "type": "string"
        },
        {
          "indexed": false,
          "internalType": "uint256",
          "name": "price",
          "type": "uint256"
        }
      ],
      "name": "NftPurchased",
      "type": "event"
    },
    {
      "anonymous": false,
      "inputs": [
        {
          "indexed": true,
          "internalType": "address",
          "name": "previousOwner",
          "type": "address"
        },
        {
          "indexed": true,
          "internalType": "address",
          "name": "newOwner",
          "type": "address"
        }
      ],
      "name": "OwnershipTransferred",
      "type": "event"
    },
    {
      "anonymous": false,
      "inputs": [
        {
          "indexed": true,
          "internalType": "address",
          "name": "from",
          "type": "address"
        },
        {
          "indexed": true,
          "internalType": "address",
          "name": "to",
          "type": "address"
        },
        {
          "indexed": true,
          "internalType": "uint256",
          "name": "tokenId",
          "type": "uint256"
        }
      ],
      "name": "Transfer",
      "type": "event"
    },
    {
      "inputs": [
        {
          "internalType": "address",
          "name": "to",
          "type": "address"
        },
        {
          "internalType": "uint256",
          "name": "tokenId",
          "type": "uint256"
        }
      ],
      "name": "approve",
      "outputs": [],
      "stateMutability": "nonpayable",
      "type": "function"
    },
    {
      "inputs": [
        {
          "internalType": "address",
          "name": "owner",
          "type": "address"
        }
      ],
      "name": "balanceOf",
      "outputs": [
        {
          "internalType": "uint256",
          "name": "",
          "type": "uint256"
        }
      ],
      "stateMutability": "view",
      "type": "function"
    },
    {
      "inputs": [
        {
          "internalType": "uint256",
          "name": "",
          "type": "uint256"
        }
      ],
      "name": "circulatingTokens",
      "outputs": [
        {
          "internalType": "uint256",
          "name": "tokenId",
          "type": "uint256"
        },
        {
          "internalType": "address",
          "name": "tokenOwner",
          "type": "address"
        },
        {
          "internalType": "string",
          "name": "tokenName",
          "type": "string"
        },
        {
          "internalType": "uint256",
          "name": "tokenPrice",
          "type": "uint256"
        },
        {
          "internalType": "bool",
          "name": "isListed",
          "type": "bool"
        }
      ],
      "stateMutability": "view",
      "type": "function"
    },
    {
      "inputs": [
        {
          "internalType": "uint256",
          "name": "tokenId",
          "type": "uint256"
        }
      ],
      "name": "getApproved",
      "outputs": [
        {
          "internalType": "address",
          "name": "",
          "type": "address"
        }
      ],
      "stateMutability": "view",
      "type": "function"
    },
    {
      "inputs": [
        {
          "internalType": "address",
          "name": "owner",
          "type": "address"
        },
        {
          "internalType": "address",
          "name": "operator",
          "type": "address"
        }
      ],
      "name": "isApprovedForAll",
      "outputs": [
        {
          "internalType": "bool",
          "name": "",
          "type": "bool"
        }
      ],
      "stateMutability": "view",
      "type": "function"
    },
    {
      "inputs": [
        {
          "internalType": "uint256",
          "name": "",
          "type": "uint256"
        }
      ],
      "name": "isTokenForSale",
      "outputs": [
        {
          "internalType": "bool",
          "name": "",
          "type": "bool"
        }
      ],
      "stateMutability": "view",
      "type": "function"
    },
    {
      "inputs": [],
      "name": "name",
      "outputs": [
        {
          "internalType": "string",
          "name": "",
          "type": "string"
        }
      ],
      "stateMutability": "view",
      "type": "function"
    },
    {
      "inputs": [],
      "name": "owner",
      "outputs": [
        {
          "internalType": "address",
          "name": "",
          "type": "address"
        }
      ],
      "stateMutability": "view",
      "type": "function"
    },
    {
      "inputs": [
        {
          "internalType": "uint256",
          "name": "tokenId",
          "type": "uint256"
        }
      ],
      "name": "ownerOf",
      "outputs": [
        {
          "internalType": "address",
          "name": "",
          "type": "address"
        }
      ],
      "stateMutability": "view",
      "type": "function"
    },
    {
      "inputs": [],
      "name": "renounceOwnership",
      "outputs": [],
      "stateMutability": "nonpayable",
      "type": "function"
    },
    {
      "inputs": [
        {
          "internalType": "address",
          "name": "from",
          "type": "address"
        },
        {
          "internalType": "address",
          "name": "to",
          "type": "address"
        },
        {
          "internalType": "uint256",
          "name": "tokenId",
          "type": "uint256"
        }
      ],
      "name": "safeTransferFrom",
      "outputs": [],
      "stateMutability": "nonpayable",
      "type": "function"
    },
    {
      "inputs": [
        {
          "internalType": "address",
          "name": "from",
          "type": "address"
        },
        {
          "internalType": "address",
          "name": "to",
          "type": "address"
        },
        {
          "internalType": "uint256",
          "name": "tokenId",
          "type": "uint256"
        },
        {
          "internalType": "bytes",
          "name": "data",
          "type": "bytes"
        }
      ],
      "name": "safeTransferFrom",
      "outputs": [],
      "stateMutability": "nonpayable",
      "type": "function"
    },
    {
      "inputs": [
        {
          "internalType": "address",
          "name": "operator",
          "type": "address"
        },
        {
          "internalType": "bool",
          "name": "approved",
          "type": "bool"
        }
      ],
      "name": "setApprovalForAll",
      "outputs": [],
      "stateMutability": "nonpayable",
      "type": "function"
    },
    {
      "inputs": [
        {
          "internalType": "bytes4",
          "name": "interfaceId",
          "type": "bytes4"
        }
      ],
      "name": "supportsInterface",
      "outputs": [
        {
          "internalType": "bool",
          "name": "",
          "type": "bool"
        }
      ],
      "stateMutability": "view",
      "type": "function"
    },
    {
      "inputs": [],
      "name": "symbol",
      "outputs": [
        {
          "internalType": "string",
          "name": "",
          "type": "string"
        }
      ],
      "stateMutability": "view",
      "type": "function"
    },
    {
      "inputs": [
        {
          "internalType": "uint256",
          "name": "tokenId",
          "type": "uint256"
        }
      ],
      "name": "tokenURI",
      "outputs": [
        {
          "internalType": "string",
          "name": "",
          "type": "string"
        }
      ],
      "stateMutability": "view",
      "type": "function"
    },
    {
      "inputs": [
        {
          "internalType": "uint256",
          "name": "",
          "type": "uint256"
        }
      ],
      "name": "tokensPrice",
      "outputs": [
        {
          "internalType": "uint256",
          "name": "",
          "type": "uint256"
        }
      ],
      "stateMutability": "view",
      "type": "function"
    },
    {
      "inputs": [],
      "name": "totalTokenSupply",
      "outputs": [
        {
          "internalType": "uint256",
          "name": "",
          "type": "uint256"
        }
      ],
      "stateMutability": "view",
      "type": "function"
    },
    {
      "inputs": [
        {
          "internalType": "address",
          "name": "from",
          "type": "address"
        },
        {
          "internalType": "address",
          "name": "to",
          "type": "address"
        },
        {
          "internalType": "uint256",
          "name": "tokenId",
          "type": "uint256"
        }
      ],
      "name": "transferFrom",
      "outputs": [],
      "stateMutability": "nonpayable",
      "type": "function"
    },
    {
      "inputs": [
        {
          "internalType": "address",
          "name": "newOwner",
          "type": "address"
        }
      ],
      "name": "transferOwnership",
      "outputs": [],
      "stateMutability": "nonpayable",
      "type": "function"
    },
    {
      "inputs": [
        {
          "internalType": "string",
          "name": "_tokenName",
          "type": "string"
        },
        {
          "internalType": "uint256",
          "name": "_tokenPrice",
          "type": "uint256"
        }
      ],
      "name": "mintToken",
      "outputs": [
        {
          "internalType": "uint256",
          "name": "",
          "type": "uint256"
        }
      ],
      "stateMutability": "payable",
      "type": "function"
    },
    {
      "inputs": [
        {
          "internalType": "uint256",
          "name": "tokenId",
          "type": "uint256"
        },
        {
          "internalType": "address",
          "name": "_toAddress",
          "type": "address"
        }
      ],
      "name": "transferTokenOwnership",
      "outputs": [],
      "stateMutability": "payable",
      "type": "function"
    },
    {
      "inputs": [
        {
          "internalType": "uint256",
          "name": "_tokenId",
          "type": "uint256"
        }
      ],
      "name": "getOwnerOfToken",
      "outputs": [
        {
          "internalType": "address",
          "name": "",
          "type": "address"
        }
      ],
      "stateMutability": "view",
      "type": "function"
    },
    {
      "inputs": [
        {
          "internalType": "uint256",
          "name": "_tokenId",
          "type": "uint256"
        }
      ],
      "name": "tokenIsOnSale",
      "outputs": [
        {
          "internalType": "bool",
          "name": "",
          "type": "bool"
        }
      ],
      "stateMutability": "view",
      "type": "function"
    },
    {
      "inputs": [
        {
          "internalType": "uint256",
          "name": "_tokenIndex",
          "type": "uint256"
        }
      ],
      "name": "fetchTokenByIndex",
      "outputs": [
        {
          "components": [
            {
              "internalType": "uint256",
              "name": "tokenId",
              "type": "uint256"
            },
            {
              "internalType": "address",
              "name": "tokenOwner",
              "type": "address"
            },
            {
              "internalType": "string",
              "name": "tokenName",
              "type": "string"
            },
            {
              "internalType": "uint256",
              "name": "tokenPrice",
              "type": "uint256"
            },
            {
              "internalType": "bool",
              "name": "isListed",
              "type": "bool"
            }
          ],
          "internalType": "struct TicketNFT.NftToken",
          "name": "",
          "type": "tuple"
        }
      ],
      "stateMutability": "view",
      "type": "function"
    },
    {
      "inputs": [
        {
          "internalType": "uint256",
          "name": "_tokenId",
          "type": "uint256"
        },
        {
          "internalType": "uint256",
          "name": "_listingPrice",
          "type": "uint256"
        }
      ],
      "name": "listNftForSale",
      "outputs": [],
      "stateMutability": "nonpayable",
      "type": "function"
    },
    {
      "inputs": [
        {
          "internalType": "uint256",
          "name": "tokenId",
          "type": "uint256"
        }
      ],
      "name": "buyNftToken",
      "outputs": [],
      "stateMutability": "payable",
      "type": "function"
    }
  ],
  "bytecode": "0x60806040523480156200001157600080fd5b5060405180604001604052806011815260200170115d995b9d1cc813919508151a58dad95d607a1b815250604051806040016040528060048152602001631153919560e21b81525081600090816200006a919062000197565b50600162000079828262000197565b50505062000096620000906200009c60201b60201c565b620000a0565b62000263565b3390565b600780546001600160a01b038381166001600160a01b0319831681179093556040519116919082907f8be0079c531659141344cd1fd0a4f28419497f9722a3daafe3b4186f6b6457e090600090a35050565b634e487b7160e01b600052604160045260246000fd5b600181811c908216806200011d57607f821691505b6020821081036200013e57634e487b7160e01b600052602260045260246000fd5b50919050565b601f8211156200019257600081815260208120601f850160051c810160208610156200016d5750805b601f850160051c820191505b818110156200018e5782815560010162000179565b5050505b505050565b81516001600160401b03811115620001b357620001b3620000f2565b620001cb81620001c4845462000108565b8462000144565b602080601f831160018114620002035760008415620001ea5750858301515b600019600386901b1c1916600185901b1785556200018e565b600085815260208120601f198616915b82811015620002345788860151825594840194600190910190840162000213565b5085821015620002535787850151600019600388901b60f8161c191681555b5050505050600190811b01905550565b6120d280620002736000396000f3fe60806040526004361061019c5760003560e01c80637f1dd80b116100ec578063ba093ba61161008a578063da8cc6e811610064578063da8cc6e8146104f4578063e985e9c514610507578063e9cf64e614610550578063f2fde38b1461056357600080fd5b8063ba093ba614610494578063c046372c146104c1578063c87b56dd146104d457600080fd5b806395d89b41116100c657806395d89b411461040e5780639a65b72214610423578063a22cb46514610454578063b88d4fde1461047457600080fd5b80637f1dd80b1461038d578063854905b6146103c35780638da5cb5b146103f057600080fd5b80631ca8b6cb116101595780634fed1c94116101335780634fed1c94146103085780636352211e1461033857806370a0823114610358578063715018a61461037857600080fd5b80631ca8b6cb146102a457806323b872dd146102c857806342842e0e146102e857600080fd5b806301ffc9a7146101a157806304f23309146101d657806306fdde03146101f8578063081812fc1461021a57806308d5ab4214610252578063095ea7b314610284575b600080fd5b3480156101ad57600080fd5b506101c16101bc366004611993565b610583565b60405190151581526020015b60405180910390f35b3480156101e257600080fd5b506101f66101f13660046119b0565b6105d5565b005b34801561020457600080fd5b5061020d61067f565b6040516101cd9190611a22565b34801561022657600080fd5b5061023a610235366004611a35565b610711565b6040516001600160a01b0390911681526020016101cd565b34801561025e57600080fd5b506101c161026d366004611a35565b600090815260096020526040902060030154151590565b34801561029057600080fd5b506101f661029f366004611a6a565b610738565b3480156102b057600080fd5b506102ba60085481565b6040519081526020016101cd565b3480156102d457600080fd5b506101f66102e3366004611a94565b61084d565b3480156102f457600080fd5b506101f6610303366004611a94565b61087e565b34801561031457600080fd5b506101c1610323366004611a35565b600b6020526000908152604090205460ff1681565b34801561034457600080fd5b5061023a610353366004611a35565b610899565b34801561036457600080fd5b506102ba610373366004611ad0565b6108f9565b34801561038457600080fd5b506101f661097f565b34801561039957600080fd5b5061023a6103a8366004611a35565b6000908152600a60205260409020546001600160a01b031690565b3480156103cf57600080fd5b506102ba6103de366004611a35565b600c6020526000908152604090205481565b3480156103fc57600080fd5b506007546001600160a01b031661023a565b34801561041a57600080fd5b5061020d610993565b34801561042f57600080fd5b5061044361043e366004611a35565b6109a2565b6040516101cd959493929190611aeb565b34801561046057600080fd5b506101f661046f366004611b2e565b610a67565b34801561048057600080fd5b506101f661048f366004611bf6565b610a76565b3480156104a057600080fd5b506104b46104af366004611a35565b610aae565b6040516101cd9190611c72565b6102ba6104cf366004611ccc565b610bd7565b3480156104e057600080fd5b5061020d6104ef366004611a35565b610cc6565b6101f6610502366004611a35565b610dd6565b34801561051357600080fd5b506101c1610522366004611d25565b6001600160a01b03918216600090815260056020908152604080832093909416825291909152205460ff1690565b6101f661055e366004611d58565b61109b565b34801561056f57600080fd5b506101f661057e366004611ad0565b611133565b60006001600160e01b031982166380ac58cd60e01b14806105b457506001600160e01b03198216635b5e139f60e01b145b806105cf57506301ffc9a760e01b6001600160e01b03198316145b92915050565b6000828152600a60205260409020546001600160a01b031633146106665760405162461bcd60e51b815260206004820152603760248201527f596f75206d75737420626520746865206f776e6572206f66207468697320746f60448201527f6b656e20746f206c69737420697420666f722073616c6500000000000000000060648201526084015b60405180910390fd5b6008805490600061067683611d91565b91905055505050565b60606000805461068e90611da8565b80601f01602080910402602001604051908101604052809291908181526020018280546106ba90611da8565b80156107075780601f106106dc57610100808354040283529160200191610707565b820191906000526020600020905b8154815290600101906020018083116106ea57829003601f168201915b5050505050905090565b600061071c826111ac565b506000908152600460205260409020546001600160a01b031690565b600061074382610899565b9050806001600160a01b0316836001600160a01b0316036107b05760405162461bcd60e51b815260206004820152602160248201527f4552433732313a20617070726f76616c20746f2063757272656e74206f776e656044820152603960f91b606482015260840161065d565b336001600160a01b03821614806107cc57506107cc8133610522565b61083e5760405162461bcd60e51b815260206004820152603d60248201527f4552433732313a20617070726f76652063616c6c6572206973206e6f7420746f60448201527f6b656e206f776e6572206f7220617070726f76656420666f7220616c6c000000606482015260840161065d565b610848838361120b565b505050565b6108573382611279565b6108735760405162461bcd60e51b815260040161065d90611de2565b6108488383836112f7565b61084883838360405180602001604052806000815250610a76565b6000818152600260205260408120546001600160a01b0316806105cf5760405162461bcd60e51b8152602060048201526018602482015277115490cdcc8c4e881a5b9d985b1a59081d1bdad95b88125160421b604482015260640161065d565b60006001600160a01b0382166109635760405162461bcd60e51b815260206004820152602960248201527f4552433732313a2061646472657373207a65726f206973206e6f7420612076616044820152683634b21037bbb732b960b91b606482015260840161065d565b506001600160a01b031660009081526003602052604090205490565b610987611468565b61099160006114c2565b565b60606001805461068e90611da8565b60096020526000908152604090208054600182015460028301805492936001600160a01b03909216926109d490611da8565b80601f0160208091040260200160405190810160405280929190818152602001828054610a0090611da8565b8015610a4d5780601f10610a2257610100808354040283529160200191610a4d565b820191906000526020600020905b815481529060010190602001808311610a3057829003601f168201915b50505050600383015460049093015491929160ff16905085565b610a72338383611514565b5050565b610a803383611279565b610a9c5760405162461bcd60e51b815260040161065d90611de2565b610aa8848484846115e2565b50505050565b610aeb6040518060a001604052806000815260200160006001600160a01b0316815260200160608152602001600081526020016000151581525090565b600082815260096020908152604091829020825160a0810184528154815260018201546001600160a01b0316928101929092526002810180549293919291840191610b3590611da8565b80601f0160208091040260200160405190810160405280929190818152602001828054610b6190611da8565b8015610bae5780601f10610b8357610100808354040283529160200191610bae565b820191906000526020600020905b815481529060010190602001808311610b9157829003601f168201915b50505091835250506003820154602082015260049091015460ff16151560409091015292915050565b6008805460009133919083610beb83611e2f565b90915550506008546040805160a0810182528281526001600160a01b0384811660208084019182528385018a8152606085018a905260006080860181905287815260099092529490208351815590516001820180546001600160a01b031916919093161790915591519091906002820190610c669082611e96565b50606082015160038201556080909101516004909101805460ff19169115159190911790556040518181527ffa1f1c46f96656e5cd3a96cec39616adf4f55f5078c8dc2fbfb9226289a1622d9060200160405180910390a1949350505050565b6060610cd1826111ac565b60008281526006602052604081208054610cea90611da8565b80601f0160208091040260200160405190810160405280929190818152602001828054610d1690611da8565b8015610d635780601f10610d3857610100808354040283529160200191610d63565b820191906000526020600020905b815481529060010190602001808311610d4657829003601f168201915b505050505090506000610d8160408051602081019091526000815290565b90508051600003610d93575092915050565b815115610dc5578082604051602001610dad929190611f56565b60405160208183030381529060405292505050919050565b610dce84611615565b949350505050565b6000818152600a602052604090205433906001600160a01b0316610e3c5760405162461bcd60e51b815260206004820152601d60248201527f546865204e46542068617320616c7265616479206265656e20736f6c64000000604482015260640161065d565b6000828152600c60205260409020543414610ebf5760405162461bcd60e51b815260206004820152603c60248201527f5468652076616c7565206f6620746865206d7367206d7573742062652065717560448201527f616c20746f20746865207072696365206f662074686520746f6b656e00000000606482015260840161065d565b34816001600160a01b0316311015610f3f5760405162461bcd60e51b815260206004820152603b60248201527f54686520746f6b656e20627579657220646f6573206e6f74206861766520656e60448201527f6f7567682066756e647320746f206275792074686520746f6b656e0000000000606482015260840161065d565b6000828152600960209081526040808320815160a0810183528154815260018201546001600160a01b0316938101939093526002810180549192840191610f8590611da8565b80601f0160208091040260200160405190810160405280929190818152602001828054610fb190611da8565b8015610ffe5780601f10610fd357610100808354040283529160200191610ffe565b820191906000526020600020905b815481529060010190602001808311610fe157829003601f168201915b5050509183525050600382015460208083019190915260049092015460ff161515604091820152828201516000878152600c9093528183205491519394509283926001600160a01b0384169280156108fc02929091818181858888f19350505050158015611070573d6000803e3d6000fd5b5050506001600160a01b039091166020918201526000918252600b905260409020805460ff19169055565b600082815260096020526040902060018101546001600160a01b0316331461110f5760405162461bcd60e51b815260206004820152602160248201527f596f7520646f206e6f74206f776e2074686973207469636b657420746f6b656e6044820152601760f91b606482015260840161065d565b60010180546001600160a01b0319166001600160a01b039290921691909117905550565b61113b611468565b6001600160a01b0381166111a05760405162461bcd60e51b815260206004820152602660248201527f4f776e61626c653a206e6577206f776e657220697320746865207a65726f206160448201526564647265737360d01b606482015260840161065d565b6111a9816114c2565b50565b6000818152600260205260409020546001600160a01b03166111a95760405162461bcd60e51b8152602060048201526018602482015277115490cdcc8c4e881a5b9d985b1a59081d1bdad95b88125160421b604482015260640161065d565b600081815260046020526040902080546001600160a01b0319166001600160a01b038416908117909155819061124082610899565b6001600160a01b03167f8c5be1e5ebec7d5bd14f71427d1e84f3dd0314c0f7b2291e5b200ac8c7c3b92560405160405180910390a45050565b60008061128583610899565b9050806001600160a01b0316846001600160a01b031614806112cc57506001600160a01b0380821660009081526005602090815260408083209388168352929052205460ff165b80610dce5750836001600160a01b03166112e584610711565b6001600160a01b031614949350505050565b826001600160a01b031661130a82610899565b6001600160a01b0316146113305760405162461bcd60e51b815260040161065d90611f85565b6001600160a01b0382166113925760405162461bcd60e51b8152602060048201526024808201527f4552433732313a207472616e7366657220746f20746865207a65726f206164646044820152637265737360e01b606482015260840161065d565b61139f8383836001611689565b826001600160a01b03166113b282610899565b6001600160a01b0316146113d85760405162461bcd60e51b815260040161065d90611f85565b600081815260046020908152604080832080546001600160a01b03199081169091556001600160a01b0387811680865260038552838620805460001901905590871680865283862080546001019055868652600290945282852080549092168417909155905184937fddf252ad1be2c89b69c2b068fc378daa952ba7f163c4a11628f55a4df523b3ef91a4505050565b6007546001600160a01b031633146109915760405162461bcd60e51b815260206004820181905260248201527f4f776e61626c653a2063616c6c6572206973206e6f7420746865206f776e6572604482015260640161065d565b600780546001600160a01b038381166001600160a01b0319831681179093556040519116919082907f8be0079c531659141344cd1fd0a4f28419497f9722a3daafe3b4186f6b6457e090600090a35050565b816001600160a01b0316836001600160a01b0316036115755760405162461bcd60e51b815260206004820152601960248201527f4552433732313a20617070726f766520746f2063616c6c657200000000000000604482015260640161065d565b6001600160a01b03838116600081815260056020908152604080832094871680845294825291829020805460ff191686151590811790915591519182527f17307eab39ab6107e8899845ad3d59bd9653f200f220920489ca2b5937696c31910160405180910390a3505050565b6115ed8484846112f7565b6115f984848484611711565b610aa85760405162461bcd60e51b815260040161065d90611fca565b6060611620826111ac565b600061163760408051602081019091526000815290565b905060008151116116575760405180602001604052806000815250611682565b8061166184611812565b604051602001611672929190611f56565b6040516020818303038152906040525b9392505050565b6001811115610aa8576001600160a01b038416156116cf576001600160a01b038416600090815260036020526040812080548392906116c990849061201c565b90915550505b6001600160a01b03831615610aa8576001600160a01b0383166000908152600360205260408120805483929061170690849061202f565b909155505050505050565b60006001600160a01b0384163b1561180757604051630a85bd0160e11b81526001600160a01b0385169063150b7a0290611755903390899088908890600401612042565b6020604051808303816000875af1925050508015611790575060408051601f3d908101601f1916820190925261178d9181019061207f565b60015b6117ed573d8080156117be576040519150601f19603f3d011682016040523d82523d6000602084013e6117c3565b606091505b5080516000036117e55760405162461bcd60e51b815260040161065d90611fca565b805181602001fd5b6001600160e01b031916630a85bd0160e11b149050610dce565b506001949350505050565b6060600061181f836118a5565b600101905060008167ffffffffffffffff81111561183f5761183f611b6a565b6040519080825280601f01601f191660200182016040528015611869576020820181803683370190505b5090508181016020015b600019016f181899199a1a9b1b9c1cb0b131b232b360811b600a86061a8153600a850494508461187357509392505050565b60008072184f03e93ff9f4daa797ed6e38ed64bf6a1f0160401b83106118e45772184f03e93ff9f4daa797ed6e38ed64bf6a1f0160401b830492506040015b6d04ee2d6d415b85acef81000000008310611910576d04ee2d6d415b85acef8100000000830492506020015b662386f26fc10000831061192e57662386f26fc10000830492506010015b6305f5e1008310611946576305f5e100830492506008015b612710831061195a57612710830492506004015b6064831061196c576064830492506002015b600a83106105cf5760010192915050565b6001600160e01b0319811681146111a957600080fd5b6000602082840312156119a557600080fd5b81356116828161197d565b600080604083850312156119c357600080fd5b50508035926020909101359150565b60005b838110156119ed5781810151838201526020016119d5565b50506000910152565b60008151808452611a0e8160208601602086016119d2565b601f01601f19169290920160200192915050565b60208152600061168260208301846119f6565b600060208284031215611a4757600080fd5b5035919050565b80356001600160a01b0381168114611a6557600080fd5b919050565b60008060408385031215611a7d57600080fd5b611a8683611a4e565b946020939093013593505050565b600080600060608486031215611aa957600080fd5b611ab284611a4e565b9250611ac060208501611a4e565b9150604084013590509250925092565b600060208284031215611ae257600080fd5b61168282611a4e565b8581526001600160a01b038516602082015260a060408201819052600090611b15908301866119f6565b6060830194909452509015156080909101529392505050565b60008060408385031215611b4157600080fd5b611b4a83611a4e565b915060208301358015158114611b5f57600080fd5b809150509250929050565b634e487b7160e01b600052604160045260246000fd5b600067ffffffffffffffff80841115611b9b57611b9b611b6a565b604051601f8501601f19908116603f01168101908282118183101715611bc357611bc3611b6a565b81604052809350858152868686011115611bdc57600080fd5b858560208301376000602087830101525050509392505050565b60008060008060808587031215611c0c57600080fd5b611c1585611a4e565b9350611c2360208601611a4e565b925060408501359150606085013567ffffffffffffffff811115611c4657600080fd5b8501601f81018713611c5757600080fd5b611c6687823560208401611b80565b91505092959194509250565b602081528151602082015260018060a01b0360208301511660408201526000604083015160a06060840152611caa60c08401826119f6565b9050606084015160808401526080840151151560a08401528091505092915050565b60008060408385031215611cdf57600080fd5b823567ffffffffffffffff811115611cf657600080fd5b8301601f81018513611d0757600080fd5b611d1685823560208401611b80565b95602094909401359450505050565b60008060408385031215611d3857600080fd5b611d4183611a4e565b9150611d4f60208401611a4e565b90509250929050565b60008060408385031215611d6b57600080fd5b82359150611d4f60208401611a4e565b634e487b7160e01b600052601160045260246000fd5b600081611da057611da0611d7b565b506000190190565b600181811c90821680611dbc57607f821691505b602082108103611ddc57634e487b7160e01b600052602260045260246000fd5b50919050565b6020808252602d908201527f4552433732313a2063616c6c6572206973206e6f7420746f6b656e206f776e6560408201526c1c881bdc88185c1c1c9bdd9959609a1b606082015260800190565b600060018201611e4157611e41611d7b565b5060010190565b601f82111561084857600081815260208120601f850160051c81016020861015611e6f5750805b601f850160051c820191505b81811015611e8e57828155600101611e7b565b505050505050565b815167ffffffffffffffff811115611eb057611eb0611b6a565b611ec481611ebe8454611da8565b84611e48565b602080601f831160018114611ef95760008415611ee15750858301515b600019600386901b1c1916600185901b178555611e8e565b600085815260208120601f198616915b82811015611f2857888601518255948401946001909101908401611f09565b5085821015611f465787850151600019600388901b60f8161c191681555b5050505050600190811b01905550565b60008351611f688184602088016119d2565b835190830190611f7c8183602088016119d2565b01949350505050565b60208082526025908201527f4552433732313a207472616e736665722066726f6d20696e636f72726563742060408201526437bbb732b960d91b606082015260800190565b60208082526032908201527f4552433732313a207472616e7366657220746f206e6f6e20455243373231526560408201527131b2b4bb32b91034b6b83632b6b2b73a32b960711b606082015260800190565b818103818111156105cf576105cf611d7b565b808201808211156105cf576105cf611d7b565b6001600160a01b0385811682528416602082015260408101839052608060608201819052600090612075908301846119f6565b9695505050505050565b60006020828403121561209157600080fd5b81516116828161197d56fea26469706673582212202141b70b984d51412c69a7d574a597d912f4cf1258f0541a79332f6d2be5920e64736f6c63430008110033",
  "immutableReferences": {},
  "source": "// SPDX-License-Identifier: MIT\npragma solidity ^0.8.7;\n\nimport \"../node_modules/@openzeppelin/contracts/token/ERC721/extensions/ERC721URIStorage.sol\";\nimport \"../node_modules/@openzeppelin/contracts/utils/Counters.sol\";\nimport \"../node_modules/@openzeppelin/contracts/token/ERC721/ERC721.sol\";\nimport \"../node_modules/@openzeppelin/contracts/access/Ownable.sol\";\n\ncontract TicketNFT is ERC721URIStorage, Ownable { // NFT Contract for Event Tickets\n    using Counters for Counters.Counter;\n\n    struct NftToken {\n        uint256 tokenId;\n        address tokenOwner;\n        string tokenName;\n        uint256 tokenPrice;\n        bool isListed;\n    }\n\n    uint256 public totalTokenSupply; // Total supply for the tokens\n\n    mapping (uint256 => NftToken) public circulatingTokens; // Create mapping between an Integer and the token struct (1 => Nft data, 2: Nft Data...)\n    mapping (uint256 => address) tokenOwner; // Store the owners of the NFT\n\n    mapping (uint256 => bool) public isTokenForSale;\n    mapping (uint256 => uint256) public tokensPrice;\n    mapping(string => bool) tokenNames;\n\n    event NewTokenMinted(uint256 _tokenId);\n\n    event NftPurchased ( // NFT Purchased\n        uint tokenId,\n        address newTokenOwner,\n        string name,\n        uint price\n    );\n    \n    constructor() ERC721(\"Events NFT Ticket\", \"ENFT\") {}\n\n    function mintToken(string memory _tokenName, uint256 _tokenPrice) public payable returns (uint) {\n        address owner = msg.sender; // Store the address of the current owner of the token\n        totalTokenSupply++;\n\n        uint256 newTokenId = totalTokenSupply;\n        circulatingTokens[newTokenId] = NftToken(newTokenId, owner, _tokenName, _tokenPrice, false);\n\n        emit NewTokenMinted(newTokenId);\n\n        return newTokenId; // Return the newly created ID\n    }\n\n    function transferTokenOwnership(uint256 tokenId, address _toAddress) public payable {\n        NftToken storage nftToken = circulatingTokens[tokenId];\n        require(nftToken.tokenOwner == msg.sender, \"You do not own this ticket token.\");\n        nftToken.tokenOwner = _toAddress;\n    }\n\n    function getOwnerOfToken(uint256 _tokenId) public view returns (address) {\n        return tokenOwner[_tokenId];\n    }\n\n    function tokenIsOnSale(uint256 _tokenId) public view returns (bool) {\n        return circulatingTokens[_tokenId].tokenPrice > 0;\n  }\n\n    function fetchTokenByIndex(uint256 _tokenIndex) public view returns (NftToken memory) {\n        return circulatingTokens[_tokenIndex];\n    }\n\n    function listNftForSale(uint256 _tokenId, uint256 _listingPrice) public { // Function which will list the NFT for sale\n        require(getOwnerOfToken(_tokenId) == msg.sender, \"You must be the owner of this token to list it for sale\");\n\n        totalTokenSupply--;\n    }\n\n    function buyNftToken(uint256 tokenId) public payable {\n        address tokenBuyer = msg.sender; // Store the token buyer in msg.sender\n        require(tokenOwner[tokenId] != address(0), \"The NFT has already been sold\");\n\n        require(msg.value == tokensPrice[tokenId], \"The value of the msg must be equal to the price of the token\");\n        require(tokenBuyer.balance >= msg.value, \"The token buyer does not have enough funds to buy the token\");\n\n        NftToken memory currentToken = circulatingTokens[tokenId];\n        address currentTokenOwner = currentToken.tokenOwner;\n        address payable currentTokenOwnerPayable = payable(currentTokenOwner);\n\n        currentTokenOwnerPayable.transfer(tokensPrice[tokenId]);\n        currentToken.tokenOwner = tokenBuyer;\n        isTokenForSale[tokenId] = false;\n}\n\n}",
  "sourcePath": "/Users/sabin2000/Documents/ethertix/frontend/contracts/TicketNFT.sol",
  "compiler": {
    "name": "solc",
    "version": "0.8.17+commit.8df45f5f.Emscripten.clang"
  },
  "schemaVersion": "3.4.9",
  "updatedAt": "2023-02-11T13:43:25.734Z",
  "devdoc": {
    "kind": "dev",
    "methods": {
      "approve(address,uint256)": {
        "details": "See {IERC721-approve}."
      },
      "balanceOf(address)": {
        "details": "See {IERC721-balanceOf}."
      },
      "getApproved(uint256)": {
        "details": "See {IERC721-getApproved}."
      },
      "isApprovedForAll(address,address)": {
        "details": "See {IERC721-isApprovedForAll}."
      },
      "name()": {
        "details": "See {IERC721Metadata-name}."
      },
      "owner()": {
        "details": "Returns the address of the current owner."
      },
      "ownerOf(uint256)": {
        "details": "See {IERC721-ownerOf}."
      },
      "renounceOwnership()": {
        "details": "Leaves the contract without owner. It will not be possible to call `onlyOwner` functions anymore. Can only be called by the current owner. NOTE: Renouncing ownership will leave the contract without an owner, thereby removing any functionality that is only available to the owner."
      },
      "safeTransferFrom(address,address,uint256)": {
        "details": "See {IERC721-safeTransferFrom}."
      },
      "safeTransferFrom(address,address,uint256,bytes)": {
        "details": "See {IERC721-safeTransferFrom}."
      },
      "setApprovalForAll(address,bool)": {
        "details": "See {IERC721-setApprovalForAll}."
      },
      "supportsInterface(bytes4)": {
        "details": "See {IERC165-supportsInterface}."
      },
      "symbol()": {
        "details": "See {IERC721Metadata-symbol}."
      },
      "tokenURI(uint256)": {
        "details": "See {IERC721Metadata-tokenURI}."
      },
      "transferFrom(address,address,uint256)": {
        "details": "See {IERC721-transferFrom}."
      },
      "transferOwnership(address)": {
        "details": "Transfers ownership of the contract to a new account (`newOwner`). Can only be called by the current owner."
      }
    },
    "version": 1
  },
  "userdoc": {
    "kind": "user",
    "methods": {},
    "version": 1
  }
}