{
  "contractName": "TicketNFT",
  "abi": [
    {
      "inputs": [],
      "stateMutability": "nonpayable",
      "type": "constructor"
    },
    {
      "anonymous": false,
      "inputs": [
        {
          "indexed": true,
          "internalType": "address",
          "name": "owner",
          "type": "address"
        },
        {
          "indexed": true,
          "internalType": "address",
          "name": "approved",
          "type": "address"
        },
        {
          "indexed": true,
          "internalType": "uint256",
          "name": "tokenId",
          "type": "uint256"
        }
      ],
      "name": "Approval",
      "type": "event"
    },
    {
      "anonymous": false,
      "inputs": [
        {
          "indexed": true,
          "internalType": "address",
          "name": "owner",
          "type": "address"
        },
        {
          "indexed": true,
          "internalType": "address",
          "name": "operator",
          "type": "address"
        },
        {
          "indexed": false,
          "internalType": "bool",
          "name": "approved",
          "type": "bool"
        }
      ],
      "name": "ApprovalForAll",
      "type": "event"
    },
    {
      "anonymous": false,
      "inputs": [
        {
          "indexed": false,
          "internalType": "uint256",
          "name": "tokenId",
          "type": "uint256"
        },
        {
          "indexed": false,
          "internalType": "string",
          "name": "tokenName",
          "type": "string"
        },
        {
          "indexed": false,
          "internalType": "string",
          "name": "tokenClass",
          "type": "string"
        },
        {
          "indexed": false,
          "internalType": "uint256",
          "name": "tokenPrice",
          "type": "uint256"
        },
        {
          "indexed": false,
          "internalType": "uint256",
          "name": "tokenCapacity",
          "type": "uint256"
        },
        {
          "indexed": false,
          "internalType": "bool",
          "name": "isListed",
          "type": "bool"
        },
        {
          "components": [
            {
              "internalType": "uint256",
              "name": "tokenId",
              "type": "uint256"
            },
            {
              "internalType": "address",
              "name": "tokenOwner",
              "type": "address"
            },
            {
              "internalType": "string",
              "name": "tokenName",
              "type": "string"
            },
            {
              "internalType": "uint256",
              "name": "tokenPrice",
              "type": "uint256"
            },
            {
              "internalType": "uint256",
              "name": "tokenCapacity",
              "type": "uint256"
            },
            {
              "internalType": "string",
              "name": "tokenClass",
              "type": "string"
            },
            {
              "internalType": "bool",
              "name": "isListedForSale",
              "type": "bool"
            },
            {
              "internalType": "uint256",
              "name": "tokenIndex",
              "type": "uint256"
            }
          ],
          "indexed": false,
          "internalType": "struct TicketNFT.NftToken[]",
          "name": "allMintedTokens",
          "type": "tuple[]"
        }
      ],
      "name": "NewTokenMinted",
      "type": "event"
    },
    {
      "anonymous": false,
      "inputs": [
        {
          "indexed": false,
          "internalType": "uint256",
          "name": "tokenId",
          "type": "uint256"
        },
        {
          "indexed": false,
          "internalType": "uint256",
          "name": "listingPrice",
          "type": "uint256"
        }
      ],
      "name": "NftListedForSale",
      "type": "event"
    },
    {
      "anonymous": false,
      "inputs": [
        {
          "indexed": false,
          "internalType": "uint256",
          "name": "tokenId",
          "type": "uint256"
        },
        {
          "indexed": false,
          "internalType": "address",
          "name": "oldTokenOwnerAddress",
          "type": "address"
        },
        {
          "indexed": false,
          "internalType": "address",
          "name": "newTokenOwnerAddress",
          "type": "address"
        }
      ],
      "name": "NftOwnershipTransferEvent",
      "type": "event"
    },
    {
      "anonymous": false,
      "inputs": [
        {
          "indexed": false,
          "internalType": "uint256",
          "name": "tokenId",
          "type": "uint256"
        },
        {
          "indexed": false,
          "internalType": "address",
          "name": "newTokenOwner",
          "type": "address"
        },
        {
          "indexed": false,
          "internalType": "string",
          "name": "tokenName",
          "type": "string"
        },
        {
          "indexed": false,
          "internalType": "uint256",
          "name": "tokenPrice",
          "type": "uint256"
        }
      ],
      "name": "NftPurchased",
      "type": "event"
    },
    {
      "anonymous": false,
      "inputs": [
        {
          "indexed": false,
          "internalType": "address",
          "name": "currentOwner",
          "type": "address"
        }
      ],
      "name": "OwnerBalanceRetrieved",
      "type": "event"
    },
    {
      "anonymous": false,
      "inputs": [
        {
          "indexed": true,
          "internalType": "address",
          "name": "previousOwner",
          "type": "address"
        },
        {
          "indexed": true,
          "internalType": "address",
          "name": "newOwner",
          "type": "address"
        }
      ],
      "name": "OwnershipTransferred",
      "type": "event"
    },
    {
      "anonymous": false,
      "inputs": [
        {
          "indexed": false,
          "internalType": "uint256",
          "name": "tokenId",
          "type": "uint256"
        },
        {
          "indexed": false,
          "internalType": "uint256",
          "name": "newTotalSupply",
          "type": "uint256"
        }
      ],
      "name": "TokenBurned",
      "type": "event"
    },
    {
      "anonymous": false,
      "inputs": [
        {
          "indexed": true,
          "internalType": "address",
          "name": "from",
          "type": "address"
        },
        {
          "indexed": true,
          "internalType": "address",
          "name": "to",
          "type": "address"
        },
        {
          "indexed": true,
          "internalType": "uint256",
          "name": "tokenId",
          "type": "uint256"
        }
      ],
      "name": "Transfer",
      "type": "event"
    },
    {
      "inputs": [
        {
          "internalType": "uint256",
          "name": "",
          "type": "uint256"
        }
      ],
      "name": "allMintedTokens",
      "outputs": [
        {
          "internalType": "uint256",
          "name": "tokenId",
          "type": "uint256"
        },
        {
          "internalType": "address",
          "name": "tokenOwner",
          "type": "address"
        },
        {
          "internalType": "string",
          "name": "tokenName",
          "type": "string"
        },
        {
          "internalType": "uint256",
          "name": "tokenPrice",
          "type": "uint256"
        },
        {
          "internalType": "uint256",
          "name": "tokenCapacity",
          "type": "uint256"
        },
        {
          "internalType": "string",
          "name": "tokenClass",
          "type": "string"
        },
        {
          "internalType": "bool",
          "name": "isListedForSale",
          "type": "bool"
        },
        {
          "internalType": "uint256",
          "name": "tokenIndex",
          "type": "uint256"
        }
      ],
      "stateMutability": "view",
      "type": "function",
      "constant": true
    },
    {
      "inputs": [
        {
          "internalType": "address",
          "name": "to",
          "type": "address"
        },
        {
          "internalType": "uint256",
          "name": "tokenId",
          "type": "uint256"
        }
      ],
      "name": "approve",
      "outputs": [],
      "stateMutability": "nonpayable",
      "type": "function"
    },
    {
      "inputs": [
        {
          "internalType": "address",
          "name": "owner",
          "type": "address"
        }
      ],
      "name": "balanceOf",
      "outputs": [
        {
          "internalType": "uint256",
          "name": "",
          "type": "uint256"
        }
      ],
      "stateMutability": "view",
      "type": "function",
      "constant": true
    },
    {
      "inputs": [
        {
          "internalType": "uint256",
          "name": "",
          "type": "uint256"
        }
      ],
      "name": "circulatingTokens",
      "outputs": [
        {
          "internalType": "uint256",
          "name": "tokenId",
          "type": "uint256"
        },
        {
          "internalType": "address",
          "name": "tokenOwner",
          "type": "address"
        },
        {
          "internalType": "string",
          "name": "tokenName",
          "type": "string"
        },
        {
          "internalType": "uint256",
          "name": "tokenPrice",
          "type": "uint256"
        },
        {
          "internalType": "uint256",
          "name": "tokenCapacity",
          "type": "uint256"
        },
        {
          "internalType": "string",
          "name": "tokenClass",
          "type": "string"
        },
        {
          "internalType": "bool",
          "name": "isListedForSale",
          "type": "bool"
        },
        {
          "internalType": "uint256",
          "name": "tokenIndex",
          "type": "uint256"
        }
      ],
      "stateMutability": "view",
      "type": "function",
      "constant": true
    },
    {
      "inputs": [
        {
          "internalType": "uint256",
          "name": "tokenId",
          "type": "uint256"
        }
      ],
      "name": "getApproved",
      "outputs": [
        {
          "internalType": "address",
          "name": "",
          "type": "address"
        }
      ],
      "stateMutability": "view",
      "type": "function",
      "constant": true
    },
    {
      "inputs": [],
      "name": "initialListingPrice",
      "outputs": [
        {
          "internalType": "uint256",
          "name": "",
          "type": "uint256"
        }
      ],
      "stateMutability": "view",
      "type": "function",
      "constant": true
    },
    {
      "inputs": [
        {
          "internalType": "address",
          "name": "owner",
          "type": "address"
        },
        {
          "internalType": "address",
          "name": "operator",
          "type": "address"
        }
      ],
      "name": "isApprovedForAll",
      "outputs": [
        {
          "internalType": "bool",
          "name": "",
          "type": "bool"
        }
      ],
      "stateMutability": "view",
      "type": "function",
      "constant": true
    },
    {
      "inputs": [
        {
          "internalType": "uint256",
          "name": "",
          "type": "uint256"
        }
      ],
      "name": "isTokenForSale",
      "outputs": [
        {
          "internalType": "bool",
          "name": "",
          "type": "bool"
        }
      ],
      "stateMutability": "view",
      "type": "function",
      "constant": true
    },
    {
      "inputs": [],
      "name": "maxTokenSupply",
      "outputs": [
        {
          "internalType": "uint256",
          "name": "",
          "type": "uint256"
        }
      ],
      "stateMutability": "view",
      "type": "function",
      "constant": true
    },
    {
      "inputs": [],
      "name": "name",
      "outputs": [
        {
          "internalType": "string",
          "name": "",
          "type": "string"
        }
      ],
      "stateMutability": "view",
      "type": "function",
      "constant": true
    },
    {
      "inputs": [],
      "name": "owner",
      "outputs": [
        {
          "internalType": "address",
          "name": "",
          "type": "address"
        }
      ],
      "stateMutability": "view",
      "type": "function",
      "constant": true
    },
    {
      "inputs": [
        {
          "internalType": "uint256",
          "name": "tokenId",
          "type": "uint256"
        }
      ],
      "name": "ownerOf",
      "outputs": [
        {
          "internalType": "address",
          "name": "",
          "type": "address"
        }
      ],
      "stateMutability": "view",
      "type": "function",
      "constant": true
    },
    {
      "inputs": [],
      "name": "renounceOwnership",
      "outputs": [],
      "stateMutability": "nonpayable",
      "type": "function"
    },
    {
      "inputs": [
        {
          "internalType": "address",
          "name": "from",
          "type": "address"
        },
        {
          "internalType": "address",
          "name": "to",
          "type": "address"
        },
        {
          "internalType": "uint256",
          "name": "tokenId",
          "type": "uint256"
        }
      ],
      "name": "safeTransferFrom",
      "outputs": [],
      "stateMutability": "nonpayable",
      "type": "function"
    },
    {
      "inputs": [
        {
          "internalType": "address",
          "name": "from",
          "type": "address"
        },
        {
          "internalType": "address",
          "name": "to",
          "type": "address"
        },
        {
          "internalType": "uint256",
          "name": "tokenId",
          "type": "uint256"
        },
        {
          "internalType": "bytes",
          "name": "data",
          "type": "bytes"
        }
      ],
      "name": "safeTransferFrom",
      "outputs": [],
      "stateMutability": "nonpayable",
      "type": "function"
    },
    {
      "inputs": [
        {
          "internalType": "address",
          "name": "operator",
          "type": "address"
        },
        {
          "internalType": "bool",
          "name": "approved",
          "type": "bool"
        }
      ],
      "name": "setApprovalForAll",
      "outputs": [],
      "stateMutability": "nonpayable",
      "type": "function"
    },
    {
      "inputs": [
        {
          "internalType": "bytes4",
          "name": "interfaceId",
          "type": "bytes4"
        }
      ],
      "name": "supportsInterface",
      "outputs": [
        {
          "internalType": "bool",
          "name": "",
          "type": "bool"
        }
      ],
      "stateMutability": "view",
      "type": "function",
      "constant": true
    },
    {
      "inputs": [],
      "name": "symbol",
      "outputs": [
        {
          "internalType": "string",
          "name": "",
          "type": "string"
        }
      ],
      "stateMutability": "view",
      "type": "function",
      "constant": true
    },
    {
      "inputs": [
        {
          "internalType": "uint256",
          "name": "tokenId",
          "type": "uint256"
        }
      ],
      "name": "tokenURI",
      "outputs": [
        {
          "internalType": "string",
          "name": "",
          "type": "string"
        }
      ],
      "stateMutability": "view",
      "type": "function",
      "constant": true
    },
    {
      "inputs": [
        {
          "internalType": "uint256",
          "name": "",
          "type": "uint256"
        }
      ],
      "name": "tokensPrice",
      "outputs": [
        {
          "internalType": "uint256",
          "name": "",
          "type": "uint256"
        }
      ],
      "stateMutability": "view",
      "type": "function",
      "constant": true
    },
    {
      "inputs": [],
      "name": "totalTokenSupply",
      "outputs": [
        {
          "internalType": "uint256",
          "name": "",
          "type": "uint256"
        }
      ],
      "stateMutability": "view",
      "type": "function",
      "constant": true
    },
    {
      "inputs": [
        {
          "internalType": "address",
          "name": "from",
          "type": "address"
        },
        {
          "internalType": "address",
          "name": "to",
          "type": "address"
        },
        {
          "internalType": "uint256",
          "name": "tokenId",
          "type": "uint256"
        }
      ],
      "name": "transferFrom",
      "outputs": [],
      "stateMutability": "nonpayable",
      "type": "function"
    },
    {
      "inputs": [
        {
          "internalType": "address",
          "name": "newOwner",
          "type": "address"
        }
      ],
      "name": "transferOwnership",
      "outputs": [],
      "stateMutability": "nonpayable",
      "type": "function"
    },
    {
      "inputs": [
        {
          "internalType": "string",
          "name": "_tokenName",
          "type": "string"
        },
        {
          "internalType": "string",
          "name": "_tokenClass",
          "type": "string"
        },
        {
          "internalType": "uint256",
          "name": "_tokenPrice",
          "type": "uint256"
        },
        {
          "internalType": "uint256",
          "name": "_tokenCapacity",
          "type": "uint256"
        }
      ],
      "name": "mintToken",
      "outputs": [
        {
          "internalType": "uint256",
          "name": "",
          "type": "uint256"
        }
      ],
      "stateMutability": "payable",
      "type": "function",
      "payable": true
    },
    {
      "inputs": [],
      "name": "retrieveAllTokens",
      "outputs": [
        {
          "components": [
            {
              "internalType": "uint256",
              "name": "tokenId",
              "type": "uint256"
            },
            {
              "internalType": "address",
              "name": "tokenOwner",
              "type": "address"
            },
            {
              "internalType": "string",
              "name": "tokenName",
              "type": "string"
            },
            {
              "internalType": "uint256",
              "name": "tokenPrice",
              "type": "uint256"
            },
            {
              "internalType": "uint256",
              "name": "tokenCapacity",
              "type": "uint256"
            },
            {
              "internalType": "string",
              "name": "tokenClass",
              "type": "string"
            },
            {
              "internalType": "bool",
              "name": "isListedForSale",
              "type": "bool"
            },
            {
              "internalType": "uint256",
              "name": "tokenIndex",
              "type": "uint256"
            }
          ],
          "internalType": "struct TicketNFT.NftToken[]",
          "name": "",
          "type": "tuple[]"
        }
      ],
      "stateMutability": "view",
      "type": "function",
      "constant": true
    },
    {
      "inputs": [
        {
          "internalType": "uint256",
          "name": "_tokenId",
          "type": "uint256"
        }
      ],
      "name": "getOwnerOfToken",
      "outputs": [
        {
          "internalType": "address",
          "name": "",
          "type": "address"
        }
      ],
      "stateMutability": "view",
      "type": "function",
      "constant": true
    },
    {
      "inputs": [
        {
          "internalType": "uint256",
          "name": "_tokenId",
          "type": "uint256"
        }
      ],
      "name": "tokenIsOnSale",
      "outputs": [
        {
          "internalType": "bool",
          "name": "",
          "type": "bool"
        }
      ],
      "stateMutability": "view",
      "type": "function",
      "constant": true
    },
    {
      "inputs": [
        {
          "internalType": "address",
          "name": "currentNftOwner",
          "type": "address"
        }
      ],
      "name": "fetchAccountBalance",
      "outputs": [
        {
          "internalType": "uint256",
          "name": "",
          "type": "uint256"
        }
      ],
      "stateMutability": "view",
      "type": "function",
      "constant": true
    },
    {
      "inputs": [
        {
          "internalType": "uint256",
          "name": "_tokenIndex",
          "type": "uint256"
        }
      ],
      "name": "fetchTokenByIndex",
      "outputs": [
        {
          "components": [
            {
              "internalType": "uint256",
              "name": "tokenId",
              "type": "uint256"
            },
            {
              "internalType": "address",
              "name": "tokenOwner",
              "type": "address"
            },
            {
              "internalType": "string",
              "name": "tokenName",
              "type": "string"
            },
            {
              "internalType": "uint256",
              "name": "tokenPrice",
              "type": "uint256"
            },
            {
              "internalType": "uint256",
              "name": "tokenCapacity",
              "type": "uint256"
            },
            {
              "internalType": "string",
              "name": "tokenClass",
              "type": "string"
            },
            {
              "internalType": "bool",
              "name": "isListedForSale",
              "type": "bool"
            },
            {
              "internalType": "uint256",
              "name": "tokenIndex",
              "type": "uint256"
            }
          ],
          "internalType": "struct TicketNFT.NftToken",
          "name": "",
          "type": "tuple"
        }
      ],
      "stateMutability": "view",
      "type": "function",
      "constant": true
    },
    {
      "inputs": [
        {
          "internalType": "uint256",
          "name": "_tokenId",
          "type": "uint256"
        },
        {
          "internalType": "uint256",
          "name": "_listingPrice",
          "type": "uint256"
        }
      ],
      "name": "listNftForSale",
      "outputs": [],
      "stateMutability": "nonpayable",
      "type": "function"
    },
    {
      "inputs": [
        {
          "internalType": "uint256",
          "name": "_tokenId",
          "type": "uint256"
        },
        {
          "internalType": "address",
          "name": "_newTokenOwnerAddress",
          "type": "address"
        }
      ],
      "name": "transferTokenOwnership",
      "outputs": [],
      "stateMutability": "payable",
      "type": "function",
      "payable": true
    },
    {
      "inputs": [
        {
          "internalType": "uint256",
          "name": "tokenId",
          "type": "uint256"
        }
      ],
      "name": "buyNftToken",
      "outputs": [
        {
          "internalType": "address",
          "name": "",
          "type": "address"
        }
      ],
      "stateMutability": "payable",
      "type": "function",
      "payable": true
    },
    {
      "inputs": [
        {
          "internalType": "uint256",
          "name": "tokenId",
          "type": "uint256"
        }
      ],
      "name": "burnNftToken",
      "outputs": [],
      "stateMutability": "nonpayable",
      "type": "function"
    }
  ],
  "bytecode": "0x608060405266354a6ba7a180006009556032600a553480156200002157600080fd5b5060405180604001604052806011815260200170115d995b9d1cc813919508151a58dad95d607a1b815250604051806040016040528060048152602001631153919560e21b81525081600090816200007a9190620001a7565b506001620000898282620001a7565b505050620000a6620000a0620000ac60201b60201c565b620000b0565b62000273565b3390565b600780546001600160a01b038381166001600160a01b0319831681179093556040519116919082907f8be0079c531659141344cd1fd0a4f28419497f9722a3daafe3b4186f6b6457e090600090a35050565b634e487b7160e01b600052604160045260246000fd5b600181811c908216806200012d57607f821691505b6020821081036200014e57634e487b7160e01b600052602260045260246000fd5b50919050565b601f821115620001a257600081815260208120601f850160051c810160208610156200017d5750805b601f850160051c820191505b818110156200019e5782815560010162000189565b5050505b505050565b81516001600160401b03811115620001c357620001c362000102565b620001db81620001d4845462000118565b8462000154565b602080601f831160018114620002135760008415620001fa5750858301515b600019600386901b1c1916600185901b1785556200019e565b600085815260208120601f198616915b82811015620002445788860151825594840194600190910190840162000223565b5085821015620002635787850151600019600388901b60f8161c191681555b5050505050600190811b01905550565b61323a80620002836000396000f3fe6080604052600436106101ee5760003560e01c806370a082311161010d578063a22cb465116100a0578063da8cc6e81161006f578063da8cc6e8146105e1578063e4ac1bbe146105f4578063e985e9c51461060a578063e9cf64e61461062a578063f2fde38b1461063d57600080fd5b8063a22cb46514610554578063b88d4fde14610574578063ba093ba614610594578063c87b56dd146105c157600080fd5b8063854905b6116100dc578063854905b6146104d45780638da5cb5b1461050157806395d89b411461051f5780639a65b7221461053457600080fd5b806370a0823114610435578063715018a61461045557806379e85b7b1461046a5780637f1dd80b1461049e57600080fd5b80631ca8b6cb1161018557806342842e0e1161015457806342842e0e146103af5780634fed1c94146103cf57806350f7c204146103ff5780636352211e1461041557600080fd5b80631ca8b6cb1461034657806323b872dd1461035c57806327f5ecc21461037c5780633bda356c1461038f57600080fd5b806308d5ab42116101c157806308d5ab42146102a4578063095ea7b3146102d657806315ac6494146102f6578063188e9c061461031857600080fd5b806301ffc9a7146101f357806304f233091461022857806306fdde031461024a578063081812fc1461026c575b600080fd5b3480156101ff57600080fd5b5061021361020e366004612724565b61065d565b60405190151581526020015b60405180910390f35b34801561023457600080fd5b50610248610243366004612741565b6106af565b005b34801561025657600080fd5b5061025f6109a4565b60405161021f91906127b3565b34801561027857600080fd5b5061028c6102873660046127c6565b610a36565b6040516001600160a01b03909116815260200161021f565b3480156102b057600080fd5b506102136102bf3660046127c6565b6000908152600c6020526040902060030154151590565b3480156102e257600080fd5b506102486102f13660046127fb565b610a5d565b34801561030257600080fd5b5061030b610b72565b60405161021f91906128a8565b34801561032457600080fd5b5061033861033336600461290a565b610dca565b60405190815260200161021f565b34801561035257600080fd5b5061033860085481565b34801561036857600080fd5b50610248610377366004612925565b610dd5565b61033861038a366004612a0d565b610e06565b34801561039b57600080fd5b506102486103aa3660046127c6565b61110a565b3480156103bb57600080fd5b506102486103ca366004612925565b611373565b3480156103db57600080fd5b506102136103ea3660046127c6565b600e6020526000908152604090205460ff1681565b34801561040b57600080fd5b50610338600a5481565b34801561042157600080fd5b5061028c6104303660046127c6565b61138e565b34801561044157600080fd5b5061033861045036600461290a565b6113ee565b34801561046157600080fd5b50610248611474565b34801561047657600080fd5b5061048a6104853660046127c6565b611488565b60405161021f989796959493929190612a81565b3480156104aa57600080fd5b5061028c6104b93660046127c6565b6000908152600d60205260409020546001600160a01b031690565b3480156104e057600080fd5b506103386104ef3660046127c6565b600f6020526000908152604090205481565b34801561050d57600080fd5b506007546001600160a01b031661028c565b34801561052b57600080fd5b5061025f6115fb565b34801561054057600080fd5b5061048a61054f3660046127c6565b61160a565b34801561056057600080fd5b5061024861056f366004612ae4565b61163c565b34801561058057600080fd5b5061024861058f366004612b20565b61164b565b3480156105a057600080fd5b506105b46105af3660046127c6565b611683565b60405161021f9190612b9c565b3480156105cd57600080fd5b5061025f6105dc3660046127c6565b61181e565b61028c6105ef3660046127c6565b611926565b34801561060057600080fd5b5061033860095481565b34801561061657600080fd5b50610213610625366004612baf565b611ce9565b610248610638366004612be2565b611d17565b34801561064957600080fd5b5061024861065836600461290a565b611e49565b60006001600160e01b031982166380ac58cd60e01b148061068e57506001600160e01b03198216635b5e139f60e01b145b806106a957506301ffc9a760e01b6001600160e01b03198316145b92915050565b6000828152600d60205260409020546001600160a01b031633146107405760405162461bcd60e51b815260206004820152603760248201527f596f75206d75737420626520746865206f776e6572206f66207468697320746f60448201527f6b656e20746f206c69737420697420666f722073616c6500000000000000000060648201526084015b60405180910390fd5b6000828152600c60205260409020600301546107c45760405162461bcd60e51b815260206004820152603e60248201527f54686520746f6b656e206d757374204e4f5420616c7265616479206265206f6e60448201527f2073616c6520746f206c69737420746865206e667420666f722073616c6500006064820152608401610737565b6000828152600c602090815260408083208151610100810183528154815260018201546001600160a01b031693810193909352600281018054919284019161080b90612c05565b80601f016020809104026020016040519081016040528092919081815260200182805461083790612c05565b80156108845780601f1061085957610100808354040283529160200191610884565b820191906000526020600020905b81548152906001019060200180831161086757829003601f168201915b5050505050815260200160038201548152602001600482015481526020016005820180546108b190612c05565b80601f01602080910402602001604051908101604052809291908181526020018280546108dd90612c05565b801561092a5780601f106108ff5761010080835404028352916020019161092a565b820191906000526020600020905b81548152906001019060200180831161090d57829003601f168201915b5050509183525050600682015460ff161515602082015260079091015460409182015260608201849052600160c0830152519091507fc5a9946ad95695e956f90d429bf0833a693d0928aac900c651ebe3f4fc3cd89d906109979085908590918252602082015260400190565b60405180910390a1505050565b6060600080546109b390612c05565b80601f01602080910402602001604051908101604052809291908181526020018280546109df90612c05565b8015610a2c5780601f10610a0157610100808354040283529160200191610a2c565b820191906000526020600020905b815481529060010190602001808311610a0f57829003601f168201915b5050505050905090565b6000610a4182611ec2565b506000908152600460205260409020546001600160a01b031690565b6000610a688261138e565b9050806001600160a01b0316836001600160a01b031603610ad55760405162461bcd60e51b815260206004820152602160248201527f4552433732313a20617070726f76616c20746f2063757272656e74206f776e656044820152603960f91b6064820152608401610737565b336001600160a01b0382161480610af15750610af18133611ce9565b610b635760405162461bcd60e51b815260206004820152603d60248201527f4552433732313a20617070726f76652063616c6c6572206973206e6f7420746f60448201527f6b656e206f776e6572206f7220617070726f76656420666f7220616c6c0000006064820152608401610737565b610b6d8383611f21565b505050565b6060600060085467ffffffffffffffff811115610b9157610b91612961565b604051908082528060200260200182016040528015610bca57816020015b610bb7612670565b815260200190600190039081610baf5790505b50905060005b600854811015610dc457600b8181548110610bed57610bed612c39565b906000526020600020906008020160405180610100016040529081600082015481526020016001820160009054906101000a90046001600160a01b03166001600160a01b03166001600160a01b03168152602001600282018054610c5090612c05565b80601f0160208091040260200160405190810160405280929190818152602001828054610c7c90612c05565b8015610cc95780601f10610c9e57610100808354040283529160200191610cc9565b820191906000526020600020905b815481529060010190602001808311610cac57829003601f168201915b505050505081526020016003820154815260200160048201548152602001600582018054610cf690612c05565b80601f0160208091040260200160405190810160405280929190818152602001828054610d2290612c05565b8015610d6f5780601f10610d4457610100808354040283529160200191610d6f565b820191906000526020600020905b815481529060010190602001808311610d5257829003601f168201915b5050509183525050600682015460ff16151560208201526007909101546040909101528251839083908110610da657610da6612c39565b60200260200101819052508080610dbc90612c65565b915050610bd0565b50919050565b60006106a9826113ee565b610ddf3382611f8f565b610dfb5760405162461bcd60e51b815260040161073790612c7e565b610b6d838383611fed565b6000600a5460085410610e705760405162461bcd60e51b815260206004820152602c60248201527f43616e6e6f742065786365656420746865206d6178696d756d20746f6b656e2060448201526b0737570706c79206f662035360a41b6064820152608401610737565b6000600860008154610e8190612c65565b9182905550600b5460408051610100810182528381523360208083018281528385018d8152606085018c9052608085018b905260a085018d9052600060c0860181905260e08601889052888152600c909352949091208351815590516001820180546001600160a01b0319166001600160a01b039092169190911790559251949550939091906002820190610f169082612d19565b50606082015160038201556080820151600482015560a08201516005820190610f3f9082612d19565b5060c08201516006808301805492151560ff1993841617905560e0909301516007909201919091556000858152600c60209081526040808320600381018c905594850180549094168455600880548452600d909252822080546001600160a01b038089166001600160a01b0319928316179092559354600b805460018181018355919095528654949093027f0175b7a638427703f0dbe7bb9bbf987a2551717b34e79f33b5b1008d1fa01db98101948555928601547f0175b7a638427703f0dbe7bb9bbf987a2551717b34e79f33b5b1008d1fa01dba8401805490961692169190911790935560ff92909216918391907f0175b7a638427703f0dbe7bb9bbf987a2551717b34e79f33b5b1008d1fa01dbb0161105e6002840182612dd9565b506003820154816003015560048201548160040155600582018160050190816110879190612dd9565b50600682810154908201805460ff191660ff90921615159190911790556007918201549101556110b5610b72565b507f7452b31642ad58bd087fe8ddcbd56a68038879ec993f1abf7482887f0dce5e99858b8b8b8b86600b6040516110f29796959493929190612f31565b60405180910390a1509293505050505b949350505050565b6000818152600c6020526040902060018101543391906001600160a01b031682146111935760405162461bcd60e51b815260206004820152603360248201527f596f75206d757374206265207468652063757272656e74206f776e6572206f66604482015272081d1a1948139195081d1bc8189d5c9b881a5d606a1b6064820152608401610737565b6007810154600b546000906111aa90600190613056565b9050600b81815481106111bf576111bf612c39565b9060005260206000209060080201600b83815481106111e0576111e0612c39565b60009182526020909120825460089092020190815560018083015490820180546001600160a01b0319166001600160a01b0390921691909117905560028082019061122d90840182612dd9565b506003820154816003015560048201548160040155600582018160050190816112569190612dd9565b50600682810154908201805460ff191660ff9092161515919091179055600791820154910155600b80548061128d5761128d613069565b6000828152602081206008600019909301928302018181556001810180546001600160a01b0319169055906112c560028301826126c0565b600382016000905560048201600090556005820160006112e591906126c0565b5060068101805460ff191690556000600791820181905591909255868152600c6020526040808220829055838252812090910183905560088054829061132a9061307f565b918290555060408051888152602081018390529192507f43ce8febc9822756d8f34b35cd628db23dc57fe810cb077080d7c740fcc6988f910160405180910390a1505050505050565b610b6d8383836040518060200160405280600081525061164b565b6000818152600260205260408120546001600160a01b0316806106a95760405162461bcd60e51b8152602060048201526018602482015277115490cdcc8c4e881a5b9d985b1a59081d1bdad95b88125160421b6044820152606401610737565b60006001600160a01b0382166114585760405162461bcd60e51b815260206004820152602960248201527f4552433732313a2061646472657373207a65726f206973206e6f7420612076616044820152683634b21037bbb732b960b91b6064820152608401610737565b506001600160a01b031660009081526003602052604090205490565b61147c61215e565b61148660006121b8565b565b600b818154811061149857600080fd5b60009182526020909120600890910201805460018201546002830180549294506001600160a01b0390911692916114ce90612c05565b80601f01602080910402602001604051908101604052809291908181526020018280546114fa90612c05565b80156115475780601f1061151c57610100808354040283529160200191611547565b820191906000526020600020905b81548152906001019060200180831161152a57829003601f168201915b50505050509080600301549080600401549080600501805461156890612c05565b80601f016020809104026020016040519081016040528092919081815260200182805461159490612c05565b80156115e15780601f106115b6576101008083540402835291602001916115e1565b820191906000526020600020905b8154815290600101906020018083116115c457829003601f168201915b505050506006830154600790930154919260ff1691905088565b6060600180546109b390612c05565b600c6020526000908152604090208054600182015460028301805492936001600160a01b03909216926114ce90612c05565b61164733838361220a565b5050565b6116553383611f8f565b6116715760405162461bcd60e51b815260040161073790612c7e565b61167d848484846122d8565b50505050565b61168b612670565b6000828152600c60209081526040918290208251610100810184528154815260018201546001600160a01b03169281019290925260028101805492939192918401916116d690612c05565b80601f016020809104026020016040519081016040528092919081815260200182805461170290612c05565b801561174f5780601f106117245761010080835404028352916020019161174f565b820191906000526020600020905b81548152906001019060200180831161173257829003601f168201915b50505050508152602001600382015481526020016004820154815260200160058201805461177c90612c05565b80601f01602080910402602001604051908101604052809291908181526020018280546117a890612c05565b80156117f55780601f106117ca576101008083540402835291602001916117f5565b820191906000526020600020905b8154815290600101906020018083116117d857829003601f168201915b5050509183525050600682015460ff161515602082015260079091015460409091015292915050565b606061182982611ec2565b6000828152600660205260408120805461184290612c05565b80601f016020809104026020016040519081016040528092919081815260200182805461186e90612c05565b80156118bb5780601f10611890576101008083540402835291602001916118bb565b820191906000526020600020905b81548152906001019060200180831161189e57829003601f168201915b5050505050905060006118d960408051602081019091526000815290565b905080516000036118eb575092915050565b81511561191d578082604051602001611905929190613096565b60405160208183030381529060405292505050919050565b6111028461230b565b6000818152600d602052604081205433906001600160a01b031661198c5760405162461bcd60e51b815260206004820152601d60248201527f546865204e46542068617320616c7265616479206265656e20736f6c640000006044820152606401610737565b6000838152600f60205260409020543414611a0f5760405162461bcd60e51b815260206004820152603c60248201527f5468652076616c7565206f6620746865206d7367206d7573742062652065717560448201527f616c20746f20746865207072696365206f662074686520746f6b656e000000006064820152608401610737565b34816001600160a01b0316311015611a8f5760405162461bcd60e51b815260206004820152603b60248201527f54686520746f6b656e20627579657220646f6573206e6f74206861766520656e60448201527f6f7567682066756e647320746f206275792074686520746f6b656e00000000006064820152608401610737565b6000838152600c602090815260408083208151610100810183528154815260018201546001600160a01b0316938101939093526002810180549192840191611ad690612c05565b80601f0160208091040260200160405190810160405280929190818152602001828054611b0290612c05565b8015611b4f5780601f10611b2457610100808354040283529160200191611b4f565b820191906000526020600020905b815481529060010190602001808311611b3257829003601f168201915b505050505081526020016003820154815260200160048201548152602001600582018054611b7c90612c05565b80601f0160208091040260200160405190810160405280929190818152602001828054611ba890612c05565b8015611bf55780601f10611bca57610100808354040283529160200191611bf5565b820191906000526020600020905b815481529060010190602001808311611bd857829003601f168201915b5050509183525050600682015460ff161515602080830191909152600790920154604091820152828201516000888152600f9093528183205491519394509283926001600160a01b0384169280156108fc02929091818181858888f19350505050158015611c67573d6000803e3d6000fd5b506001600160a01b0384166020808501919091526000878152600e90915260409020805460ff19169055611c9a8661110a565b7fe3c099707a92dd41663e7f3deca1d4a744ad4c34d9d152d4690430448bae422a868585604001518660600151604051611cd794939291906130c5565b60405180910390a15091949350505050565b6001600160a01b03918216600090815260056020908152604080832093909416825291909152205460ff1690565b6000828152600c6020526040902060018101543391906001600160a01b03168214611de35760405162461bcd60e51b815260206004820152606a60248201527f596f75206173207468652063616c6c657220646f206e6f74206f776e2074686960448201527f7320746f6b656e20726570726573656e74696e6720746865207469636b65742e60648201527f205472616e73666572206f66206f776e6572736869702063616e6e6f74206265608482015269081c195c999bdc9b595960b21b60a482015260c401610737565b6001810180546001600160a01b0319166001600160a01b038581169182179092556040805187815292851660208401528201527f871c82ffff979d6aec4e39ef3ff2de7ab2c141f6bd26cdfdb5ac9a3b7c79bbf19060600160405180910390a150505050565b611e5161215e565b6001600160a01b038116611eb65760405162461bcd60e51b815260206004820152602660248201527f4f776e61626c653a206e6577206f776e657220697320746865207a65726f206160448201526564647265737360d01b6064820152608401610737565b611ebf816121b8565b50565b6000818152600260205260409020546001600160a01b0316611ebf5760405162461bcd60e51b8152602060048201526018602482015277115490cdcc8c4e881a5b9d985b1a59081d1bdad95b88125160421b6044820152606401610737565b600081815260046020526040902080546001600160a01b0319166001600160a01b0384169081179091558190611f568261138e565b6001600160a01b03167f8c5be1e5ebec7d5bd14f71427d1e84f3dd0314c0f7b2291e5b200ac8c7c3b92560405160405180910390a45050565b600080611f9b8361138e565b9050806001600160a01b0316846001600160a01b03161480611fc25750611fc28185611ce9565b806111025750836001600160a01b0316611fdb84610a36565b6001600160a01b031614949350505050565b826001600160a01b03166120008261138e565b6001600160a01b0316146120265760405162461bcd60e51b815260040161073790613100565b6001600160a01b0382166120885760405162461bcd60e51b8152602060048201526024808201527f4552433732313a207472616e7366657220746f20746865207a65726f206164646044820152637265737360e01b6064820152608401610737565b612095838383600161237f565b826001600160a01b03166120a88261138e565b6001600160a01b0316146120ce5760405162461bcd60e51b815260040161073790613100565b600081815260046020908152604080832080546001600160a01b03199081169091556001600160a01b0387811680865260038552838620805460001901905590871680865283862080546001019055868652600290945282852080549092168417909155905184937fddf252ad1be2c89b69c2b068fc378daa952ba7f163c4a11628f55a4df523b3ef91a4505050565b6007546001600160a01b031633146114865760405162461bcd60e51b815260206004820181905260248201527f4f776e61626c653a2063616c6c6572206973206e6f7420746865206f776e65726044820152606401610737565b600780546001600160a01b038381166001600160a01b0319831681179093556040519116919082907f8be0079c531659141344cd1fd0a4f28419497f9722a3daafe3b4186f6b6457e090600090a35050565b816001600160a01b0316836001600160a01b03160361226b5760405162461bcd60e51b815260206004820152601960248201527f4552433732313a20617070726f766520746f2063616c6c6572000000000000006044820152606401610737565b6001600160a01b03838116600081815260056020908152604080832094871680845294825291829020805460ff191686151590811790915591519182527f17307eab39ab6107e8899845ad3d59bd9653f200f220920489ca2b5937696c31910160405180910390a3505050565b6122e3848484611fed565b6122ef84848484612407565b61167d5760405162461bcd60e51b815260040161073790613145565b606061231682611ec2565b600061232d60408051602081019091526000815290565b9050600081511161234d5760405180602001604052806000815250612378565b8061235784612505565b604051602001612368929190613096565b6040516020818303038152906040525b9392505050565b600181111561167d576001600160a01b038416156123c5576001600160a01b038416600090815260036020526040812080548392906123bf908490613056565b90915550505b6001600160a01b0383161561167d576001600160a01b038316600090815260036020526040812080548392906123fc908490613197565b909155505050505050565b60006001600160a01b0384163b156124fd57604051630a85bd0160e11b81526001600160a01b0385169063150b7a029061244b9033908990889088906004016131aa565b6020604051808303816000875af1925050508015612486575060408051601f3d908101601f19168201909252612483918101906131e7565b60015b6124e3573d8080156124b4576040519150601f19603f3d011682016040523d82523d6000602084013e6124b9565b606091505b5080516000036124db5760405162461bcd60e51b815260040161073790613145565b805181602001fd5b6001600160e01b031916630a85bd0160e11b149050611102565b506001611102565b6060600061251283612598565b600101905060008167ffffffffffffffff81111561253257612532612961565b6040519080825280601f01601f19166020018201604052801561255c576020820181803683370190505b5090508181016020015b600019016f181899199a1a9b1b9c1cb0b131b232b360811b600a86061a8153600a850494508461256657509392505050565b60008072184f03e93ff9f4daa797ed6e38ed64bf6a1f0160401b83106125d75772184f03e93ff9f4daa797ed6e38ed64bf6a1f0160401b830492506040015b6d04ee2d6d415b85acef81000000008310612603576d04ee2d6d415b85acef8100000000830492506020015b662386f26fc10000831061262157662386f26fc10000830492506010015b6305f5e1008310612639576305f5e100830492506008015b612710831061264d57612710830492506004015b6064831061265f576064830492506002015b600a83106106a95760010192915050565b6040518061010001604052806000815260200160006001600160a01b0316815260200160608152602001600081526020016000815260200160608152602001600015158152602001600081525090565b5080546126cc90612c05565b6000825580601f106126dc575050565b601f016020900490600052602060002090810190611ebf91905b8082111561270a57600081556001016126f6565b5090565b6001600160e01b031981168114611ebf57600080fd5b60006020828403121561273657600080fd5b81356123788161270e565b6000806040838503121561275457600080fd5b50508035926020909101359150565b60005b8381101561277e578181015183820152602001612766565b50506000910152565b6000815180845261279f816020860160208601612763565b601f01601f19169290920160200192915050565b6020815260006123786020830184612787565b6000602082840312156127d857600080fd5b5035919050565b80356001600160a01b03811681146127f657600080fd5b919050565b6000806040838503121561280e57600080fd5b612817836127df565b946020939093013593505050565b60006101008251845260018060a01b036020840151166020850152604083015181604086015261285782860182612787565b915050606083015160608501526080830151608085015260a083015184820360a08601526128858282612787565b91505060c0830151151560c085015260e083015160e08501528091505092915050565b6000602080830181845280855180835260408601915060408160051b870101925083870160005b828110156128fd57603f198886030184526128eb858351612825565b945092850192908501906001016128cf565b5092979650505050505050565b60006020828403121561291c57600080fd5b612378826127df565b60008060006060848603121561293a57600080fd5b612943846127df565b9250612951602085016127df565b9150604084013590509250925092565b634e487b7160e01b600052604160045260246000fd5b600067ffffffffffffffff8084111561299257612992612961565b604051601f8501601f19908116603f011681019082821181831017156129ba576129ba612961565b816040528093508581528686860111156129d357600080fd5b858560208301376000602087830101525050509392505050565b600082601f8301126129fe57600080fd5b61237883833560208501612977565b60008060008060808587031215612a2357600080fd5b843567ffffffffffffffff80821115612a3b57600080fd5b612a47888389016129ed565b95506020870135915080821115612a5d57600080fd5b50612a6a878288016129ed565b949794965050505060408301359260600135919050565b8881526001600160a01b038816602082015261010060408201819052600090612aac8382018a612787565b905087606084015286608084015282810360a0840152612acc8187612787565b94151560c0840152505060e001529695505050505050565b60008060408385031215612af757600080fd5b612b00836127df565b915060208301358015158114612b1557600080fd5b809150509250929050565b60008060008060808587031215612b3657600080fd5b612b3f856127df565b9350612b4d602086016127df565b925060408501359150606085013567ffffffffffffffff811115612b7057600080fd5b8501601f81018713612b8157600080fd5b612b9087823560208401612977565b91505092959194509250565b6020815260006123786020830184612825565b60008060408385031215612bc257600080fd5b612bcb836127df565b9150612bd9602084016127df565b90509250929050565b60008060408385031215612bf557600080fd5b82359150612bd9602084016127df565b600181811c90821680612c1957607f821691505b602082108103610dc457634e487b7160e01b600052602260045260246000fd5b634e487b7160e01b600052603260045260246000fd5b634e487b7160e01b600052601160045260246000fd5b600060018201612c7757612c77612c4f565b5060010190565b6020808252602d908201527f4552433732313a2063616c6c6572206973206e6f7420746f6b656e206f776e6560408201526c1c881bdc88185c1c1c9bdd9959609a1b606082015260800190565b601f821115610b6d57600081815260208120601f850160051c81016020861015612cf25750805b601f850160051c820191505b81811015612d1157828155600101612cfe565b505050505050565b815167ffffffffffffffff811115612d3357612d33612961565b612d4781612d418454612c05565b84612ccb565b602080601f831160018114612d7c5760008415612d645750858301515b600019600386901b1c1916600185901b178555612d11565b600085815260208120601f198616915b82811015612dab57888601518255948401946001909101908401612d8c565b5085821015612dc95787850151600019600388901b60f8161c191681555b5050505050600190811b01905550565b818103612de4575050565b612dee8254612c05565b67ffffffffffffffff811115612e0657612e06612961565b612e1481612d418454612c05565b6000601f821160018114612e485760008315612e305750848201545b600019600385901b1c1916600184901b178455612ead565b600085815260209020601f19841690600086815260209020845b83811015612e825782860154825560019586019590910190602001612e62565b5085831015612ea05781850154600019600388901b60f8161c191681555b50505060018360011b0184555b5050505050565b60008154612ec181612c05565b808552602060018381168015612ede5760018114612ef857612f26565b60ff1985168884015283151560051b880183019550612f26565b866000528260002060005b85811015612f1e5781548a8201860152908301908401612f03565b890184019650505b505050505092915050565b600060e089835260208181850152612f4b8285018b612787565b604085820381870152612f5e828c612787565b915060608a8188015260808a8189015260a08a1515818a015260c0898603818b0152858b54808852888801915060058982821b8a01018e6000528a60002060005b84811015613039578b8303601f190186528154835260018201546001600160a01b03168d8401526101008b8401819052612fde81850160028501612eb4565b905060038301548b85015260048301548a8501528381038985015261300581868501612eb4565b9050613015600684015460ff1690565b1515888501526007830154938f0193909352948c0194600890910190600101612f9f565b5050809c5050505050505050505050505098975050505050505050565b818103818111156106a9576106a9612c4f565b634e487b7160e01b600052603160045260246000fd5b60008161308e5761308e612c4f565b506000190190565b600083516130a8818460208801612763565b8351908301906130bc818360208801612763565b01949350505050565b8481526001600160a01b03841660208201526080604082018190526000906130ef90830185612787565b905082606083015295945050505050565b60208082526025908201527f4552433732313a207472616e736665722066726f6d20696e636f72726563742060408201526437bbb732b960d91b606082015260800190565b60208082526032908201527f4552433732313a207472616e7366657220746f206e6f6e20455243373231526560408201527131b2b4bb32b91034b6b83632b6b2b73a32b960711b606082015260800190565b808201808211156106a9576106a9612c4f565b6001600160a01b03858116825284166020820152604081018390526080606082018190526000906131dd90830184612787565b9695505050505050565b6000602082840312156131f957600080fd5b81516123788161270e56fea2646970667358221220d62a725168faf7e5926033eec4715a377903181476478f6400431133ae9cb7c864736f6c63430008110033",
  "immutableReferences": {},
  "source": "// SPDX-License-Identifier: MIT\npragma solidity ^0.8.7;\n\nimport \"../node_modules/@openzeppelin/contracts/token/ERC721/extensions/ERC721URIStorage.sol\";\nimport \"../node_modules/@openzeppelin/contracts/utils/Counters.sol\";\nimport \"../node_modules/@openzeppelin/contracts/token/ERC721/ERC721.sol\";\nimport \"../node_modules/@openzeppelin/contracts/access/Ownable.sol\";\n\ncontract TicketNFT is ERC721URIStorage, Ownable { // NFT Contract for Event Tickets\n\n    struct NftToken { // Create the struct for the nft token\n        uint256 tokenId;\n        address tokenOwner;\n        string tokenName;\n        uint256 tokenPrice;\n        uint256 tokenCapacity;\n        string tokenClass;\n        bool isListedForSale;\n        uint256 tokenIndex;\n    }\n\n    uint256 public totalTokenSupply; // Total supply for the tokens\n    uint256 public initialListingPrice = 0.015 ether; // Initial listing price of the ticket as an NFT to 20GBP\n    uint256 public maxTokenSupply = 50;\n\n    NftToken[] public allMintedTokens;\n\n    mapping (uint256 => NftToken) public circulatingTokens; // Create mapping between an Integer and the token struct (1 => Nft data, 2: Nft Data...)\n    mapping (uint256 => address) tokenOwner; // Store the owners of the NFT\n    mapping (uint256 => bool) public isTokenForSale;\n    mapping (uint256 => uint) public tokensPrice;\n    mapping(string => bool) tokenNames; // Store the token names in a mapping between a string and boolean\n\n    event NewTokenMinted(uint256 tokenId, string tokenName, string tokenClass, uint tokenPrice, uint256 tokenCapacity, bool isListed, NftToken[] allMintedTokens);\n    event NftPurchased (uint256 tokenId, address newTokenOwner, string tokenName, uint tokenPrice);\n    event NftOwnershipTransferEvent(uint tokenId, address oldTokenOwnerAddress, address newTokenOwnerAddress);\n    event NftListedForSale(uint tokenId, uint listingPrice);\n    event OwnerBalanceRetrieved(address currentOwner);\n    event TokenBurned(uint tokenId, uint newTotalSupply); // Emits an event when the token is burned\n    \n    constructor() ERC721(\"Events NFT Ticket\", \"ENFT\") {}\n\n    // @description: Mint a new NFT token on the blockchain that uniquely represents an Event Ticket\n    // @parameters: _tokenName: Represents the name of the ticket, _tokenPrice: The price of the event ticket\n    // @returns: Returns the new ticket ID (Used for proof of ownership in transfer of ownership)\n\n    function mintToken(string memory _tokenName, string memory _tokenClass, uint256 _tokenPrice, uint256 _tokenCapacity) public payable returns (uint) {\n        require(totalTokenSupply < maxTokenSupply, \"Cannot exceed the maximum token supply of 50\");\n        uint256 newTokenID = ++totalTokenSupply;\n        address owner = msg.sender; \n\n        uint allTokensLength = allMintedTokens.length;\n        circulatingTokens[newTokenID] = NftToken(newTokenID, owner, _tokenName, _tokenPrice, _tokenCapacity, _tokenClass, false, allTokensLength);\n\n        NftToken storage currMintedToken = circulatingTokens[newTokenID];\n\n        currMintedToken.tokenPrice = _tokenPrice;\n\n        currMintedToken.isListedForSale = false;\n        tokenOwner[totalTokenSupply] = owner; // Update the token owner at the current token supply with the new owner\n    \n        bool isTokenListed = currMintedToken.isListedForSale;\n        allMintedTokens.push(currMintedToken); // Push the newly minted tokens to the array\n\n        retrieveAllTokens();\n\n        emit NewTokenMinted(newTokenID, _tokenName, _tokenClass, _tokenPrice, _tokenCapacity, isTokenListed, allMintedTokens);\n        return newTokenID;\n    }\n\n    function retrieveAllTokens() public view returns (NftToken[] memory) {\n        NftToken[] memory currentMintedTokens = new NftToken[](totalTokenSupply); // Loop through all the tokens, get the current total supply\n\n        for(uint index = 0; index < totalTokenSupply; index++) { // Set the current minted token index to the array of all minted tokens index\n            currentMintedTokens[index] = allMintedTokens[index];\n        }   \n\n        return currentMintedTokens; // Return the currently minted tokens\n    }\n\n    // @description: Returns the owner of the NFT token given an ID and returns the address of the owner\n    function getOwnerOfToken(uint256 _tokenId) public view returns (address) {\n        return tokenOwner[_tokenId];\n    }\n\n    function tokenIsOnSale(uint256 _tokenId) public view returns (bool) { // Function that determines if the token with its ID is already on sale or not\n        return circulatingTokens[_tokenId].tokenPrice > 0;\n    }\n\n   function fetchAccountBalance(address currentNftOwner) public view returns (uint) { // Returns the balance in ETH of the token owner\n      return balanceOf(currentNftOwner);\n   }\n\n    // @description: Returns the minted NFT by its Token INDEX\n    function fetchTokenByIndex(uint256 _tokenIndex) public view returns (NftToken memory) {\n        return circulatingTokens[_tokenIndex];\n    }\n\n    function listNftForSale(uint256 _tokenId, uint256 _listingPrice) public { // Function which will list the NFT for sale\n        require(getOwnerOfToken(_tokenId) == msg.sender, \"You must be the owner of this token to list it for sale\");\n        require((tokenIsOnSale(_tokenId)), \"The token must NOT already be on sale to list the nft for sale\");\n\n        NftToken memory currentNftToken = circulatingTokens[_tokenId]; // Extract the token from circulation by its ID\n\n        currentNftToken.tokenPrice = _listingPrice;\n        currentNftToken.isListedForSale = true;\n\n        emit NftListedForSale(_tokenId, _listingPrice);\n    }\n\n    // @description: The function is responsible for transferring the ownership of a token from the ticket issuer's address to the buyer address\n    // @parameters: Token ID and the new token owner's metamask wallet address\n    function transferTokenOwnership(uint256 _tokenId, address _newTokenOwnerAddress) public payable {\n        address currentTokenOwner = msg.sender;\n        NftToken storage nftToken = circulatingTokens[_tokenId];\n\n        require(nftToken.tokenOwner == currentTokenOwner, \"You as the caller do not own this token representing the ticket. Transfer of ownership cannot be performed\");\n        nftToken.tokenOwner = _newTokenOwnerAddress;\n\n        emit NftOwnershipTransferEvent(_tokenId, currentTokenOwner, _newTokenOwnerAddress);\n    }\n\n\n    function buyNftToken(uint256 tokenId) public payable returns (address) { // Function that allows the ticket buyer to to purchase the NFT Token given the Token ID\n        address tokenBuyer = msg.sender; // Store the token buyer in msg.sender\n        require(tokenOwner[tokenId] != address(0), \"The NFT has already been sold\");\n        require(msg.value == tokensPrice[tokenId], \"The value of the msg must be equal to the price of the token\");\n        require(tokenBuyer.balance >= msg.value, \"The token buyer does not have enough funds to buy the token\");\n\n        NftToken memory currentToken = circulatingTokens[tokenId]; // Extract the current nft token\n        address currentTokenOwner = currentToken.tokenOwner; // Get the current token owner\n        address payable currentTokenOwnerPayable = payable(currentTokenOwner);\n\n        currentTokenOwnerPayable.transfer(tokensPrice[tokenId]);\n        currentToken.tokenOwner = tokenBuyer;\n        isTokenForSale[tokenId] = false;\n\n        // After buying an NFT token, burn it directly to increase its value over time potentially\n        burnNftToken(tokenId);\n\n        emit NftPurchased(tokenId, tokenBuyer, currentToken.tokenName, currentToken.tokenPrice); // Emit the event that an NFT Has been purchased\n        return tokenBuyer; // Return the new address of the token owner (current buyer)\n   }\n\n   function burnNftToken(uint tokenId) public { // Function responsible for burning\n        address currentOwner = msg.sender;\n        NftToken storage currentTokenToBurn = circulatingTokens[tokenId];\n        require(currentTokenToBurn.tokenOwner == currentOwner, \"You must be the current owner of the NFT to burn it\");\n\n        uint256 currentTokenIndex = currentTokenToBurn.tokenIndex; // Retrieve the current index of the current token to be burned\n        uint256 lastMintedTokensIndex = allMintedTokens.length - 1; // Retrieve the last index of the last minted token\n\n        allMintedTokens[currentTokenIndex] = allMintedTokens[lastMintedTokensIndex]; // Overwrite the current token index in the all minted tokens array to the last index\n        allMintedTokens.pop();\n\n        circulatingTokens[tokenId].tokenId = 0;\n        circulatingTokens[lastMintedTokensIndex].tokenIndex = currentTokenIndex;\n\n        uint newTotalSupply = --totalTokenSupply; // Decrease the total supply after burning the token\n        emit TokenBurned(tokenId, newTotalSupply);\n       \n   }\n\n}",
  "sourcePath": "/Users/sabin2000/Documents/ethertix/frontend/contracts/TicketNFT.sol",
  "compiler": {
    "name": "solc",
    "version": "0.8.17+commit.8df45f5f.Emscripten.clang"
  },
  "schemaVersion": "3.4.9",
  "updatedAt": "2023-02-27T21:51:11.661Z",
  "networkType": "ethereum",
  "devdoc": {
    "kind": "dev",
    "methods": {
      "approve(address,uint256)": {
        "details": "See {IERC721-approve}."
      },
      "balanceOf(address)": {
        "details": "See {IERC721-balanceOf}."
      },
      "getApproved(uint256)": {
        "details": "See {IERC721-getApproved}."
      },
      "isApprovedForAll(address,address)": {
        "details": "See {IERC721-isApprovedForAll}."
      },
      "name()": {
        "details": "See {IERC721Metadata-name}."
      },
      "owner()": {
        "details": "Returns the address of the current owner."
      },
      "ownerOf(uint256)": {
        "details": "See {IERC721-ownerOf}."
      },
      "renounceOwnership()": {
        "details": "Leaves the contract without owner. It will not be possible to call `onlyOwner` functions anymore. Can only be called by the current owner. NOTE: Renouncing ownership will leave the contract without an owner, thereby removing any functionality that is only available to the owner."
      },
      "safeTransferFrom(address,address,uint256)": {
        "details": "See {IERC721-safeTransferFrom}."
      },
      "safeTransferFrom(address,address,uint256,bytes)": {
        "details": "See {IERC721-safeTransferFrom}."
      },
      "setApprovalForAll(address,bool)": {
        "details": "See {IERC721-setApprovalForAll}."
      },
      "supportsInterface(bytes4)": {
        "details": "See {IERC165-supportsInterface}."
      },
      "symbol()": {
        "details": "See {IERC721Metadata-symbol}."
      },
      "tokenURI(uint256)": {
        "details": "See {IERC721Metadata-tokenURI}."
      },
      "transferFrom(address,address,uint256)": {
        "details": "See {IERC721-transferFrom}."
      },
      "transferOwnership(address)": {
        "details": "Transfers ownership of the contract to a new account (`newOwner`). Can only be called by the current owner."
      }
    },
    "version": 1
  },
  "userdoc": {
    "kind": "user",
    "methods": {},
    "version": 1
  }
}