{
  "contractName": "TicketNFT",
  "abi": [
    {
      "inputs": [],
      "stateMutability": "nonpayable",
      "type": "constructor"
    },
    {
      "anonymous": false,
      "inputs": [
        {
          "indexed": true,
          "internalType": "address",
          "name": "owner",
          "type": "address"
        },
        {
          "indexed": true,
          "internalType": "address",
          "name": "approved",
          "type": "address"
        },
        {
          "indexed": true,
          "internalType": "uint256",
          "name": "tokenId",
          "type": "uint256"
        }
      ],
      "name": "Approval",
      "type": "event"
    },
    {
      "anonymous": false,
      "inputs": [
        {
          "indexed": true,
          "internalType": "address",
          "name": "owner",
          "type": "address"
        },
        {
          "indexed": true,
          "internalType": "address",
          "name": "operator",
          "type": "address"
        },
        {
          "indexed": false,
          "internalType": "bool",
          "name": "approved",
          "type": "bool"
        }
      ],
      "name": "ApprovalForAll",
      "type": "event"
    },
    {
      "anonymous": false,
      "inputs": [
        {
          "indexed": false,
          "internalType": "uint256",
          "name": "tokenId",
          "type": "uint256"
        },
        {
          "indexed": false,
          "internalType": "string",
          "name": "tokenName",
          "type": "string"
        },
        {
          "indexed": false,
          "internalType": "uint256",
          "name": "tokenPrice",
          "type": "uint256"
        },
        {
          "indexed": false,
          "internalType": "bool",
          "name": "isListed",
          "type": "bool"
        },
        {
          "components": [
            {
              "internalType": "uint256",
              "name": "tokenId",
              "type": "uint256"
            },
            {
              "internalType": "address",
              "name": "tokenOwner",
              "type": "address"
            },
            {
              "internalType": "string",
              "name": "tokenName",
              "type": "string"
            },
            {
              "internalType": "uint256",
              "name": "tokenPrice",
              "type": "uint256"
            },
            {
              "internalType": "bool",
              "name": "isListedForSale",
              "type": "bool"
            },
            {
              "internalType": "uint256",
              "name": "tokenIndex",
              "type": "uint256"
            }
          ],
          "indexed": false,
          "internalType": "struct TicketNFT.NftToken[]",
          "name": "allMintedTokens",
          "type": "tuple[]"
        }
      ],
      "name": "NewTokenMinted",
      "type": "event"
    },
    {
      "anonymous": false,
      "inputs": [
        {
          "indexed": false,
          "internalType": "uint256",
          "name": "tokenId",
          "type": "uint256"
        },
        {
          "indexed": false,
          "internalType": "uint256",
          "name": "listingPrice",
          "type": "uint256"
        }
      ],
      "name": "NftListedForSale",
      "type": "event"
    },
    {
      "anonymous": false,
      "inputs": [
        {
          "indexed": false,
          "internalType": "uint256",
          "name": "tokenId",
          "type": "uint256"
        },
        {
          "indexed": false,
          "internalType": "address",
          "name": "oldTokenOwnerAddress",
          "type": "address"
        },
        {
          "indexed": false,
          "internalType": "address",
          "name": "newTokenOwnerAddress",
          "type": "address"
        }
      ],
      "name": "NftOwnershipTransferEvent",
      "type": "event"
    },
    {
      "anonymous": false,
      "inputs": [
        {
          "indexed": false,
          "internalType": "uint256",
          "name": "tokenId",
          "type": "uint256"
        },
        {
          "indexed": false,
          "internalType": "address",
          "name": "newTokenOwner",
          "type": "address"
        },
        {
          "indexed": false,
          "internalType": "string",
          "name": "tokenName",
          "type": "string"
        },
        {
          "indexed": false,
          "internalType": "uint256",
          "name": "tokenPrice",
          "type": "uint256"
        }
      ],
      "name": "NftPurchased",
      "type": "event"
    },
    {
      "anonymous": false,
      "inputs": [
        {
          "indexed": false,
          "internalType": "address",
          "name": "currentOwner",
          "type": "address"
        }
      ],
      "name": "OwnerBalanceRetrieved",
      "type": "event"
    },
    {
      "anonymous": false,
      "inputs": [
        {
          "indexed": true,
          "internalType": "address",
          "name": "previousOwner",
          "type": "address"
        },
        {
          "indexed": true,
          "internalType": "address",
          "name": "newOwner",
          "type": "address"
        }
      ],
      "name": "OwnershipTransferred",
      "type": "event"
    },
    {
      "anonymous": false,
      "inputs": [
        {
          "indexed": false,
          "internalType": "uint256",
          "name": "tokenId",
          "type": "uint256"
        },
        {
          "indexed": false,
          "internalType": "uint256",
          "name": "newTotalSupply",
          "type": "uint256"
        }
      ],
      "name": "TokenBurned",
      "type": "event"
    },
    {
      "anonymous": false,
      "inputs": [
        {
          "indexed": true,
          "internalType": "address",
          "name": "from",
          "type": "address"
        },
        {
          "indexed": true,
          "internalType": "address",
          "name": "to",
          "type": "address"
        },
        {
          "indexed": true,
          "internalType": "uint256",
          "name": "tokenId",
          "type": "uint256"
        }
      ],
      "name": "Transfer",
      "type": "event"
    },
    {
      "inputs": [
        {
          "internalType": "uint256",
          "name": "",
          "type": "uint256"
        }
      ],
      "name": "allMintedTokens",
      "outputs": [
        {
          "internalType": "uint256",
          "name": "tokenId",
          "type": "uint256"
        },
        {
          "internalType": "address",
          "name": "tokenOwner",
          "type": "address"
        },
        {
          "internalType": "string",
          "name": "tokenName",
          "type": "string"
        },
        {
          "internalType": "uint256",
          "name": "tokenPrice",
          "type": "uint256"
        },
        {
          "internalType": "bool",
          "name": "isListedForSale",
          "type": "bool"
        },
        {
          "internalType": "uint256",
          "name": "tokenIndex",
          "type": "uint256"
        }
      ],
      "stateMutability": "view",
      "type": "function"
    },
    {
      "inputs": [
        {
          "internalType": "address",
          "name": "to",
          "type": "address"
        },
        {
          "internalType": "uint256",
          "name": "tokenId",
          "type": "uint256"
        }
      ],
      "name": "approve",
      "outputs": [],
      "stateMutability": "nonpayable",
      "type": "function"
    },
    {
      "inputs": [
        {
          "internalType": "address",
          "name": "owner",
          "type": "address"
        }
      ],
      "name": "balanceOf",
      "outputs": [
        {
          "internalType": "uint256",
          "name": "",
          "type": "uint256"
        }
      ],
      "stateMutability": "view",
      "type": "function"
    },
    {
      "inputs": [
        {
          "internalType": "uint256",
          "name": "",
          "type": "uint256"
        }
      ],
      "name": "circulatingTokens",
      "outputs": [
        {
          "internalType": "uint256",
          "name": "tokenId",
          "type": "uint256"
        },
        {
          "internalType": "address",
          "name": "tokenOwner",
          "type": "address"
        },
        {
          "internalType": "string",
          "name": "tokenName",
          "type": "string"
        },
        {
          "internalType": "uint256",
          "name": "tokenPrice",
          "type": "uint256"
        },
        {
          "internalType": "bool",
          "name": "isListedForSale",
          "type": "bool"
        },
        {
          "internalType": "uint256",
          "name": "tokenIndex",
          "type": "uint256"
        }
      ],
      "stateMutability": "view",
      "type": "function"
    },
    {
      "inputs": [
        {
          "internalType": "uint256",
          "name": "tokenId",
          "type": "uint256"
        }
      ],
      "name": "getApproved",
      "outputs": [
        {
          "internalType": "address",
          "name": "",
          "type": "address"
        }
      ],
      "stateMutability": "view",
      "type": "function"
    },
    {
      "inputs": [],
      "name": "initialListingPrice",
      "outputs": [
        {
          "internalType": "uint256",
          "name": "",
          "type": "uint256"
        }
      ],
      "stateMutability": "view",
      "type": "function"
    },
    {
      "inputs": [
        {
          "internalType": "address",
          "name": "owner",
          "type": "address"
        },
        {
          "internalType": "address",
          "name": "operator",
          "type": "address"
        }
      ],
      "name": "isApprovedForAll",
      "outputs": [
        {
          "internalType": "bool",
          "name": "",
          "type": "bool"
        }
      ],
      "stateMutability": "view",
      "type": "function"
    },
    {
      "inputs": [
        {
          "internalType": "uint256",
          "name": "",
          "type": "uint256"
        }
      ],
      "name": "isTokenForSale",
      "outputs": [
        {
          "internalType": "bool",
          "name": "",
          "type": "bool"
        }
      ],
      "stateMutability": "view",
      "type": "function"
    },
    {
      "inputs": [],
      "name": "name",
      "outputs": [
        {
          "internalType": "string",
          "name": "",
          "type": "string"
        }
      ],
      "stateMutability": "view",
      "type": "function"
    },
    {
      "inputs": [],
      "name": "owner",
      "outputs": [
        {
          "internalType": "address",
          "name": "",
          "type": "address"
        }
      ],
      "stateMutability": "view",
      "type": "function"
    },
    {
      "inputs": [
        {
          "internalType": "uint256",
          "name": "tokenId",
          "type": "uint256"
        }
      ],
      "name": "ownerOf",
      "outputs": [
        {
          "internalType": "address",
          "name": "",
          "type": "address"
        }
      ],
      "stateMutability": "view",
      "type": "function"
    },
    {
      "inputs": [],
      "name": "renounceOwnership",
      "outputs": [],
      "stateMutability": "nonpayable",
      "type": "function"
    },
    {
      "inputs": [
        {
          "internalType": "address",
          "name": "from",
          "type": "address"
        },
        {
          "internalType": "address",
          "name": "to",
          "type": "address"
        },
        {
          "internalType": "uint256",
          "name": "tokenId",
          "type": "uint256"
        }
      ],
      "name": "safeTransferFrom",
      "outputs": [],
      "stateMutability": "nonpayable",
      "type": "function"
    },
    {
      "inputs": [
        {
          "internalType": "address",
          "name": "from",
          "type": "address"
        },
        {
          "internalType": "address",
          "name": "to",
          "type": "address"
        },
        {
          "internalType": "uint256",
          "name": "tokenId",
          "type": "uint256"
        },
        {
          "internalType": "bytes",
          "name": "data",
          "type": "bytes"
        }
      ],
      "name": "safeTransferFrom",
      "outputs": [],
      "stateMutability": "nonpayable",
      "type": "function"
    },
    {
      "inputs": [
        {
          "internalType": "address",
          "name": "operator",
          "type": "address"
        },
        {
          "internalType": "bool",
          "name": "approved",
          "type": "bool"
        }
      ],
      "name": "setApprovalForAll",
      "outputs": [],
      "stateMutability": "nonpayable",
      "type": "function"
    },
    {
      "inputs": [
        {
          "internalType": "bytes4",
          "name": "interfaceId",
          "type": "bytes4"
        }
      ],
      "name": "supportsInterface",
      "outputs": [
        {
          "internalType": "bool",
          "name": "",
          "type": "bool"
        }
      ],
      "stateMutability": "view",
      "type": "function"
    },
    {
      "inputs": [],
      "name": "symbol",
      "outputs": [
        {
          "internalType": "string",
          "name": "",
          "type": "string"
        }
      ],
      "stateMutability": "view",
      "type": "function"
    },
    {
      "inputs": [
        {
          "internalType": "uint256",
          "name": "tokenId",
          "type": "uint256"
        }
      ],
      "name": "tokenURI",
      "outputs": [
        {
          "internalType": "string",
          "name": "",
          "type": "string"
        }
      ],
      "stateMutability": "view",
      "type": "function"
    },
    {
      "inputs": [
        {
          "internalType": "uint256",
          "name": "",
          "type": "uint256"
        }
      ],
      "name": "tokensPrice",
      "outputs": [
        {
          "internalType": "uint256",
          "name": "",
          "type": "uint256"
        }
      ],
      "stateMutability": "view",
      "type": "function"
    },
    {
      "inputs": [],
      "name": "totalTokenSupply",
      "outputs": [
        {
          "internalType": "uint256",
          "name": "",
          "type": "uint256"
        }
      ],
      "stateMutability": "view",
      "type": "function"
    },
    {
      "inputs": [
        {
          "internalType": "address",
          "name": "from",
          "type": "address"
        },
        {
          "internalType": "address",
          "name": "to",
          "type": "address"
        },
        {
          "internalType": "uint256",
          "name": "tokenId",
          "type": "uint256"
        }
      ],
      "name": "transferFrom",
      "outputs": [],
      "stateMutability": "nonpayable",
      "type": "function"
    },
    {
      "inputs": [
        {
          "internalType": "address",
          "name": "newOwner",
          "type": "address"
        }
      ],
      "name": "transferOwnership",
      "outputs": [],
      "stateMutability": "nonpayable",
      "type": "function"
    },
    {
      "inputs": [
        {
          "internalType": "string",
          "name": "_tokenName",
          "type": "string"
        },
        {
          "internalType": "uint256",
          "name": "_tokenPrice",
          "type": "uint256"
        }
      ],
      "name": "mintToken",
      "outputs": [
        {
          "internalType": "uint256",
          "name": "",
          "type": "uint256"
        }
      ],
      "stateMutability": "payable",
      "type": "function"
    },
    {
      "inputs": [],
      "name": "retrieveAllTokens",
      "outputs": [
        {
          "components": [
            {
              "internalType": "uint256",
              "name": "tokenId",
              "type": "uint256"
            },
            {
              "internalType": "address",
              "name": "tokenOwner",
              "type": "address"
            },
            {
              "internalType": "string",
              "name": "tokenName",
              "type": "string"
            },
            {
              "internalType": "uint256",
              "name": "tokenPrice",
              "type": "uint256"
            },
            {
              "internalType": "bool",
              "name": "isListedForSale",
              "type": "bool"
            },
            {
              "internalType": "uint256",
              "name": "tokenIndex",
              "type": "uint256"
            }
          ],
          "internalType": "struct TicketNFT.NftToken[]",
          "name": "",
          "type": "tuple[]"
        }
      ],
      "stateMutability": "view",
      "type": "function"
    },
    {
      "inputs": [
        {
          "internalType": "uint256",
          "name": "_tokenId",
          "type": "uint256"
        }
      ],
      "name": "getOwnerOfToken",
      "outputs": [
        {
          "internalType": "address",
          "name": "",
          "type": "address"
        }
      ],
      "stateMutability": "view",
      "type": "function"
    },
    {
      "inputs": [
        {
          "internalType": "uint256",
          "name": "_tokenId",
          "type": "uint256"
        }
      ],
      "name": "tokenIsOnSale",
      "outputs": [
        {
          "internalType": "bool",
          "name": "",
          "type": "bool"
        }
      ],
      "stateMutability": "view",
      "type": "function"
    },
    {
      "inputs": [
        {
          "internalType": "address",
          "name": "currentNftOwner",
          "type": "address"
        }
      ],
      "name": "fetchAccountBalance",
      "outputs": [
        {
          "internalType": "uint256",
          "name": "",
          "type": "uint256"
        }
      ],
      "stateMutability": "view",
      "type": "function"
    },
    {
      "inputs": [
        {
          "internalType": "uint256",
          "name": "_tokenIndex",
          "type": "uint256"
        }
      ],
      "name": "fetchTokenByIndex",
      "outputs": [
        {
          "components": [
            {
              "internalType": "uint256",
              "name": "tokenId",
              "type": "uint256"
            },
            {
              "internalType": "address",
              "name": "tokenOwner",
              "type": "address"
            },
            {
              "internalType": "string",
              "name": "tokenName",
              "type": "string"
            },
            {
              "internalType": "uint256",
              "name": "tokenPrice",
              "type": "uint256"
            },
            {
              "internalType": "bool",
              "name": "isListedForSale",
              "type": "bool"
            },
            {
              "internalType": "uint256",
              "name": "tokenIndex",
              "type": "uint256"
            }
          ],
          "internalType": "struct TicketNFT.NftToken",
          "name": "",
          "type": "tuple"
        }
      ],
      "stateMutability": "view",
      "type": "function"
    },
    {
      "inputs": [
        {
          "internalType": "uint256",
          "name": "_tokenId",
          "type": "uint256"
        },
        {
          "internalType": "address",
          "name": "_newTokenOwnerAddress",
          "type": "address"
        }
      ],
      "name": "transferTokenOwnership",
      "outputs": [],
      "stateMutability": "payable",
      "type": "function"
    },
    {
      "inputs": [
        {
          "internalType": "uint256",
          "name": "_tokenId",
          "type": "uint256"
        },
        {
          "internalType": "uint256",
          "name": "_listingPrice",
          "type": "uint256"
        }
      ],
      "name": "listNftForSale",
      "outputs": [],
      "stateMutability": "nonpayable",
      "type": "function"
    },
    {
      "inputs": [
        {
          "internalType": "uint256",
          "name": "tokenId",
          "type": "uint256"
        }
      ],
      "name": "buyNftToken",
      "outputs": [
        {
          "internalType": "address",
          "name": "",
          "type": "address"
        }
      ],
      "stateMutability": "payable",
      "type": "function"
    },
    {
      "inputs": [
        {
          "internalType": "uint256",
          "name": "tokenId",
          "type": "uint256"
        }
      ],
      "name": "burnNftToken",
      "outputs": [],
      "stateMutability": "nonpayable",
      "type": "function"
    }
  ],
  "bytecode": "0x608060405266354a6ba7a180006009553480156200001c57600080fd5b5060405180604001604052806011815260200170115d995b9d1cc813919508151a58dad95d607a1b815250604051806040016040528060048152602001631153919560e21b8152508160009081620000759190620001a2565b506001620000848282620001a2565b505050620000a16200009b620000a760201b60201c565b620000ab565b6200026e565b3390565b600780546001600160a01b038381166001600160a01b0319831681179093556040519116919082907f8be0079c531659141344cd1fd0a4f28419497f9722a3daafe3b4186f6b6457e090600090a35050565b634e487b7160e01b600052604160045260246000fd5b600181811c908216806200012857607f821691505b6020821081036200014957634e487b7160e01b600052602260045260246000fd5b50919050565b601f8211156200019d57600081815260208120601f850160051c81016020861015620001785750805b601f850160051c820191505b81811015620001995782815560010162000184565b5050505b505050565b81516001600160401b03811115620001be57620001be620000fd565b620001d681620001cf845462000113565b846200014f565b602080601f8311600181146200020e5760008415620001f55750858301515b600019600386901b1c1916600185901b17855562000199565b600085815260208120601f198616915b828110156200023f578886015182559484019460019091019084016200021e565b50858210156200025e5787850151600019600388901b60f8161c191681555b5050505050600190811b01905550565b612d66806200027e6000396000f3fe6080604052600436106101e35760003560e01c806379e85b7b11610102578063ba093ba611610095578063e4ac1bbe11610064578063e4ac1bbe146105d1578063e985e9c5146105e7578063e9cf64e614610630578063f2fde38b1461064357600080fd5b8063ba093ba61461055e578063c046372c1461058b578063c87b56dd1461059e578063da8cc6e8146105be57600080fd5b806395d89b41116100d157806395d89b41146104e95780639a65b722146104fe578063a22cb4651461051e578063b88d4fde1461053e57600080fd5b806379e85b7b146104365780637f1dd80b14610468578063854905b61461049e5780638da5cb5b146104cb57600080fd5b80631ca8b6cb1161017a5780634fed1c94116101495780634fed1c94146103b15780636352211e146103e157806370a0823114610401578063715018a61461042157600080fd5b80631ca8b6cb1461033b57806323b872dd146103515780633bda356c1461037157806342842e0e1461039157600080fd5b806308d5ab42116101b657806308d5ab4214610299578063095ea7b3146102cb57806315ac6494146102eb578063188e9c061461030d57600080fd5b806301ffc9a7146101e857806304f233091461021d57806306fdde031461023f578063081812fc14610261575b600080fd5b3480156101f457600080fd5b50610208610203366004612329565b610663565b60405190151581526020015b60405180910390f35b34801561022957600080fd5b5061023d610238366004612346565b6106b5565b005b34801561024b57600080fd5b50610254610910565b60405161021491906123b8565b34801561026d57600080fd5b5061028161027c3660046123cb565b6109a2565b6040516001600160a01b039091168152602001610214565b3480156102a557600080fd5b506102086102b43660046123cb565b6000908152600b6020526040902060030154151590565b3480156102d757600080fd5b5061023d6102e6366004612400565b6109c9565b3480156102f757600080fd5b50610300610ade565b6040516102149190612487565b34801561031957600080fd5b5061032d6103283660046124e9565b610c99565b604051908152602001610214565b34801561034757600080fd5b5061032d60085481565b34801561035d57600080fd5b5061023d61036c366004612504565b610ca4565b34801561037d57600080fd5b5061023d61038c3660046123cb565b610cd5565b34801561039d57600080fd5b5061023d6103ac366004612504565b610f06565b3480156103bd57600080fd5b506102086103cc3660046123cb565b600d6020526000908152604090205460ff1681565b3480156103ed57600080fd5b506102816103fc3660046123cb565b610f21565b34801561040d57600080fd5b5061032d61041c3660046124e9565b610f81565b34801561042d57600080fd5b5061023d611007565b34801561044257600080fd5b506104566104513660046123cb565b61101b565b60405161021496959493929190612540565b34801561047457600080fd5b506102816104833660046123cb565b6000908152600c60205260409020546001600160a01b031690565b3480156104aa57600080fd5b5061032d6104b93660046123cb565b600e6020526000908152604090205481565b3480156104d757600080fd5b506007546001600160a01b0316610281565b3480156104f557600080fd5b506102546110fc565b34801561050a57600080fd5b506104566105193660046123cb565b61110b565b34801561052a57600080fd5b5061023d610539366004612588565b61113d565b34801561054a57600080fd5b5061023d610559366004612650565b61114c565b34801561056a57600080fd5b5061057e6105793660046123cb565b611184565b60405161021491906126cc565b61032d6105993660046126df565b611282565b3480156105aa57600080fd5b506102546105b93660046123cb565b6114cc565b6102816105cc3660046123cb565b6115dc565b3480156105dd57600080fd5b5061032d60095481565b3480156105f357600080fd5b50610208610602366004612738565b6001600160a01b03918216600090815260056020908152604080832093909416825291909152205460ff1690565b61023d61063e36600461276b565b611908565b34801561064f57600080fd5b5061023d61065e3660046124e9565b611a3a565b60006001600160e01b031982166380ac58cd60e01b148061069457506001600160e01b03198216635b5e139f60e01b145b806106af57506301ffc9a760e01b6001600160e01b03198316145b92915050565b6000828152600c60205260409020546001600160a01b031633146107465760405162461bcd60e51b815260206004820152603760248201527f596f75206d75737420626520746865206f776e6572206f66207468697320746f60448201527f6b656e20746f206c69737420697420666f722073616c6500000000000000000060648201526084015b60405180910390fd5b6000828152600b6020526040902060030154156107cb5760405162461bcd60e51b815260206004820152603a60248201527f54686520746f6b656e206d75737420616c7265616479206265206f6e2073616c60448201527f6520746f206c69737420746865206e667420666f722073616c65000000000000606482015260840161073d565b6000828152600b60209081526040808320815160c0810183528154815260018201546001600160a01b03169381019390935260028101805491928401916108119061278e565b80601f016020809104026020016040519081016040528092919081815260200182805461083d9061278e565b801561088a5780601f1061085f5761010080835404028352916020019161088a565b820191906000526020600020905b81548152906001019060200180831161086d57829003601f168201915b505050918352505060038201546020820152600482015460ff161515604080830191909152600590920154606091820152820184905260016080830152519091507fc5a9946ad95695e956f90d429bf0833a693d0928aac900c651ebe3f4fc3cd89d906109039085908590918252602082015260400190565b60405180910390a1505050565b60606000805461091f9061278e565b80601f016020809104026020016040519081016040528092919081815260200182805461094b9061278e565b80156109985780601f1061096d57610100808354040283529160200191610998565b820191906000526020600020905b81548152906001019060200180831161097b57829003601f168201915b5050505050905090565b60006109ad82611ab3565b506000908152600460205260409020546001600160a01b031690565b60006109d482610f21565b9050806001600160a01b0316836001600160a01b031603610a415760405162461bcd60e51b815260206004820152602160248201527f4552433732313a20617070726f76616c20746f2063757272656e74206f776e656044820152603960f91b606482015260840161073d565b336001600160a01b0382161480610a5d5750610a5d8133610602565b610acf5760405162461bcd60e51b815260206004820152603d60248201527f4552433732313a20617070726f76652063616c6c6572206973206e6f7420746f60448201527f6b656e206f776e6572206f7220617070726f76656420666f7220616c6c000000606482015260840161073d565b610ad98383611b12565b505050565b6060600060085467ffffffffffffffff811115610afd57610afd6125c4565b604051908082528060200260200182016040528015610b3657816020015b610b23612284565b815260200190600190039081610b1b5790505b50905060005b600854811015610c9357600a8181548110610b5957610b596127c2565b90600052602060002090600602016040518060c0016040529081600082015481526020016001820160009054906101000a90046001600160a01b03166001600160a01b03166001600160a01b03168152602001600282018054610bbb9061278e565b80601f0160208091040260200160405190810160405280929190818152602001828054610be79061278e565b8015610c345780601f10610c0957610100808354040283529160200191610c34565b820191906000526020600020905b815481529060010190602001808311610c1757829003601f168201915b505050918352505060038201546020820152600482015460ff16151560408201526005909101546060909101528251839083908110610c7557610c756127c2565b60200260200101819052508080610c8b906127ee565b915050610b3c565b50919050565b60006106af82610f81565b610cae3382611b80565b610cca5760405162461bcd60e51b815260040161073d90612807565b610ad9838383611bfe565b6000818152600b6020526040902060018101543391906001600160a01b03168214610d5e5760405162461bcd60e51b815260206004820152603360248201527f596f75206d757374206265207468652063757272656e74206f776e6572206f66604482015272081d1a1948139195081d1bc8189d5c9b881a5d606a1b606482015260840161073d565b6005810154600a54600090610d7590600190612854565b9050600a8181548110610d8a57610d8a6127c2565b9060005260206000209060060201600a8381548110610dab57610dab6127c2565b60009182526020909120825460069092020190815560018083015490820180546001600160a01b0319166001600160a01b03909216919091179055600280820190610df8908401826128b5565b5060038281015490820155600480830154908201805460ff191660ff9092161515919091179055600591820154910155600a805480610e3957610e39612996565b6000828152602081206006600019909301928302018181556001810180546001600160a01b031916905590610e7160028301826122c5565b5060006003820181905560048201805460ff19169055600591820181905591909255868152600b60205260408082208290558382528120909101839055600880548290610ebd906129ac565b918290555060408051888152602081018390529192507f43ce8febc9822756d8f34b35cd628db23dc57fe810cb077080d7c740fcc6988f910160405180910390a1505050505050565b610ad98383836040518060200160405280600081525061114c565b6000818152600260205260408120546001600160a01b0316806106af5760405162461bcd60e51b8152602060048201526018602482015277115490cdcc8c4e881a5b9d985b1a59081d1bdad95b88125160421b604482015260640161073d565b60006001600160a01b038216610feb5760405162461bcd60e51b815260206004820152602960248201527f4552433732313a2061646472657373207a65726f206973206e6f7420612076616044820152683634b21037bbb732b960b91b606482015260840161073d565b506001600160a01b031660009081526003602052604090205490565b61100f611d6f565b6110196000611dc9565b565b600a818154811061102b57600080fd5b60009182526020909120600690910201805460018201546002830180549294506001600160a01b0390911692916110619061278e565b80601f016020809104026020016040519081016040528092919081815260200182805461108d9061278e565b80156110da5780601f106110af576101008083540402835291602001916110da565b820191906000526020600020905b8154815290600101906020018083116110bd57829003601f168201915b50505050600383015460048401546005909401549293909260ff909116915086565b60606001805461091f9061278e565b600b6020526000908152604090208054600182015460028301805492936001600160a01b03909216926110619061278e565b611148338383611e1b565b5050565b6111563383611b80565b6111725760405162461bcd60e51b815260040161073d90612807565b61117e84848484611ee9565b50505050565b61118c612284565b6000828152600b6020908152604091829020825160c0810184528154815260018201546001600160a01b03169281019290925260028101805492939192918401916111d69061278e565b80601f01602080910402602001604051908101604052809291908181526020018280546112029061278e565b801561124f5780601f106112245761010080835404028352916020019161124f565b820191906000526020600020905b81548152906001019060200180831161123257829003601f168201915b505050918352505060038201546020820152600482015460ff161515604082015260059091015460609091015292915050565b600080600860008154611294906127ee565b9182905550600a546040805160c0810182528381523360208083018281528385018b8152606085018b905260006080860181905260a08601889052888152600b909352949091208351815590516001820180546001600160a01b0319166001600160a01b03909216919091179055925194955093909190600282019061131a90826129c3565b50606082015160038083019190915560808301516004808401805492151560ff1993841617905560a0909401516005909301929092556000868152600b602090815260408083209384018b9055948301805490941684556008548252600c905292832080546001600160a01b038088166001600160a01b0319928316179092559254600a80546001818101835591909652835460069096027fc65a7bb8d6351c1cf70c95a316cc6a92839c986682d98bc35f958f4883f9d2a88101968755908401547fc65a7bb8d6351c1cf70c95a316cc6a92839c986682d98bc35f958f4883f9d2a982018054909616931692909217909355909260ff929092169183917fc65a7bb8d6351c1cf70c95a316cc6a92839c986682d98bc35f958f4883f9d2aa0161144760028401826128b5565b5060038281015490820155600480830154908201805460ff191660ff909216151591909117905560059182015491015561147f610ade565b507f6c9108226d49026acd435db71e7e152d2b80db7c9a29452bec9320f836e70e9185898984600a6040516114b8959493929190612a7d565b60405180910390a150929695505050505050565b60606114d782611ab3565b600082815260066020526040812080546114f09061278e565b80601f016020809104026020016040519081016040528092919081815260200182805461151c9061278e565b80156115695780601f1061153e57610100808354040283529160200191611569565b820191906000526020600020905b81548152906001019060200180831161154c57829003601f168201915b50505050509050600061158760408051602081019091526000815290565b90508051600003611599575092915050565b8151156115cb5780826040516020016115b3929190612bc2565b60405160208183030381529060405292505050919050565b6115d484611f1c565b949350505050565b6000818152600c602052604081205433906001600160a01b03166116425760405162461bcd60e51b815260206004820152601d60248201527f546865204e46542068617320616c7265616479206265656e20736f6c64000000604482015260640161073d565b6000838152600e602052604090205434146116c55760405162461bcd60e51b815260206004820152603c60248201527f5468652076616c7565206f6620746865206d7367206d7573742062652065717560448201527f616c20746f20746865207072696365206f662074686520746f6b656e00000000606482015260840161073d565b34816001600160a01b03163110156117455760405162461bcd60e51b815260206004820152603b60248201527f54686520746f6b656e20627579657220646f6573206e6f74206861766520656e60448201527f6f7567682066756e647320746f206275792074686520746f6b656e0000000000606482015260840161073d565b6000838152600b60209081526040808320815160c0810183528154815260018201546001600160a01b031693810193909352600281018054919284019161178b9061278e565b80601f01602080910402602001604051908101604052809291908181526020018280546117b79061278e565b80156118045780601f106117d957610100808354040283529160200191611804565b820191906000526020600020905b8154815290600101906020018083116117e757829003601f168201915b50505091835250506003820154602080830191909152600483015460ff161515604080840191909152600590930154606090920191909152828101516000888152600e9092528282205492519394509283926001600160a01b0384169281156108fc029290818181858888f19350505050158015611886573d6000803e3d6000fd5b506001600160a01b0384166020808501919091526000878152600d90915260409020805460ff191690556118b986610cd5565b7fe3c099707a92dd41663e7f3deca1d4a744ad4c34d9d152d4690430448bae422a8685856040015186606001516040516118f69493929190612bf1565b60405180910390a15091949350505050565b6000828152600b6020526040902060018101543391906001600160a01b031682146119d45760405162461bcd60e51b815260206004820152606a60248201527f596f75206173207468652063616c6c657220646f206e6f74206f776e2074686960448201527f7320746f6b656e20726570726573656e74696e6720746865207469636b65742e60648201527f205472616e73666572206f66206f776e6572736869702063616e6e6f74206265608482015269081c195c999bdc9b595960b21b60a482015260c40161073d565b6001810180546001600160a01b0319166001600160a01b038581169182179092556040805187815292851660208401528201527f871c82ffff979d6aec4e39ef3ff2de7ab2c141f6bd26cdfdb5ac9a3b7c79bbf19060600160405180910390a150505050565b611a42611d6f565b6001600160a01b038116611aa75760405162461bcd60e51b815260206004820152602660248201527f4f776e61626c653a206e6577206f776e657220697320746865207a65726f206160448201526564647265737360d01b606482015260840161073d565b611ab081611dc9565b50565b6000818152600260205260409020546001600160a01b0316611ab05760405162461bcd60e51b8152602060048201526018602482015277115490cdcc8c4e881a5b9d985b1a59081d1bdad95b88125160421b604482015260640161073d565b600081815260046020526040902080546001600160a01b0319166001600160a01b0384169081179091558190611b4782610f21565b6001600160a01b03167f8c5be1e5ebec7d5bd14f71427d1e84f3dd0314c0f7b2291e5b200ac8c7c3b92560405160405180910390a45050565b600080611b8c83610f21565b9050806001600160a01b0316846001600160a01b03161480611bd357506001600160a01b0380821660009081526005602090815260408083209388168352929052205460ff165b806115d45750836001600160a01b0316611bec846109a2565b6001600160a01b031614949350505050565b826001600160a01b0316611c1182610f21565b6001600160a01b031614611c375760405162461bcd60e51b815260040161073d90612c2c565b6001600160a01b038216611c995760405162461bcd60e51b8152602060048201526024808201527f4552433732313a207472616e7366657220746f20746865207a65726f206164646044820152637265737360e01b606482015260840161073d565b611ca68383836001611f90565b826001600160a01b0316611cb982610f21565b6001600160a01b031614611cdf5760405162461bcd60e51b815260040161073d90612c2c565b600081815260046020908152604080832080546001600160a01b03199081169091556001600160a01b0387811680865260038552838620805460001901905590871680865283862080546001019055868652600290945282852080549092168417909155905184937fddf252ad1be2c89b69c2b068fc378daa952ba7f163c4a11628f55a4df523b3ef91a4505050565b6007546001600160a01b031633146110195760405162461bcd60e51b815260206004820181905260248201527f4f776e61626c653a2063616c6c6572206973206e6f7420746865206f776e6572604482015260640161073d565b600780546001600160a01b038381166001600160a01b0319831681179093556040519116919082907f8be0079c531659141344cd1fd0a4f28419497f9722a3daafe3b4186f6b6457e090600090a35050565b816001600160a01b0316836001600160a01b031603611e7c5760405162461bcd60e51b815260206004820152601960248201527f4552433732313a20617070726f766520746f2063616c6c657200000000000000604482015260640161073d565b6001600160a01b03838116600081815260056020908152604080832094871680845294825291829020805460ff191686151590811790915591519182527f17307eab39ab6107e8899845ad3d59bd9653f200f220920489ca2b5937696c31910160405180910390a3505050565b611ef4848484611bfe565b611f0084848484612018565b61117e5760405162461bcd60e51b815260040161073d90612c71565b6060611f2782611ab3565b6000611f3e60408051602081019091526000815290565b90506000815111611f5e5760405180602001604052806000815250611f89565b80611f6884612119565b604051602001611f79929190612bc2565b6040516020818303038152906040525b9392505050565b600181111561117e576001600160a01b03841615611fd6576001600160a01b03841660009081526003602052604081208054839290611fd0908490612854565b90915550505b6001600160a01b0383161561117e576001600160a01b0383166000908152600360205260408120805483929061200d908490612cc3565b909155505050505050565b60006001600160a01b0384163b1561210e57604051630a85bd0160e11b81526001600160a01b0385169063150b7a029061205c903390899088908890600401612cd6565b6020604051808303816000875af1925050508015612097575060408051601f3d908101601f1916820190925261209491810190612d13565b60015b6120f4573d8080156120c5576040519150601f19603f3d011682016040523d82523d6000602084013e6120ca565b606091505b5080516000036120ec5760405162461bcd60e51b815260040161073d90612c71565b805181602001fd5b6001600160e01b031916630a85bd0160e11b1490506115d4565b506001949350505050565b60606000612126836121ac565b600101905060008167ffffffffffffffff811115612146576121466125c4565b6040519080825280601f01601f191660200182016040528015612170576020820181803683370190505b5090508181016020015b600019016f181899199a1a9b1b9c1cb0b131b232b360811b600a86061a8153600a850494508461217a57509392505050565b60008072184f03e93ff9f4daa797ed6e38ed64bf6a1f0160401b83106121eb5772184f03e93ff9f4daa797ed6e38ed64bf6a1f0160401b830492506040015b6d04ee2d6d415b85acef81000000008310612217576d04ee2d6d415b85acef8100000000830492506020015b662386f26fc10000831061223557662386f26fc10000830492506010015b6305f5e100831061224d576305f5e100830492506008015b612710831061226157612710830492506004015b60648310612273576064830492506002015b600a83106106af5760010192915050565b6040518060c001604052806000815260200160006001600160a01b031681526020016060815260200160008152602001600015158152602001600081525090565b5080546122d19061278e565b6000825580601f106122e1575050565b601f016020900490600052602060002090810190611ab091905b8082111561230f57600081556001016122fb565b5090565b6001600160e01b031981168114611ab057600080fd5b60006020828403121561233b57600080fd5b8135611f8981612313565b6000806040838503121561235957600080fd5b50508035926020909101359150565b60005b8381101561238357818101518382015260200161236b565b50506000910152565b600081518084526123a4816020860160208601612368565b601f01601f19169290920160200192915050565b602081526000611f89602083018461238c565b6000602082840312156123dd57600080fd5b5035919050565b80356001600160a01b03811681146123fb57600080fd5b919050565b6000806040838503121561241357600080fd5b61241c836123e4565b946020939093013593505050565b8051825260018060a01b0360208201511660208301526000604082015160c0604085015261245b60c085018261238c565b90506060830151606085015260808301511515608085015260a083015160a08501528091505092915050565b6000602080830181845280855180835260408601915060408160051b870101925083870160005b828110156124dc57603f198886030184526124ca85835161242a565b945092850192908501906001016124ae565b5092979650505050505050565b6000602082840312156124fb57600080fd5b611f89826123e4565b60008060006060848603121561251957600080fd5b612522846123e4565b9250612530602085016123e4565b9150604084013590509250925092565b8681526001600160a01b038616602082015260c06040820181905260009061256a9083018761238c565b606083019590955250911515608083015260a0909101529392505050565b6000806040838503121561259b57600080fd5b6125a4836123e4565b9150602083013580151581146125b957600080fd5b809150509250929050565b634e487b7160e01b600052604160045260246000fd5b600067ffffffffffffffff808411156125f5576125f56125c4565b604051601f8501601f19908116603f0116810190828211818310171561261d5761261d6125c4565b8160405280935085815286868601111561263657600080fd5b858560208301376000602087830101525050509392505050565b6000806000806080858703121561266657600080fd5b61266f856123e4565b935061267d602086016123e4565b925060408501359150606085013567ffffffffffffffff8111156126a057600080fd5b8501601f810187136126b157600080fd5b6126c0878235602084016125da565b91505092959194509250565b602081526000611f89602083018461242a565b600080604083850312156126f257600080fd5b823567ffffffffffffffff81111561270957600080fd5b8301601f8101851361271a57600080fd5b612729858235602084016125da565b95602094909401359450505050565b6000806040838503121561274b57600080fd5b612754836123e4565b9150612762602084016123e4565b90509250929050565b6000806040838503121561277e57600080fd5b82359150612762602084016123e4565b600181811c908216806127a257607f821691505b602082108103610c9357634e487b7160e01b600052602260045260246000fd5b634e487b7160e01b600052603260045260246000fd5b634e487b7160e01b600052601160045260246000fd5b600060018201612800576128006127d8565b5060010190565b6020808252602d908201527f4552433732313a2063616c6c6572206973206e6f7420746f6b656e206f776e6560408201526c1c881bdc88185c1c1c9bdd9959609a1b606082015260800190565b818103818111156106af576106af6127d8565b601f821115610ad957600081815260208120601f850160051c8101602086101561288e5750805b601f850160051c820191505b818110156128ad5782815560010161289a565b505050505050565b8181036128c0575050565b6128ca825461278e565b67ffffffffffffffff8111156128e2576128e26125c4565b6128f6816128f0845461278e565b84612867565b6000601f82116001811461292a57600083156129125750848201545b600019600385901b1c1916600184901b17845561298f565b600085815260209020601f19841690600086815260209020845b838110156129645782860154825560019586019590910190602001612944565b50858310156129825781850154600019600388901b60f8161c191681555b50505060018360011b0184555b5050505050565b634e487b7160e01b600052603160045260246000fd5b6000816129bb576129bb6127d8565b506000190190565b815167ffffffffffffffff8111156129dd576129dd6125c4565b6129eb816128f0845461278e565b602080601f831160018114612a205760008415612a085750858301515b600019600386901b1c1916600185901b1785556128ad565b600085815260208120601f198616915b82811015612a4f57888601518255948401946001909101908401612a30565b5085821015612a6d5787850151600019600388901b60f8161c191681555b5050505050600190811b01905550565b8581526000602060a081840152612a9760a084018861238c565b866040850152851515606085015283810360808501528085548083528383019150838160051b8401016000888152858120815b84811015612baf57868403601f190186528154845260018201546001600160a01b03168885015260c060408501526002820180548490612b098161278e565b8060c089015260e06001831660008114612b2a5760018114612b4457612b71565b60ff1984168a83015282151560051b8a0182019450612b71565b8589528d8920895b84811015612b695781548c82018501526001909101908f01612b4c565b8b0183019550505b5050505060038401546060870152600484015460ff1615156080870152600584015460a0909601959095525094870194600690910190600101612aca565b50919d9c50505050505050505050505050565b60008351612bd4818460208801612368565b835190830190612be8818360208801612368565b01949350505050565b8481526001600160a01b0384166020820152608060408201819052600090612c1b9083018561238c565b905082606083015295945050505050565b60208082526025908201527f4552433732313a207472616e736665722066726f6d20696e636f72726563742060408201526437bbb732b960d91b606082015260800190565b60208082526032908201527f4552433732313a207472616e7366657220746f206e6f6e20455243373231526560408201527131b2b4bb32b91034b6b83632b6b2b73a32b960711b606082015260800190565b808201808211156106af576106af6127d8565b6001600160a01b0385811682528416602082015260408101839052608060608201819052600090612d099083018461238c565b9695505050505050565b600060208284031215612d2557600080fd5b8151611f898161231356fea26469706673582212200d9015d47198d5feb64da0e0de41577245782b69cdfa8de06cf4ad131cfe2ce364736f6c63430008110033",
  "immutableReferences": {},
  "source": "// SPDX-License-Identifier: MIT\npragma solidity ^0.8.7;\n\nimport \"../node_modules/@openzeppelin/contracts/token/ERC721/extensions/ERC721URIStorage.sol\";\nimport \"../node_modules/@openzeppelin/contracts/utils/Counters.sol\";\nimport \"../node_modules/@openzeppelin/contracts/token/ERC721/ERC721.sol\";\nimport \"../node_modules/@openzeppelin/contracts/access/Ownable.sol\";\n\ncontract TicketNFT is ERC721URIStorage, Ownable { // NFT Contract for Event Tickets\n\n    struct NftToken { // Create the struct for the nft token\n        uint256 tokenId;\n        address tokenOwner;\n        string tokenName;\n        uint256 tokenPrice;\n        bool isListedForSale;\n        uint256 tokenIndex;\n    }\n\n    uint256 public totalTokenSupply; // Total supply for the tokens\n    uint256 public initialListingPrice = 0.015 ether; // Initial listing price of the ticket as an NFT to 20GBP\n    NftToken[] public allMintedTokens;\n\n    mapping (uint256 => NftToken) public circulatingTokens; // Create mapping between an Integer and the token struct (1 => Nft data, 2: Nft Data...)\n    mapping (uint256 => address) tokenOwner; // Store the owners of the NFT\n\n    mapping (uint256 => bool) public isTokenForSale;\n    mapping (uint256 => uint) public tokensPrice;\n    mapping(string => bool) tokenNames;\n\n    event NewTokenMinted(uint256 tokenId, string tokenName, uint tokenPrice, bool isListed, NftToken[] allMintedTokens);\n    event NftPurchased (uint256 tokenId, address newTokenOwner, string tokenName, uint tokenPrice);\n    event NftOwnershipTransferEvent(uint tokenId, address oldTokenOwnerAddress, address newTokenOwnerAddress);\n    event NftListedForSale(uint tokenId, uint listingPrice);\n    event OwnerBalanceRetrieved(address currentOwner);\n    event TokenBurned(uint tokenId, uint newTotalSupply);\n    \n    constructor() ERC721(\"Events NFT Ticket\", \"ENFT\") {}\n\n    // @description: Mint a new NFT token on the blockchain that uniquely represents an Event Ticket\n    // @parameters: _tokenName: Represents the name of the ticket, _tokenPrice: The price of the event ticket\n    // @returns: Returns the new ticket ID (Used for proof of ownership in transfer of ownership)\n\n    function mintToken(string memory _tokenName, uint256 _tokenPrice) public payable returns (uint) {\n        uint256 newTokenID = ++totalTokenSupply;\n        address owner = msg.sender; \n\n        uint allTokensLength = allMintedTokens.length;\n\n        circulatingTokens[newTokenID] = NftToken(newTokenID, owner, _tokenName, _tokenPrice, false, allTokensLength);\n        NftToken storage currMintedToken = circulatingTokens[newTokenID];\n\n        currMintedToken.tokenPrice = _tokenPrice;\n        currMintedToken.isListedForSale = false;\n        tokenOwner[totalTokenSupply] = owner;\n        \n        bool isTokenListed = currMintedToken.isListedForSale;\n\n        allMintedTokens.push(currMintedToken);\n        retrieveAllTokens();\n\n        emit NewTokenMinted(newTokenID, _tokenName, _tokenPrice, isTokenListed, allMintedTokens);\n        return newTokenID;\n    }\n\n    function retrieveAllTokens() public view returns (NftToken[] memory) {\n        NftToken[] memory currentMintedTokens = new NftToken[](totalTokenSupply); // Loop through all the tokens, get the current total supply\n\n        for(uint index = 0; index < totalTokenSupply; index++) { // Set the current minted token index to the array of all minted tokens index\n            currentMintedTokens[index] = allMintedTokens[index];\n        }   \n\n        return currentMintedTokens; // Return the currently minted tokens\n    }\n\n    // @description: Returns the owner of the NFT token given an ID and returns the address of the owner\n    function getOwnerOfToken(uint256 _tokenId) public view returns (address) {\n        return tokenOwner[_tokenId];\n    }\n\n    function tokenIsOnSale(uint256 _tokenId) public view returns (bool) { // Function that determines if the token with its ID is already on sale or not\n        return circulatingTokens[_tokenId].tokenPrice > 0;\n    }\n\n   function fetchAccountBalance(address currentNftOwner) public view returns (uint) { // Returns the balance in ETH of the token owner\n      return balanceOf(currentNftOwner);\n   }\n\n    // @description: Returns the minted NFT by its Token INDEX\n    function fetchTokenByIndex(uint256 _tokenIndex) public view returns (NftToken memory) {\n        return circulatingTokens[_tokenIndex];\n    }\n\n    // @description: The function is responsible for transferring the ownership of a token from the ticket issuer's address to the buyer address\n    // @parameters: Token ID and the new token owner's metamask wallet address\n    function transferTokenOwnership(uint256 _tokenId, address _newTokenOwnerAddress) public payable {\n        address currentTokenOwner = msg.sender;\n        NftToken storage nftToken = circulatingTokens[_tokenId];\n\n        require(nftToken.tokenOwner == currentTokenOwner, \"You as the caller do not own this token representing the ticket. Transfer of ownership cannot be performed\");\n        nftToken.tokenOwner = _newTokenOwnerAddress;\n        emit NftOwnershipTransferEvent(_tokenId, currentTokenOwner, _newTokenOwnerAddress);\n    }\n\n    function listNftForSale(uint256 _tokenId, uint256 _listingPrice) public { // Function which will list the NFT for sale\n        require(getOwnerOfToken(_tokenId) == msg.sender, \"You must be the owner of this token to list it for sale\");\n        require(!(tokenIsOnSale(_tokenId)), \"The token must already be on sale to list the nft for sale\");\n\n        NftToken memory currentNftToken = circulatingTokens[_tokenId];\n\n        currentNftToken.tokenPrice = _listingPrice;\n        currentNftToken.isListedForSale = true;\n\n        emit NftListedForSale(_tokenId, _listingPrice);\n    }\n\n    function buyNftToken(uint256 tokenId) public payable returns (address) { // Function that allows the ticket buyer to to purchase the NFT Token given the Token ID\n        address tokenBuyer = msg.sender; // Store the token buyer in msg.sender\n        require(tokenOwner[tokenId] != address(0), \"The NFT has already been sold\");\n        require(msg.value == tokensPrice[tokenId], \"The value of the msg must be equal to the price of the token\");\n        require(tokenBuyer.balance >= msg.value, \"The token buyer does not have enough funds to buy the token\");\n\n        NftToken memory currentToken = circulatingTokens[tokenId]; // Extract the current nft token\n        address currentTokenOwner = currentToken.tokenOwner; // Get the current token owner\n        address payable currentTokenOwnerPayable = payable(currentTokenOwner);\n\n        currentTokenOwnerPayable.transfer(tokensPrice[tokenId]);\n        currentToken.tokenOwner = tokenBuyer;\n        isTokenForSale[tokenId] = false;\n\n        // After buying an NFT token, burn it directly to increase its value over time potentially\n        burnNftToken(tokenId);\n\n        emit NftPurchased(tokenId, tokenBuyer, currentToken.tokenName, currentToken.tokenPrice); // Emit the event that an NFT Has been purchased\n        return tokenBuyer; // Return the new address of the token owner (current buyer)\n   }\n\n   function burnNftToken(uint tokenId) public { // Function responsible for burning\n        address currentOwner = msg.sender;\n        NftToken storage currentTokenToBurn = circulatingTokens[tokenId];\n        require(currentTokenToBurn.tokenOwner == currentOwner, \"You must be the current owner of the NFT to burn it\");\n\n        uint256 currentTokenIndex = currentTokenToBurn.tokenIndex; // Retrieve the current index of the current token to be burned\n        uint256 lastMintedTokensIndex = allMintedTokens.length - 1; // Retrieve the last index of the last minted token\n\n        allMintedTokens[currentTokenIndex] = allMintedTokens[lastMintedTokensIndex]; // Set the current token index in the all minted tokens array to the last index\n        allMintedTokens.pop();\n\n        circulatingTokens[tokenId].tokenId = 0;\n        circulatingTokens[lastMintedTokensIndex].tokenIndex = currentTokenIndex;\n\n        uint newTotalSupply = --totalTokenSupply; // Decrease the total supply after burning the token\n        emit TokenBurned(tokenId, newTotalSupply);\n       \n   }\n\n}",
  "sourcePath": "/Users/sabin2000/Documents/ethertix/frontend/contracts/TicketNFT.sol",
  "compiler": {
    "name": "solc",
    "version": "0.8.17+commit.8df45f5f.Emscripten.clang"
  },
  "schemaVersion": "3.4.9",
  "updatedAt": "2023-02-27T13:20:07.562Z",
  "devdoc": {
    "kind": "dev",
    "methods": {
      "approve(address,uint256)": {
        "details": "See {IERC721-approve}."
      },
      "balanceOf(address)": {
        "details": "See {IERC721-balanceOf}."
      },
      "getApproved(uint256)": {
        "details": "See {IERC721-getApproved}."
      },
      "isApprovedForAll(address,address)": {
        "details": "See {IERC721-isApprovedForAll}."
      },
      "name()": {
        "details": "See {IERC721Metadata-name}."
      },
      "owner()": {
        "details": "Returns the address of the current owner."
      },
      "ownerOf(uint256)": {
        "details": "See {IERC721-ownerOf}."
      },
      "renounceOwnership()": {
        "details": "Leaves the contract without owner. It will not be possible to call `onlyOwner` functions anymore. Can only be called by the current owner. NOTE: Renouncing ownership will leave the contract without an owner, thereby removing any functionality that is only available to the owner."
      },
      "safeTransferFrom(address,address,uint256)": {
        "details": "See {IERC721-safeTransferFrom}."
      },
      "safeTransferFrom(address,address,uint256,bytes)": {
        "details": "See {IERC721-safeTransferFrom}."
      },
      "setApprovalForAll(address,bool)": {
        "details": "See {IERC721-setApprovalForAll}."
      },
      "supportsInterface(bytes4)": {
        "details": "See {IERC165-supportsInterface}."
      },
      "symbol()": {
        "details": "See {IERC721Metadata-symbol}."
      },
      "tokenURI(uint256)": {
        "details": "See {IERC721Metadata-tokenURI}."
      },
      "transferFrom(address,address,uint256)": {
        "details": "See {IERC721-transferFrom}."
      },
      "transferOwnership(address)": {
        "details": "Transfers ownership of the contract to a new account (`newOwner`). Can only be called by the current owner."
      }
    },
    "version": 1
  },
  "userdoc": {
    "kind": "user",
    "methods": {},
    "version": 1
  }
}